{
  "_format": "hh-sol-artifact-1",
  "contractName": "PatternSBT",
  "sourceName": "contracts/PatternSBT.sol",
  "abi": [
    {
      "inputs": [],
      "stateMutability": "nonpayable",
      "type": "constructor"
    },
    {
      "anonymous": false,
      "inputs": [
        {
          "indexed": true,
          "internalType": "address",
          "name": "owner",
          "type": "address"
        },
        {
          "indexed": true,
          "internalType": "address",
          "name": "approved",
          "type": "address"
        },
        {
          "indexed": true,
          "internalType": "uint256",
          "name": "tokenId",
          "type": "uint256"
        }
      ],
      "name": "Approval",
      "type": "event"
    },
    {
      "anonymous": false,
      "inputs": [
        {
          "indexed": true,
          "internalType": "address",
          "name": "owner",
          "type": "address"
        },
        {
          "indexed": true,
          "internalType": "address",
          "name": "operator",
          "type": "address"
        },
        {
          "indexed": false,
          "internalType": "bool",
          "name": "approved",
          "type": "bool"
        }
      ],
      "name": "ApprovalForAll",
      "type": "event"
    },
    {
      "anonymous": false,
      "inputs": [
        {
          "indexed": true,
          "internalType": "address",
          "name": "previousOwner",
          "type": "address"
        },
        {
          "indexed": true,
          "internalType": "address",
          "name": "newOwner",
          "type": "address"
        }
      ],
      "name": "OwnershipTransferred",
      "type": "event"
    },
    {
      "anonymous": false,
      "inputs": [
        {
          "indexed": true,
          "internalType": "address",
          "name": "from",
          "type": "address"
        },
        {
          "indexed": true,
          "internalType": "address",
          "name": "to",
          "type": "address"
        },
        {
          "indexed": true,
          "internalType": "uint256",
          "name": "tokenId",
          "type": "uint256"
        }
      ],
      "name": "Transfer",
      "type": "event"
    },
    {
      "inputs": [
        {
          "internalType": "address",
          "name": "to",
          "type": "address"
        },
        {
          "internalType": "uint256",
          "name": "tokenId",
          "type": "uint256"
        }
      ],
      "name": "approve",
      "outputs": [],
      "stateMutability": "nonpayable",
      "type": "function"
    },
    {
      "inputs": [
        {
          "internalType": "address",
          "name": "owner",
          "type": "address"
        }
      ],
      "name": "balanceOf",
      "outputs": [
        {
          "internalType": "uint256",
          "name": "",
          "type": "uint256"
        }
      ],
      "stateMutability": "view",
      "type": "function"
    },
    {
      "inputs": [
        {
          "internalType": "uint256",
          "name": "tokenId",
          "type": "uint256"
        }
      ],
      "name": "burn",
      "outputs": [],
      "stateMutability": "nonpayable",
      "type": "function"
    },
    {
      "inputs": [],
      "name": "fetchNfts",
      "outputs": [
        {
          "components": [
            {
              "internalType": "string",
              "name": "name",
              "type": "string"
            },
            {
              "internalType": "string",
              "name": "imageUrl",
              "type": "string"
            },
            {
              "internalType": "string",
              "name": "encryptedData",
              "type": "string"
            },
            {
              "internalType": "string",
              "name": "encryptedSymmetricKey",
              "type": "string"
            }
          ],
          "internalType": "struct PatternSBT.nft[]",
          "name": "",
          "type": "tuple[]"
        }
      ],
      "stateMutability": "view",
      "type": "function"
    },
    {
      "inputs": [
        {
          "internalType": "uint256",
          "name": "tokenId",
          "type": "uint256"
        }
      ],
      "name": "getApproved",
      "outputs": [
        {
          "internalType": "address",
          "name": "",
          "type": "address"
        }
      ],
      "stateMutability": "view",
      "type": "function"
    },
    {
      "inputs": [
        {
          "internalType": "address",
          "name": "owner",
          "type": "address"
        },
        {
          "internalType": "address",
          "name": "operator",
          "type": "address"
        }
      ],
      "name": "isApprovedForAll",
      "outputs": [
        {
          "internalType": "bool",
          "name": "",
          "type": "bool"
        }
      ],
      "stateMutability": "view",
      "type": "function"
    },
    {
      "inputs": [
        {
          "internalType": "string",
          "name": "name",
          "type": "string"
        },
        {
          "internalType": "string",
          "name": "imageUrl",
          "type": "string"
        },
        {
          "internalType": "string",
          "name": "encryptedData",
          "type": "string"
        },
        {
          "internalType": "string",
          "name": "encryptedSymmetricKey",
          "type": "string"
        }
      ],
      "name": "mintLitSBT",
      "outputs": [],
      "stateMutability": "nonpayable",
      "type": "function"
    },
    {
      "inputs": [],
      "name": "name",
      "outputs": [
        {
          "internalType": "string",
          "name": "",
          "type": "string"
        }
      ],
      "stateMutability": "view",
      "type": "function"
    },
    {
      "inputs": [],
      "name": "owner",
      "outputs": [
        {
          "internalType": "address",
          "name": "",
          "type": "address"
        }
      ],
      "stateMutability": "view",
      "type": "function"
    },
    {
      "inputs": [
        {
          "internalType": "uint256",
          "name": "tokenId",
          "type": "uint256"
        }
      ],
      "name": "ownerOf",
      "outputs": [
        {
          "internalType": "address",
          "name": "",
          "type": "address"
        }
      ],
      "stateMutability": "view",
      "type": "function"
    },
    {
      "inputs": [],
      "name": "renounceOwnership",
      "outputs": [],
      "stateMutability": "nonpayable",
      "type": "function"
    },
    {
      "inputs": [
        {
          "internalType": "address",
          "name": "from",
          "type": "address"
        },
        {
          "internalType": "address",
          "name": "to",
          "type": "address"
        },
        {
          "internalType": "uint256",
          "name": "tokenId",
          "type": "uint256"
        }
      ],
      "name": "safeTransferFrom",
      "outputs": [],
      "stateMutability": "nonpayable",
      "type": "function"
    },
    {
      "inputs": [
        {
          "internalType": "address",
          "name": "from",
          "type": "address"
        },
        {
          "internalType": "address",
          "name": "to",
          "type": "address"
        },
        {
          "internalType": "uint256",
          "name": "tokenId",
          "type": "uint256"
        },
        {
          "internalType": "bytes",
          "name": "data",
          "type": "bytes"
        }
      ],
      "name": "safeTransferFrom",
      "outputs": [],
      "stateMutability": "nonpayable",
      "type": "function"
    },
    {
      "inputs": [
        {
          "internalType": "address",
          "name": "operator",
          "type": "address"
        },
        {
          "internalType": "bool",
          "name": "approved",
          "type": "bool"
        }
      ],
      "name": "setApprovalForAll",
      "outputs": [],
      "stateMutability": "nonpayable",
      "type": "function"
    },
    {
      "inputs": [
        {
          "internalType": "bytes4",
          "name": "interfaceId",
          "type": "bytes4"
        }
      ],
      "name": "supportsInterface",
      "outputs": [
        {
          "internalType": "bool",
          "name": "",
          "type": "bool"
        }
      ],
      "stateMutability": "view",
      "type": "function"
    },
    {
      "inputs": [],
      "name": "symbol",
      "outputs": [
        {
          "internalType": "string",
          "name": "",
          "type": "string"
        }
      ],
      "stateMutability": "view",
      "type": "function"
    },
    {
      "inputs": [
        {
          "internalType": "uint256",
          "name": "tokenId",
          "type": "uint256"
        }
      ],
      "name": "tokenURI",
      "outputs": [
        {
          "internalType": "string",
          "name": "",
          "type": "string"
        }
      ],
      "stateMutability": "view",
      "type": "function"
    },
    {
      "inputs": [
        {
          "internalType": "address",
          "name": "from",
          "type": "address"
        },
        {
          "internalType": "address",
          "name": "to",
          "type": "address"
        },
        {
          "internalType": "uint256",
          "name": "tokenId",
          "type": "uint256"
        }
      ],
      "name": "transferFrom",
      "outputs": [],
      "stateMutability": "nonpayable",
      "type": "function"
    },
    {
      "inputs": [
        {
          "internalType": "address",
          "name": "newOwner",
          "type": "address"
        }
      ],
      "name": "transferOwnership",
      "outputs": [],
      "stateMutability": "nonpayable",
      "type": "function"
    }
  ],
  "bytecode": "0x60806040523480156200001157600080fd5b506040518060400160405280600a81526020017f5061747465726e534254000000000000000000000000000000000000000000008152506040518060400160405280600481526020017f444154410000000000000000000000000000000000000000000000000000000081525081600090816200008f91906200041a565b508060019081620000a191906200041a565b5050506001600781905550620000cc620000c0620000d260201b60201c565b620000da60201b60201c565b62000501565b600033905090565b6000600860009054906101000a900473ffffffffffffffffffffffffffffffffffffffff16905081600860006101000a81548173ffffffffffffffffffffffffffffffffffffffff021916908373ffffffffffffffffffffffffffffffffffffffff1602179055508173ffffffffffffffffffffffffffffffffffffffff168173ffffffffffffffffffffffffffffffffffffffff167f8be0079c531659141344cd1fd0a4f28419497f9722a3daafe3b4186f6b6457e060405160405180910390a35050565b600081519050919050565b7f4e487b7100000000000000000000000000000000000000000000000000000000600052604160045260246000fd5b7f4e487b7100000000000000000000000000000000000000000000000000000000600052602260045260246000fd5b600060028204905060018216806200022257607f821691505b602082108103620002385762000237620001da565b5b50919050565b60008190508160005260206000209050919050565b60006020601f8301049050919050565b600082821b905092915050565b600060088302620002a27fffffffffffffffffffffffffffffffffffffffffffffffffffffffffffffffff8262000263565b620002ae868362000263565b95508019841693508086168417925050509392505050565b6000819050919050565b6000819050919050565b6000620002fb620002f5620002ef84620002c6565b620002d0565b620002c6565b9050919050565b6000819050919050565b6200031783620002da565b6200032f620003268262000302565b84845462000270565b825550505050565b600090565b6200034662000337565b620003538184846200030c565b505050565b5b818110156200037b576200036f6000826200033c565b60018101905062000359565b5050565b601f821115620003ca5762000394816200023e565b6200039f8462000253565b81016020851015620003af578190505b620003c7620003be8562000253565b83018262000358565b50505b505050565b600082821c905092915050565b6000620003ef60001984600802620003cf565b1980831691505092915050565b60006200040a8383620003dc565b9150826002028217905092915050565b6200042582620001a0565b67ffffffffffffffff811115620004415762000440620001ab565b5b6200044d825462000209565b6200045a8282856200037f565b600060209050601f8311600181146200049257600084156200047d578287015190505b620004898582620003fc565b865550620004f9565b601f198416620004a2866200023e565b60005b82811015620004cc57848901518255600182019150602085019450602081019050620004a5565b86831015620004ec5784890151620004e8601f891682620003dc565b8355505b6001600288020188555050505b505050505050565b61407980620005116000396000f3fe608060405234801561001057600080fd5b50600436106101215760003560e01c806370a08231116100ad578063b88d4fde11610071578063b88d4fde146102f4578063c87b56dd14610310578063cd82a84014610340578063e985e9c51461035c578063f2fde38b1461038c57610121565b806370a0823114610262578063715018a6146102925780638da5cb5b1461029c57806395d89b41146102ba578063a22cb465146102d857610121565b806320de9a63116100f457806320de9a63146101c057806323b872dd146101de57806342842e0e146101fa57806342966c68146102165780636352211e1461023257610121565b806301ffc9a71461012657806306fdde0314610156578063081812fc14610174578063095ea7b3146101a4575b600080fd5b610140600480360381019061013b91906125ea565b6103a8565b60405161014d9190612632565b60405180910390f35b61015e61048a565b60405161016b91906126dd565b60405180910390f35b61018e60048036038101906101899190612735565b61051c565b60405161019b91906127a3565b60405180910390f35b6101be60048036038101906101b991906127ea565b610562565b005b6101c8610679565b6040516101d591906129ae565b60405180910390f35b6101f860048036038101906101f391906129d0565b6109b1565b005b610214600480360381019061020f91906129d0565b610a11565b005b610230600480360381019061022b9190612735565b610a31565b005b61024c60048036038101906102479190612735565b610a8d565b60405161025991906127a3565b60405180910390f35b61027c60048036038101906102779190612a23565b610b13565b6040516102899190612a5f565b60405180910390f35b61029a610bca565b005b6102a4610bde565b6040516102b191906127a3565b60405180910390f35b6102c2610c08565b6040516102cf91906126dd565b60405180910390f35b6102f260048036038101906102ed9190612aa6565b610c9a565b005b61030e60048036038101906103099190612c1b565b610cb0565b005b61032a60048036038101906103259190612735565b610d12565b60405161033791906126dd565b60405180910390f35b61035a60048036038101906103559190612d3f565b610d24565b005b61037660048036038101906103719190612e16565b610e01565b6040516103839190612632565b60405180910390f35b6103a660048036038101906103a19190612a23565b610e95565b005b60007f80ac58cd000000000000000000000000000000000000000000000000000000007bffffffffffffffffffffffffffffffffffffffffffffffffffffffff1916827bffffffffffffffffffffffffffffffffffffffffffffffffffffffff1916148061047357507f5b5e139f000000000000000000000000000000000000000000000000000000007bffffffffffffffffffffffffffffffffffffffffffffffffffffffff1916827bffffffffffffffffffffffffffffffffffffffffffffffffffffffff1916145b80610483575061048282610f18565b5b9050919050565b60606000805461049990612e85565b80601f01602080910402602001604051908101604052809291908181526020018280546104c590612e85565b80156105125780601f106104e757610100808354040283529160200191610512565b820191906000526020600020905b8154815290600101906020018083116104f557829003601f168201915b5050505050905090565b600061052782610f82565b6004600083815260200190815260200160002060009054906101000a900473ffffffffffffffffffffffffffffffffffffffff169050919050565b600061056d82610a8d565b90508073ffffffffffffffffffffffffffffffffffffffff168373ffffffffffffffffffffffffffffffffffffffff16036105dd576040517f08c379a00000000000000000000000000000000000000000000000000000000081526004016105d490612f28565b60405180910390fd5b8073ffffffffffffffffffffffffffffffffffffffff166105fc610fcd565b73ffffffffffffffffffffffffffffffffffffffff16148061062b575061062a81610625610fcd565b610e01565b5b61066a576040517f08c379a000000000000000000000000000000000000000000000000000000000815260040161066190612fba565b60405180910390fd5b6106748383610fd5565b505050565b60606000610687600961108e565b67ffffffffffffffff8111156106a05761069f612af0565b5b6040519080825280602002602001820160405280156106d957816020015b6106c66124f9565b8152602001906001900390816106be5790505b5090506000600190505b60016106ef600961108e565b6106f99190613009565b8110156109a9576000600a600083815260200190815260200160002060405180608001604052908160008201805461073090612e85565b80601f016020809104026020016040519081016040528092919081815260200182805461075c90612e85565b80156107a95780601f1061077e576101008083540402835291602001916107a9565b820191906000526020600020905b81548152906001019060200180831161078c57829003601f168201915b505050505081526020016001820180546107c290612e85565b80601f01602080910402602001604051908101604052809291908181526020018280546107ee90612e85565b801561083b5780601f106108105761010080835404028352916020019161083b565b820191906000526020600020905b81548152906001019060200180831161081e57829003601f168201915b5050505050815260200160028201805461085490612e85565b80601f016020809104026020016040519081016040528092919081815260200182805461088090612e85565b80156108cd5780601f106108a2576101008083540402835291602001916108cd565b820191906000526020600020905b8154815290600101906020018083116108b057829003601f168201915b505050505081526020016003820180546108e690612e85565b80601f016020809104026020016040519081016040528092919081815260200182805461091290612e85565b801561095f5780601f106109345761010080835404028352916020019161095f565b820191906000526020600020905b81548152906001019060200180831161094257829003601f168201915b50505050508152505090508083600184610979919061303d565b8151811061098a57610989613071565b5b60200260200101819052505080806109a1906130a0565b9150506106e3565b508091505090565b6109c26109bc610fcd565b8261109c565b610a01576040517f08c379a00000000000000000000000000000000000000000000000000000000081526004016109f89061315a565b60405180910390fd5b610a0c838383611131565b505050565b610a2c83838360405180602001604052806000815250610cb0565b505050565b610a42610a3c610fcd565b8261109c565b610a81576040517f08c379a0000000000000000000000000000000000000000000000000000000008152600401610a789061315a565b60405180910390fd5b610a8a8161142a565b50565b600080610a998361148c565b9050600073ffffffffffffffffffffffffffffffffffffffff168173ffffffffffffffffffffffffffffffffffffffff1603610b0a576040517f08c379a0000000000000000000000000000000000000000000000000000000008152600401610b01906131c6565b60405180910390fd5b80915050919050565b60008073ffffffffffffffffffffffffffffffffffffffff168273ffffffffffffffffffffffffffffffffffffffff1603610b83576040517f08c379a0000000000000000000000000000000000000000000000000000000008152600401610b7a90613258565b60405180910390fd5b600360008373ffffffffffffffffffffffffffffffffffffffff1673ffffffffffffffffffffffffffffffffffffffff168152602001908152602001600020549050919050565b610bd26114c9565b610bdc6000611547565b565b6000600860009054906101000a900473ffffffffffffffffffffffffffffffffffffffff16905090565b606060018054610c1790612e85565b80601f0160208091040260200160405190810160405280929190818152602001828054610c4390612e85565b8015610c905780601f10610c6557610100808354040283529160200191610c90565b820191906000526020600020905b815481529060010190602001808311610c7357829003601f168201915b5050505050905090565b610cac610ca5610fcd565b838361160d565b5050565b610cc1610cbb610fcd565b8361109c565b610d00576040517f08c379a0000000000000000000000000000000000000000000000000000000008152600401610cf79061315a565b60405180910390fd5b610d0c84848484611779565b50505050565b6060610d1d826117d5565b9050919050565b610d2c6118e7565b610d366009611936565b6000610d42600961108e565b9050610d4e338261194c565b610d6381610d5e8787878761196a565b6119c9565b604051806080016040528086815260200185815260200184815260200183815250600a60008381526020019081526020016000206000820151816000019081610dac9190613424565b506020820151816001019081610dc29190613424565b506040820151816002019081610dd89190613424565b506060820151816003019081610dee9190613424565b5090505050610dfb611a36565b50505050565b6000600560008473ffffffffffffffffffffffffffffffffffffffff1673ffffffffffffffffffffffffffffffffffffffff16815260200190815260200160002060008373ffffffffffffffffffffffffffffffffffffffff1673ffffffffffffffffffffffffffffffffffffffff16815260200190815260200160002060009054906101000a900460ff16905092915050565b610e9d6114c9565b600073ffffffffffffffffffffffffffffffffffffffff168173ffffffffffffffffffffffffffffffffffffffff1603610f0c576040517f08c379a0000000000000000000000000000000000000000000000000000000008152600401610f0390613568565b60405180910390fd5b610f1581611547565b50565b60007f01ffc9a7000000000000000000000000000000000000000000000000000000007bffffffffffffffffffffffffffffffffffffffffffffffffffffffff1916827bffffffffffffffffffffffffffffffffffffffffffffffffffffffff1916149050919050565b610f8b81611a40565b610fca576040517f08c379a0000000000000000000000000000000000000000000000000000000008152600401610fc1906131c6565b60405180910390fd5b50565b600033905090565b816004600083815260200190815260200160002060006101000a81548173ffffffffffffffffffffffffffffffffffffffff021916908373ffffffffffffffffffffffffffffffffffffffff160217905550808273ffffffffffffffffffffffffffffffffffffffff1661104883610a8d565b73ffffffffffffffffffffffffffffffffffffffff167f8c5be1e5ebec7d5bd14f71427d1e84f3dd0314c0f7b2291e5b200ac8c7c3b92560405160405180910390a45050565b600081600001549050919050565b6000806110a883610a8d565b90508073ffffffffffffffffffffffffffffffffffffffff168473ffffffffffffffffffffffffffffffffffffffff1614806110ea57506110e98185610e01565b5b8061112857508373ffffffffffffffffffffffffffffffffffffffff166111108461051c565b73ffffffffffffffffffffffffffffffffffffffff16145b91505092915050565b8273ffffffffffffffffffffffffffffffffffffffff1661115182610a8d565b73ffffffffffffffffffffffffffffffffffffffff16146111a7576040517f08c379a000000000000000000000000000000000000000000000000000000000815260040161119e906135fa565b60405180910390fd5b600073ffffffffffffffffffffffffffffffffffffffff168273ffffffffffffffffffffffffffffffffffffffff1603611216576040517f08c379a000000000000000000000000000000000000000000000000000000000815260040161120d9061368c565b60405180910390fd5b6112238383836001611a81565b8273ffffffffffffffffffffffffffffffffffffffff1661124382610a8d565b73ffffffffffffffffffffffffffffffffffffffff1614611299576040517f08c379a0000000000000000000000000000000000000000000000000000000008152600401611290906135fa565b60405180910390fd5b6004600082815260200190815260200160002060006101000a81549073ffffffffffffffffffffffffffffffffffffffff02191690556001600360008573ffffffffffffffffffffffffffffffffffffffff1673ffffffffffffffffffffffffffffffffffffffff168152602001908152602001600020600082825403925050819055506001600360008473ffffffffffffffffffffffffffffffffffffffff1673ffffffffffffffffffffffffffffffffffffffff16815260200190815260200160002060008282540192505081905550816002600083815260200190815260200160002060006101000a81548173ffffffffffffffffffffffffffffffffffffffff021916908373ffffffffffffffffffffffffffffffffffffffff160217905550808273ffffffffffffffffffffffffffffffffffffffff168473ffffffffffffffffffffffffffffffffffffffff167fddf252ad1be2c89b69c2b068fc378daa952ba7f163c4a11628f55a4df523b3ef60405160405180910390a46114258383836001611b2d565b505050565b61143381611b33565b600a6000828152602001908152602001600020600080820160006114579190612521565b6001820160006114679190612521565b6002820160006114779190612521565b6003820160006114879190612521565b505050565b60006002600083815260200190815260200160002060009054906101000a900473ffffffffffffffffffffffffffffffffffffffff169050919050565b6114d1610fcd565b73ffffffffffffffffffffffffffffffffffffffff166114ef610bde565b73ffffffffffffffffffffffffffffffffffffffff1614611545576040517f08c379a000000000000000000000000000000000000000000000000000000000815260040161153c906136f8565b60405180910390fd5b565b6000600860009054906101000a900473ffffffffffffffffffffffffffffffffffffffff16905081600860006101000a81548173ffffffffffffffffffffffffffffffffffffffff021916908373ffffffffffffffffffffffffffffffffffffffff1602179055508173ffffffffffffffffffffffffffffffffffffffff168173ffffffffffffffffffffffffffffffffffffffff167f8be0079c531659141344cd1fd0a4f28419497f9722a3daafe3b4186f6b6457e060405160405180910390a35050565b8173ffffffffffffffffffffffffffffffffffffffff168373ffffffffffffffffffffffffffffffffffffffff160361167b576040517f08c379a000000000000000000000000000000000000000000000000000000000815260040161167290613764565b60405180910390fd5b80600560008573ffffffffffffffffffffffffffffffffffffffff1673ffffffffffffffffffffffffffffffffffffffff16815260200190815260200160002060008473ffffffffffffffffffffffffffffffffffffffff1673ffffffffffffffffffffffffffffffffffffffff16815260200190815260200160002060006101000a81548160ff0219169083151502179055508173ffffffffffffffffffffffffffffffffffffffff168373ffffffffffffffffffffffffffffffffffffffff167f17307eab39ab6107e8899845ad3d59bd9653f200f220920489ca2b5937696c318360405161176c9190612632565b60405180910390a3505050565b611784848484611131565b61179084848484611b86565b6117cf576040517f08c379a00000000000000000000000000000000000000000000000000000000081526004016117c6906137f6565b60405180910390fd5b50505050565b60606117e082610f82565b600060066000848152602001908152602001600020805461180090612e85565b80601f016020809104026020016040519081016040528092919081815260200182805461182c90612e85565b80156118795780601f1061184e57610100808354040283529160200191611879565b820191906000526020600020905b81548152906001019060200180831161185c57829003601f168201915b50505050509050600061188a611d0d565b9050600081510361189f5781925050506118e2565b6000825111156118d45780826040516020016118bc929190613852565b604051602081830303815290604052925050506118e2565b6118dd84611d24565b925050505b919050565b60026007540361192c576040517f08c379a0000000000000000000000000000000000000000000000000000000008152600401611923906138c2565b60405180910390fd5b6002600781905550565b6001816000016000828254019250508190555050565b611966828260405180602001604052806000815250611d8c565b5050565b60606000858585856040516020016119859493929190613b42565b604051602081830303815290604052905061199f81611de7565b6040516020016119af9190613c3a565b604051602081830303815290604052915050949350505050565b6119d282611a40565b611a11576040517f08c379a0000000000000000000000000000000000000000000000000000000008152600401611a0890613cce565b60405180910390fd5b80600660008481526020019081526020016000209081611a319190613424565b505050565b6001600781905550565b60008073ffffffffffffffffffffffffffffffffffffffff16611a628361148c565b73ffffffffffffffffffffffffffffffffffffffff1614159050919050565b600073ffffffffffffffffffffffffffffffffffffffff168473ffffffffffffffffffffffffffffffffffffffff161480611ae85750600073ffffffffffffffffffffffffffffffffffffffff168373ffffffffffffffffffffffffffffffffffffffff16145b611b27576040517f08c379a0000000000000000000000000000000000000000000000000000000008152600401611b1e90613d86565b60405180910390fd5b50505050565b50505050565b611b3c81611f4a565b6000600660008381526020019081526020016000208054611b5c90612e85565b905014611b8357600660008281526020019081526020016000206000611b829190612521565b5b50565b6000611ba78473ffffffffffffffffffffffffffffffffffffffff16612098565b15611d00578373ffffffffffffffffffffffffffffffffffffffff1663150b7a02611bd0610fcd565b8786866040518563ffffffff1660e01b8152600401611bf29493929190613dfb565b6020604051808303816000875af1925050508015611c2e57506040513d601f19601f82011682018060405250810190611c2b9190613e5c565b60015b611cb0573d8060008114611c5e576040519150601f19603f3d011682016040523d82523d6000602084013e611c63565b606091505b506000815103611ca8576040517f08c379a0000000000000000000000000000000000000000000000000000000008152600401611c9f906137f6565b60405180910390fd5b805181602001fd5b63150b7a0260e01b7bffffffffffffffffffffffffffffffffffffffffffffffffffffffff1916817bffffffffffffffffffffffffffffffffffffffffffffffffffffffff191614915050611d05565b600190505b949350505050565b606060405180602001604052806000815250905090565b6060611d2f82610f82565b6000611d39611d0d565b90506000815111611d595760405180602001604052806000815250611d84565b80611d63846120bb565b604051602001611d74929190613852565b6040516020818303038152906040525b915050919050565b611d968383612189565b611da36000848484611b86565b611de2576040517f08c379a0000000000000000000000000000000000000000000000000000000008152600401611dd9906137f6565b60405180910390fd5b505050565b60606000825103611e0957604051806020016040528060008152509050611f45565b60006040518060600160405280604081526020016140046040913990506000600360028551611e389190613009565b611e429190613eb8565b6004611e4e9190613ee9565b67ffffffffffffffff811115611e6757611e66612af0565b5b6040519080825280601f01601f191660200182016040528015611e995781602001600182028036833780820191505090505b509050600182016020820185865187015b80821015611f05576003820191508151603f8160121c168501518453600184019350603f81600c1c168501518453600184019350603f8160061c168501518453600184019350603f8116850151845360018401935050611eaa565b5050600386510660018114611f215760028114611f3457611f3c565b603d6001830353603d6002830353611f3c565b603d60018303535b50505080925050505b919050565b6000611f5582610a8d565b9050611f65816000846001611a81565b611f6e82610a8d565b90506004600083815260200190815260200160002060006101000a81549073ffffffffffffffffffffffffffffffffffffffff02191690556001600360008373ffffffffffffffffffffffffffffffffffffffff1673ffffffffffffffffffffffffffffffffffffffff168152602001908152602001600020600082825403925050819055506002600083815260200190815260200160002060006101000a81549073ffffffffffffffffffffffffffffffffffffffff021916905581600073ffffffffffffffffffffffffffffffffffffffff168273ffffffffffffffffffffffffffffffffffffffff167fddf252ad1be2c89b69c2b068fc378daa952ba7f163c4a11628f55a4df523b3ef60405160405180910390a4612094816000846001611b2d565b5050565b6000808273ffffffffffffffffffffffffffffffffffffffff163b119050919050565b6060600060016120ca846123a6565b01905060008167ffffffffffffffff8111156120e9576120e8612af0565b5b6040519080825280601f01601f19166020018201604052801561211b5781602001600182028036833780820191505090505b509050600082602001820190505b60011561217e578080600190039150507f3031323334353637383961626364656600000000000000000000000000000000600a86061a8153600a858161217257612171613e89565b5b04945060008503612129575b819350505050919050565b600073ffffffffffffffffffffffffffffffffffffffff168273ffffffffffffffffffffffffffffffffffffffff16036121f8576040517f08c379a00000000000000000000000000000000000000000000000000000000081526004016121ef90613f77565b60405180910390fd5b61220181611a40565b15612241576040517f08c379a000000000000000000000000000000000000000000000000000000000815260040161223890613fe3565b60405180910390fd5b61224f600083836001611a81565b61225881611a40565b15612298576040517f08c379a000000000000000000000000000000000000000000000000000000000815260040161228f90613fe3565b60405180910390fd5b6001600360008473ffffffffffffffffffffffffffffffffffffffff1673ffffffffffffffffffffffffffffffffffffffff16815260200190815260200160002060008282540192505081905550816002600083815260200190815260200160002060006101000a81548173ffffffffffffffffffffffffffffffffffffffff021916908373ffffffffffffffffffffffffffffffffffffffff160217905550808273ffffffffffffffffffffffffffffffffffffffff16600073ffffffffffffffffffffffffffffffffffffffff167fddf252ad1be2c89b69c2b068fc378daa952ba7f163c4a11628f55a4df523b3ef60405160405180910390a46123a2600083836001611b2d565b5050565b600080600090507a184f03e93ff9f4daa797ed6e38ed64bf6a1f0100000000000000008310612404577a184f03e93ff9f4daa797ed6e38ed64bf6a1f01000000000000000083816123fa576123f9613e89565b5b0492506040810190505b6d04ee2d6d415b85acef81000000008310612441576d04ee2d6d415b85acef8100000000838161243757612436613e89565b5b0492506020810190505b662386f26fc10000831061247057662386f26fc10000838161246657612465613e89565b5b0492506010810190505b6305f5e1008310612499576305f5e100838161248f5761248e613e89565b5b0492506008810190505b61271083106124be5761271083816124b4576124b3613e89565b5b0492506004810190505b606483106124e157606483816124d7576124d6613e89565b5b0492506002810190505b600a83106124f0576001810190505b80915050919050565b6040518060800160405280606081526020016060815260200160608152602001606081525090565b50805461252d90612e85565b6000825580601f1061253f575061255e565b601f01602090049060005260206000209081019061255d9190612561565b5b50565b5b8082111561257a576000816000905550600101612562565b5090565b6000604051905090565b600080fd5b600080fd5b60007fffffffff0000000000000000000000000000000000000000000000000000000082169050919050565b6125c781612592565b81146125d257600080fd5b50565b6000813590506125e4816125be565b92915050565b600060208284031215612600576125ff612588565b5b600061260e848285016125d5565b91505092915050565b60008115159050919050565b61262c81612617565b82525050565b60006020820190506126476000830184612623565b92915050565b600081519050919050565b600082825260208201905092915050565b60005b8381101561268757808201518184015260208101905061266c565b60008484015250505050565b6000601f19601f8301169050919050565b60006126af8261264d565b6126b98185612658565b93506126c9818560208601612669565b6126d281612693565b840191505092915050565b600060208201905081810360008301526126f781846126a4565b905092915050565b6000819050919050565b612712816126ff565b811461271d57600080fd5b50565b60008135905061272f81612709565b92915050565b60006020828403121561274b5761274a612588565b5b600061275984828501612720565b91505092915050565b600073ffffffffffffffffffffffffffffffffffffffff82169050919050565b600061278d82612762565b9050919050565b61279d81612782565b82525050565b60006020820190506127b86000830184612794565b92915050565b6127c781612782565b81146127d257600080fd5b50565b6000813590506127e4816127be565b92915050565b6000806040838503121561280157612800612588565b5b600061280f858286016127d5565b925050602061282085828601612720565b9150509250929050565b600081519050919050565b600082825260208201905092915050565b6000819050602082019050919050565b600082825260208201905092915050565b60006128728261264d565b61287c8185612856565b935061288c818560208601612669565b61289581612693565b840191505092915050565b600060808301600083015184820360008601526128bd8282612867565b915050602083015184820360208601526128d78282612867565b915050604083015184820360408601526128f18282612867565b9150506060830151848203606086015261290b8282612867565b9150508091505092915050565b600061292483836128a0565b905092915050565b6000602082019050919050565b60006129448261282a565b61294e8185612835565b93508360208202850161296085612846565b8060005b8581101561299c578484038952815161297d8582612918565b94506129888361292c565b925060208a01995050600181019050612964565b50829750879550505050505092915050565b600060208201905081810360008301526129c88184612939565b905092915050565b6000806000606084860312156129e9576129e8612588565b5b60006129f7868287016127d5565b9350506020612a08868287016127d5565b9250506040612a1986828701612720565b9150509250925092565b600060208284031215612a3957612a38612588565b5b6000612a47848285016127d5565b91505092915050565b612a59816126ff565b82525050565b6000602082019050612a746000830184612a50565b92915050565b612a8381612617565b8114612a8e57600080fd5b50565b600081359050612aa081612a7a565b92915050565b60008060408385031215612abd57612abc612588565b5b6000612acb858286016127d5565b9250506020612adc85828601612a91565b9150509250929050565b600080fd5b600080fd5b7f4e487b7100000000000000000000000000000000000000000000000000000000600052604160045260246000fd5b612b2882612693565b810181811067ffffffffffffffff82111715612b4757612b46612af0565b5b80604052505050565b6000612b5a61257e565b9050612b668282612b1f565b919050565b600067ffffffffffffffff821115612b8657612b85612af0565b5b612b8f82612693565b9050602081019050919050565b82818337600083830152505050565b6000612bbe612bb984612b6b565b612b50565b905082815260208101848484011115612bda57612bd9612aeb565b5b612be5848285612b9c565b509392505050565b600082601f830112612c0257612c01612ae6565b5b8135612c12848260208601612bab565b91505092915050565b60008060008060808587031215612c3557612c34612588565b5b6000612c43878288016127d5565b9450506020612c54878288016127d5565b9350506040612c6587828801612720565b925050606085013567ffffffffffffffff811115612c8657612c8561258d565b5b612c9287828801612bed565b91505092959194509250565b600067ffffffffffffffff821115612cb957612cb8612af0565b5b612cc282612693565b9050602081019050919050565b6000612ce2612cdd84612c9e565b612b50565b905082815260208101848484011115612cfe57612cfd612aeb565b5b612d09848285612b9c565b509392505050565b600082601f830112612d2657612d25612ae6565b5b8135612d36848260208601612ccf565b91505092915050565b60008060008060808587031215612d5957612d58612588565b5b600085013567ffffffffffffffff811115612d7757612d7661258d565b5b612d8387828801612d11565b945050602085013567ffffffffffffffff811115612da457612da361258d565b5b612db087828801612d11565b935050604085013567ffffffffffffffff811115612dd157612dd061258d565b5b612ddd87828801612d11565b925050606085013567ffffffffffffffff811115612dfe57612dfd61258d565b5b612e0a87828801612d11565b91505092959194509250565b60008060408385031215612e2d57612e2c612588565b5b6000612e3b858286016127d5565b9250506020612e4c858286016127d5565b9150509250929050565b7f4e487b7100000000000000000000000000000000000000000000000000000000600052602260045260246000fd5b60006002820490506001821680612e9d57607f821691505b602082108103612eb057612eaf612e56565b5b50919050565b7f4552433732313a20617070726f76616c20746f2063757272656e74206f776e6560008201527f7200000000000000000000000000000000000000000000000000000000000000602082015250565b6000612f12602183612658565b9150612f1d82612eb6565b604082019050919050565b60006020820190508181036000830152612f4181612f05565b9050919050565b7f4552433732313a20617070726f76652063616c6c6572206973206e6f7420746f60008201527f6b656e206f776e6572206f7220617070726f76656420666f7220616c6c000000602082015250565b6000612fa4603d83612658565b9150612faf82612f48565b604082019050919050565b60006020820190508181036000830152612fd381612f97565b9050919050565b7f4e487b7100000000000000000000000000000000000000000000000000000000600052601160045260246000fd5b6000613014826126ff565b915061301f836126ff565b925082820190508082111561303757613036612fda565b5b92915050565b6000613048826126ff565b9150613053836126ff565b925082820390508181111561306b5761306a612fda565b5b92915050565b7f4e487b7100000000000000000000000000000000000000000000000000000000600052603260045260246000fd5b60006130ab826126ff565b91507fffffffffffffffffffffffffffffffffffffffffffffffffffffffffffffffff82036130dd576130dc612fda565b5b600182019050919050565b7f4552433732313a2063616c6c6572206973206e6f7420746f6b656e206f776e6560008201527f72206f7220617070726f76656400000000000000000000000000000000000000602082015250565b6000613144602d83612658565b915061314f826130e8565b604082019050919050565b6000602082019050818103600083015261317381613137565b9050919050565b7f4552433732313a20696e76616c696420746f6b656e2049440000000000000000600082015250565b60006131b0601883612658565b91506131bb8261317a565b602082019050919050565b600060208201905081810360008301526131df816131a3565b9050919050565b7f4552433732313a2061646472657373207a65726f206973206e6f74206120766160008201527f6c6964206f776e65720000000000000000000000000000000000000000000000602082015250565b6000613242602983612658565b915061324d826131e6565b604082019050919050565b6000602082019050818103600083015261327181613235565b9050919050565b60008190508160005260206000209050919050565b60006020601f8301049050919050565b600082821b905092915050565b6000600883026132da7fffffffffffffffffffffffffffffffffffffffffffffffffffffffffffffffff8261329d565b6132e4868361329d565b95508019841693508086168417925050509392505050565b6000819050919050565b600061332161331c613317846126ff565b6132fc565b6126ff565b9050919050565b6000819050919050565b61333b83613306565b61334f61334782613328565b8484546132aa565b825550505050565b600090565b613364613357565b61336f818484613332565b505050565b5b818110156133935761338860008261335c565b600181019050613375565b5050565b601f8211156133d8576133a981613278565b6133b28461328d565b810160208510156133c1578190505b6133d56133cd8561328d565b830182613374565b50505b505050565b600082821c905092915050565b60006133fb600019846008026133dd565b1980831691505092915050565b600061341483836133ea565b9150826002028217905092915050565b61342d8261264d565b67ffffffffffffffff81111561344657613445612af0565b5b6134508254612e85565b61345b828285613397565b600060209050601f83116001811461348e576000841561347c578287015190505b6134868582613408565b8655506134ee565b601f19841661349c86613278565b60005b828110156134c45784890151825560018201915060208501945060208101905061349f565b868310156134e157848901516134dd601f8916826133ea565b8355505b6001600288020188555050505b505050505050565b7f4f776e61626c653a206e6577206f776e657220697320746865207a65726f206160008201527f6464726573730000000000000000000000000000000000000000000000000000602082015250565b6000613552602683612658565b915061355d826134f6565b604082019050919050565b6000602082019050818103600083015261358181613545565b9050919050565b7f4552433732313a207472616e736665722066726f6d20696e636f72726563742060008201527f6f776e6572000000000000000000000000000000000000000000000000000000602082015250565b60006135e4602583612658565b91506135ef82613588565b604082019050919050565b60006020820190508181036000830152613613816135d7565b9050919050565b7f4552433732313a207472616e7366657220746f20746865207a65726f2061646460008201527f7265737300000000000000000000000000000000000000000000000000000000602082015250565b6000613676602483612658565b91506136818261361a565b604082019050919050565b600060208201905081810360008301526136a581613669565b9050919050565b7f4f776e61626c653a2063616c6c6572206973206e6f7420746865206f776e6572600082015250565b60006136e2602083612658565b91506136ed826136ac565b602082019050919050565b60006020820190508181036000830152613711816136d5565b9050919050565b7f4552433732313a20617070726f766520746f2063616c6c657200000000000000600082015250565b600061374e601983612658565b915061375982613718565b602082019050919050565b6000602082019050818103600083015261377d81613741565b9050919050565b7f4552433732313a207472616e7366657220746f206e6f6e20455243373231526560008201527f63656976657220696d706c656d656e7465720000000000000000000000000000602082015250565b60006137e0603283612658565b91506137eb82613784565b604082019050919050565b6000602082019050818103600083015261380f816137d3565b9050919050565b600081905092915050565b600061382c8261264d565b6138368185613816565b9350613846818560208601612669565b80840191505092915050565b600061385e8285613821565b915061386a8284613821565b91508190509392505050565b7f5265656e7472616e637947756172643a207265656e7472616e742063616c6c00600082015250565b60006138ac601f83612658565b91506138b782613876565b602082019050919050565b600060208201905081810360008301526138db8161389f565b9050919050565b7f7b00000000000000000000000000000000000000000000000000000000000000600082015250565b6000613918600183613816565b9150613923826138e2565b600182019050919050565b7f226e616d65223a20220000000000000000000000000000000000000000000000600082015250565b6000613964600983613816565b915061396f8261392e565b600982019050919050565b7f222c000000000000000000000000000000000000000000000000000000000000600082015250565b60006139b0600283613816565b91506139bb8261397a565b600282019050919050565b7f22696d616765223a202200000000000000000000000000000000000000000000600082015250565b60006139fc600a83613816565b9150613a07826139c6565b600a82019050919050565b7f226465736372697074696f6e223a202200000000000000000000000000000000600082015250565b6000613a48601083613816565b9150613a5382613a12565b601082019050919050565b7f2273796d6d65747269634b6579223a2022000000000000000000000000000000600082015250565b6000613a94601183613816565b9150613a9f82613a5e565b601182019050919050565b7f2200000000000000000000000000000000000000000000000000000000000000600082015250565b6000613ae0600183613816565b9150613aeb82613aaa565b600182019050919050565b7f7d00000000000000000000000000000000000000000000000000000000000000600082015250565b6000613b2c600183613816565b9150613b3782613af6565b600182019050919050565b6000613b4d8261390b565b9150613b5882613957565b9150613b648287613821565b9150613b6f826139a3565b9150613b7a826139ef565b9150613b868286613821565b9150613b91826139a3565b9150613b9c82613a3b565b9150613ba88285613821565b9150613bb3826139a3565b9150613bbe82613a87565b9150613bca8284613821565b9150613bd582613ad3565b9150613be082613b1f565b915081905095945050505050565b7f646174613a6170706c69636174696f6e2f6a736f6e3b6261736536342c000000600082015250565b6000613c24601d83613816565b9150613c2f82613bee565b601d82019050919050565b6000613c4582613c17565b9150613c518284613821565b915081905092915050565b7f45524337323155524953746f726167653a2055524920736574206f66206e6f6e60008201527f6578697374656e7420746f6b656e000000000000000000000000000000000000602082015250565b6000613cb8602e83612658565b9150613cc382613c5c565b604082019050919050565b60006020820190508181036000830152613ce781613cab565b9050919050565b7f54686973206120536f756c626f756e6420746f6b656e2e2049742063616e6e6f60008201527f74206265207472616e736665727265642e2049742063616e206f6e6c7920626560208201527f206275726e65642062792074686520746f6b656e206f776e65722e0000000000604082015250565b6000613d70605b83612658565b9150613d7b82613cee565b606082019050919050565b60006020820190508181036000830152613d9f81613d63565b9050919050565b600081519050919050565b600082825260208201905092915050565b6000613dcd82613da6565b613dd78185613db1565b9350613de7818560208601612669565b613df081612693565b840191505092915050565b6000608082019050613e106000830187612794565b613e1d6020830186612794565b613e2a6040830185612a50565b8181036060830152613e3c8184613dc2565b905095945050505050565b600081519050613e56816125be565b92915050565b600060208284031215613e7257613e71612588565b5b6000613e8084828501613e47565b91505092915050565b7f4e487b7100000000000000000000000000000000000000000000000000000000600052601260045260246000fd5b6000613ec3826126ff565b9150613ece836126ff565b925082613ede57613edd613e89565b5b828204905092915050565b6000613ef4826126ff565b9150613eff836126ff565b9250828202613f0d816126ff565b91508282048414831517613f2457613f23612fda565b5b5092915050565b7f4552433732313a206d696e7420746f20746865207a65726f2061646472657373600082015250565b6000613f61602083612658565b9150613f6c82613f2b565b602082019050919050565b60006020820190508181036000830152613f9081613f54565b9050919050565b7f4552433732313a20746f6b656e20616c7265616479206d696e74656400000000600082015250565b6000613fcd601c83612658565b9150613fd882613f97565b602082019050919050565b60006020820190508181036000830152613ffc81613fc0565b905091905056fe4142434445464748494a4b4c4d4e4f505152535455565758595a6162636465666768696a6b6c6d6e6f707172737475767778797a303132333435363738392b2fa264697066735822122070ec36895917ce16724b735c2d3dc48c7c17bfbe2a821e9493e5c9b36b11945364736f6c63430008110033",
  "linkReferences": {},
  "deployedLinkReferences": {}
}