{
  "_format": "hh-sol-artifact-1",
  "contractName": "SpendSBT",
  "sourceName": "contracts/SpendSBT.sol",
  "abi": [
    {
      "inputs": [],
      "stateMutability": "nonpayable",
      "type": "constructor"
    },
    {
      "anonymous": false,
      "inputs": [
        {
          "indexed": true,
          "internalType": "address",
          "name": "owner",
          "type": "address"
        },
        {
          "indexed": true,
          "internalType": "address",
          "name": "approved",
          "type": "address"
        },
        {
          "indexed": true,
          "internalType": "uint256",
          "name": "tokenId",
          "type": "uint256"
        }
      ],
      "name": "Approval",
      "type": "event"
    },
    {
      "anonymous": false,
      "inputs": [
        {
          "indexed": true,
          "internalType": "address",
          "name": "owner",
          "type": "address"
        },
        {
          "indexed": true,
          "internalType": "address",
          "name": "operator",
          "type": "address"
        },
        {
          "indexed": false,
          "internalType": "bool",
          "name": "approved",
          "type": "bool"
        }
      ],
      "name": "ApprovalForAll",
      "type": "event"
    },
    {
      "anonymous": false,
      "inputs": [
        {
          "indexed": true,
          "internalType": "address",
          "name": "previousOwner",
          "type": "address"
        },
        {
          "indexed": true,
          "internalType": "address",
          "name": "newOwner",
          "type": "address"
        }
      ],
      "name": "OwnershipTransferred",
      "type": "event"
    },
    {
      "anonymous": false,
      "inputs": [
        {
          "indexed": true,
          "internalType": "address",
          "name": "from",
          "type": "address"
        },
        {
          "indexed": true,
          "internalType": "address",
          "name": "to",
          "type": "address"
        },
        {
          "indexed": true,
          "internalType": "uint256",
          "name": "tokenId",
          "type": "uint256"
        }
      ],
      "name": "Transfer",
      "type": "event"
    },
    {
      "inputs": [
        {
          "internalType": "address",
          "name": "to",
          "type": "address"
        },
        {
          "internalType": "uint256",
          "name": "tokenId",
          "type": "uint256"
        }
      ],
      "name": "approve",
      "outputs": [],
      "stateMutability": "nonpayable",
      "type": "function"
    },
    {
      "inputs": [
        {
          "internalType": "address",
          "name": "owner",
          "type": "address"
        }
      ],
      "name": "balanceOf",
      "outputs": [
        {
          "internalType": "uint256",
          "name": "",
          "type": "uint256"
        }
      ],
      "stateMutability": "view",
      "type": "function"
    },
    {
      "inputs": [
        {
          "internalType": "uint256",
          "name": "tokenId",
          "type": "uint256"
        }
      ],
      "name": "burn",
      "outputs": [],
      "stateMutability": "nonpayable",
      "type": "function"
    },
    {
      "inputs": [
        {
          "internalType": "uint256",
          "name": "",
          "type": "uint256"
        }
      ],
      "name": "cidList",
      "outputs": [
        {
          "internalType": "string",
          "name": "",
          "type": "string"
        }
      ],
      "stateMutability": "view",
      "type": "function"
    },
    {
      "inputs": [
        {
          "internalType": "uint256",
          "name": "tokenId",
          "type": "uint256"
        }
      ],
      "name": "getApproved",
      "outputs": [
        {
          "internalType": "address",
          "name": "",
          "type": "address"
        }
      ],
      "stateMutability": "view",
      "type": "function"
    },
    {
      "inputs": [
        {
          "internalType": "address",
          "name": "owner",
          "type": "address"
        },
        {
          "internalType": "address",
          "name": "operator",
          "type": "address"
        }
      ],
      "name": "isApprovedForAll",
      "outputs": [
        {
          "internalType": "bool",
          "name": "",
          "type": "bool"
        }
      ],
      "stateMutability": "view",
      "type": "function"
    },
    {
      "inputs": [],
      "name": "name",
      "outputs": [
        {
          "internalType": "string",
          "name": "",
          "type": "string"
        }
      ],
      "stateMutability": "view",
      "type": "function"
    },
    {
      "inputs": [],
      "name": "owner",
      "outputs": [
        {
          "internalType": "address",
          "name": "",
          "type": "address"
        }
      ],
      "stateMutability": "view",
      "type": "function"
    },
    {
      "inputs": [
        {
          "internalType": "uint256",
          "name": "tokenId",
          "type": "uint256"
        }
      ],
      "name": "ownerOf",
      "outputs": [
        {
          "internalType": "address",
          "name": "",
          "type": "address"
        }
      ],
      "stateMutability": "view",
      "type": "function"
    },
    {
      "inputs": [
        {
          "internalType": "address",
          "name": "",
          "type": "address"
        },
        {
          "internalType": "uint256",
          "name": "",
          "type": "uint256"
        }
      ],
      "name": "ownerToTokenIds",
      "outputs": [
        {
          "internalType": "uint256",
          "name": "",
          "type": "uint256"
        }
      ],
      "stateMutability": "view",
      "type": "function"
    },
    {
      "inputs": [],
      "name": "renounceOwnership",
      "outputs": [],
      "stateMutability": "nonpayable",
      "type": "function"
    },
    {
      "inputs": [
        {
          "internalType": "address",
          "name": "to",
          "type": "address"
        },
        {
          "internalType": "string",
          "name": "uri",
          "type": "string"
        }
      ],
      "name": "safeMint",
      "outputs": [],
      "stateMutability": "nonpayable",
      "type": "function"
    },
    {
      "inputs": [
        {
          "internalType": "address",
          "name": "from",
          "type": "address"
        },
        {
          "internalType": "address",
          "name": "to",
          "type": "address"
        },
        {
          "internalType": "uint256",
          "name": "tokenId",
          "type": "uint256"
        }
      ],
      "name": "safeTransferFrom",
      "outputs": [],
      "stateMutability": "nonpayable",
      "type": "function"
    },
    {
      "inputs": [
        {
          "internalType": "address",
          "name": "from",
          "type": "address"
        },
        {
          "internalType": "address",
          "name": "to",
          "type": "address"
        },
        {
          "internalType": "uint256",
          "name": "tokenId",
          "type": "uint256"
        },
        {
          "internalType": "bytes",
          "name": "data",
          "type": "bytes"
        }
      ],
      "name": "safeTransferFrom",
      "outputs": [],
      "stateMutability": "nonpayable",
      "type": "function"
    },
    {
      "inputs": [
        {
          "internalType": "address",
          "name": "operator",
          "type": "address"
        },
        {
          "internalType": "bool",
          "name": "approved",
          "type": "bool"
        }
      ],
      "name": "setApprovalForAll",
      "outputs": [],
      "stateMutability": "nonpayable",
      "type": "function"
    },
    {
      "inputs": [
        {
          "internalType": "bytes4",
          "name": "interfaceId",
          "type": "bytes4"
        }
      ],
      "name": "supportsInterface",
      "outputs": [
        {
          "internalType": "bool",
          "name": "",
          "type": "bool"
        }
      ],
      "stateMutability": "view",
      "type": "function"
    },
    {
      "inputs": [],
      "name": "symbol",
      "outputs": [
        {
          "internalType": "string",
          "name": "",
          "type": "string"
        }
      ],
      "stateMutability": "view",
      "type": "function"
    },
    {
      "inputs": [
        {
          "internalType": "uint256",
          "name": "index",
          "type": "uint256"
        }
      ],
      "name": "tokenByIndex",
      "outputs": [
        {
          "internalType": "uint256",
          "name": "",
          "type": "uint256"
        }
      ],
      "stateMutability": "view",
      "type": "function"
    },
    {
      "inputs": [
        {
          "internalType": "address",
          "name": "owner",
          "type": "address"
        },
        {
          "internalType": "uint256",
          "name": "index",
          "type": "uint256"
        }
      ],
      "name": "tokenOfOwnerByIndex",
      "outputs": [
        {
          "internalType": "uint256",
          "name": "",
          "type": "uint256"
        }
      ],
      "stateMutability": "view",
      "type": "function"
    },
    {
      "inputs": [
        {
          "internalType": "uint256",
          "name": "tokenId",
          "type": "uint256"
        }
      ],
      "name": "tokenURI",
      "outputs": [
        {
          "internalType": "string",
          "name": "",
          "type": "string"
        }
      ],
      "stateMutability": "view",
      "type": "function"
    },
    {
      "inputs": [],
      "name": "totalSupply",
      "outputs": [
        {
          "internalType": "uint256",
          "name": "",
          "type": "uint256"
        }
      ],
      "stateMutability": "view",
      "type": "function"
    },
    {
      "inputs": [
        {
          "internalType": "address",
          "name": "from",
          "type": "address"
        },
        {
          "internalType": "address",
          "name": "to",
          "type": "address"
        },
        {
          "internalType": "uint256",
          "name": "tokenId",
          "type": "uint256"
        }
      ],
      "name": "transferFrom",
      "outputs": [],
      "stateMutability": "nonpayable",
      "type": "function"
    },
    {
      "inputs": [
        {
          "internalType": "address",
          "name": "newOwner",
          "type": "address"
        }
      ],
      "name": "transferOwnership",
      "outputs": [],
      "stateMutability": "nonpayable",
      "type": "function"
    },
    {
      "inputs": [
        {
          "internalType": "address",
          "name": "ownerAddress",
          "type": "address"
        },
        {
          "internalType": "uint256",
          "name": "id",
          "type": "uint256"
        }
      ],
      "name": "userBurn",
      "outputs": [],
      "stateMutability": "nonpayable",
      "type": "function"
    }
  ],
  "bytecode": "0x60806040523480156200001157600080fd5b506040518060400160405280600981526020017f5370656e642044414f00000000000000000000000000000000000000000000008152506040518060400160405280600381526020017f53504e000000000000000000000000000000000000000000000000000000000081525081600090816200008f91906200094b565b508060019081620000a191906200094b565b505050620000c4620000b8620000eb60201b60201c565b620000f360201b60201c565b620000e53360405180602001604052806000815250620001b960201b60201c565b62000c7d565b600033905090565b6000600b60009054906101000a900473ffffffffffffffffffffffffffffffffffffffff16905081600b60006101000a81548173ffffffffffffffffffffffffffffffffffffffff021916908373ffffffffffffffffffffffffffffffffffffffff1602179055508173ffffffffffffffffffffffffffffffffffffffff168173ffffffffffffffffffffffffffffffffffffffff167f8be0079c531659141344cd1fd0a4f28419497f9722a3daafe3b4186f6b6457e060405160405180910390a35050565b6000620001d2600c620002b160201b62000e991760201c565b9050620001eb600c620002bf60201b62000ea71760201c565b620001fd8382620002d560201b60201c565b6200020f81836200051b60201b60201c565b600d60008473ffffffffffffffffffffffffffffffffffffffff1673ffffffffffffffffffffffffffffffffffffffff168152602001908152602001600020819080600181540180825580915050600190039060005260206000200160009091909190915055600e82908060018154018082558091505060019003906000526020600020016000909190919091509081620002ab91906200094b565b50505050565b600081600001549050919050565b6001816000016000828254019250508190555050565b600073ffffffffffffffffffffffffffffffffffffffff168273ffffffffffffffffffffffffffffffffffffffff160362000347576040517f08c379a00000000000000000000000000000000000000000000000000000000081526004016200033e9062000a93565b60405180910390fd5b62000358816200059560201b60201c565b156200039b576040517f08c379a0000000000000000000000000000000000000000000000000000000008152600401620003929062000b05565b60405180910390fd5b620003b1600083836001620005de60201b60201c565b620003c2816200059560201b60201c565b1562000405576040517f08c379a0000000000000000000000000000000000000000000000000000000008152600401620003fc9062000b05565b60405180910390fd5b6001600360008473ffffffffffffffffffffffffffffffffffffffff1673ffffffffffffffffffffffffffffffffffffffff16815260200190815260200160002060008282540192505081905550816002600083815260200190815260200160002060006101000a81548173ffffffffffffffffffffffffffffffffffffffff021916908373ffffffffffffffffffffffffffffffffffffffff160217905550808273ffffffffffffffffffffffffffffffffffffffff16600073ffffffffffffffffffffffffffffffffffffffff167fddf252ad1be2c89b69c2b068fc378daa952ba7f163c4a11628f55a4df523b3ef60405160405180910390a4620005176000838360016200068e60201b60201c565b5050565b6200052c826200059560201b60201c565b6200056e576040517f08c379a0000000000000000000000000000000000000000000000000000000008152600401620005659062000b9d565b60405180910390fd5b80600a600084815260200190815260200160002090816200059091906200094b565b505050565b60008073ffffffffffffffffffffffffffffffffffffffff16620005bf836200069460201b60201c565b73ffffffffffffffffffffffffffffffffffffffff1614159050919050565b600073ffffffffffffffffffffffffffffffffffffffff168473ffffffffffffffffffffffffffffffffffffffff161480620006465750600073ffffffffffffffffffffffffffffffffffffffff168373ffffffffffffffffffffffffffffffffffffffff16145b62000688576040517f08c379a00000000000000000000000000000000000000000000000000000000081526004016200067f9062000c5b565b60405180910390fd5b50505050565b50505050565b60006002600083815260200190815260200160002060009054906101000a900473ffffffffffffffffffffffffffffffffffffffff169050919050565b600081519050919050565b7f4e487b7100000000000000000000000000000000000000000000000000000000600052604160045260246000fd5b7f4e487b7100000000000000000000000000000000000000000000000000000000600052602260045260246000fd5b600060028204905060018216806200075357607f821691505b6020821081036200076957620007686200070b565b5b50919050565b60008190508160005260206000209050919050565b60006020601f8301049050919050565b600082821b905092915050565b600060088302620007d37fffffffffffffffffffffffffffffffffffffffffffffffffffffffffffffffff8262000794565b620007df868362000794565b95508019841693508086168417925050509392505050565b6000819050919050565b6000819050919050565b60006200082c620008266200082084620007f7565b62000801565b620007f7565b9050919050565b6000819050919050565b62000848836200080b565b62000860620008578262000833565b848454620007a1565b825550505050565b600090565b6200087762000868565b620008848184846200083d565b505050565b5b81811015620008ac57620008a06000826200086d565b6001810190506200088a565b5050565b601f821115620008fb57620008c5816200076f565b620008d08462000784565b81016020851015620008e0578190505b620008f8620008ef8562000784565b83018262000889565b50505b505050565b600082821c905092915050565b6000620009206000198460080262000900565b1980831691505092915050565b60006200093b83836200090d565b9150826002028217905092915050565b6200095682620006d1565b67ffffffffffffffff811115620009725762000971620006dc565b5b6200097e82546200073a565b6200098b828285620008b0565b600060209050601f831160018114620009c35760008415620009ae578287015190505b620009ba85826200092d565b86555062000a2a565b601f198416620009d3866200076f565b60005b82811015620009fd57848901518255600182019150602085019450602081019050620009d6565b8683101562000a1d578489015162000a19601f8916826200090d565b8355505b6001600288020188555050505b505050505050565b600082825260208201905092915050565b7f4552433732313a206d696e7420746f20746865207a65726f2061646472657373600082015250565b600062000a7b60208362000a32565b915062000a888262000a43565b602082019050919050565b6000602082019050818103600083015262000aae8162000a6c565b9050919050565b7f4552433732313a20746f6b656e20616c7265616479206d696e74656400000000600082015250565b600062000aed601c8362000a32565b915062000afa8262000ab5565b602082019050919050565b6000602082019050818103600083015262000b208162000ade565b9050919050565b7f45524337323155524953746f726167653a2055524920736574206f66206e6f6e60008201527f6578697374656e7420746f6b656e000000000000000000000000000000000000602082015250565b600062000b85602e8362000a32565b915062000b928262000b27565b604082019050919050565b6000602082019050818103600083015262000bb88162000b76565b9050919050565b7f54686973206120536f756c626f756e6420746f6b656e2e2049742063616e6e6f60008201527f74206265207472616e736665727265642e2049742063616e206f6e6c7920626560208201527f206275726e65642062792074686520746f6b656e206f776e65722e0000000000604082015250565b600062000c43605b8362000a32565b915062000c508262000bbf565b606082019050919050565b6000602082019050818103600083015262000c768162000c34565b9050919050565b6138738062000c8d6000396000f3fe608060405234801561001057600080fd5b50600436106101585760003560e01c806370a08231116100c3578063b88d4fde1161007c578063b88d4fde146103eb578063c87b56dd14610407578063d204c45e14610437578063dfcea3b414610453578063e985e9c51461046f578063f2fde38b1461049f57610158565b806370a0823114610329578063715018a6146103595780638da5cb5b1461036357806395d89b4114610381578063a22cb4651461039f578063b21ec0b8146103bb57610158565b80632f745c59116101155780632f745c591461023157806342842e0e1461026157806342966c681461027d5780634f6ccce7146102995780636352211e146102c957806368a596c7146102f957610158565b806301ffc9a71461015d57806306fdde031461018d578063081812fc146101ab578063095ea7b3146101db57806318160ddd146101f757806323b872dd14610215575b600080fd5b610177600480360381019061017291906123cb565b6104bb565b6040516101849190612413565b60405180910390f35b6101956104cd565b6040516101a291906124be565b60405180910390f35b6101c560048036038101906101c09190612516565b61055f565b6040516101d29190612584565b60405180910390f35b6101f560048036038101906101f091906125cb565b6105a5565b005b6101ff6106bc565b60405161020c919061261a565b60405180910390f35b61022f600480360381019061022a9190612635565b6106cd565b005b61024b600480360381019061024691906125cb565b61072d565b604051610258919061261a565b60405180910390f35b61027b60048036038101906102769190612635565b6107d2565b005b61029760048036038101906102929190612516565b6107f2565b005b6102b360048036038101906102ae9190612516565b61084e565b6040516102c0919061261a565b60405180910390f35b6102e360048036038101906102de9190612516565b6108bf565b6040516102f09190612584565b60405180910390f35b610313600480360381019061030e91906125cb565b610945565b604051610320919061261a565b60405180910390f35b610343600480360381019061033e9190612688565b610976565b604051610350919061261a565b60405180910390f35b610361610a2d565b005b61036b610a41565b6040516103789190612584565b60405180910390f35b610389610a6b565b60405161039691906124be565b60405180910390f35b6103b960048036038101906103b491906126e1565b610afd565b005b6103d560048036038101906103d09190612516565b610b13565b6040516103e291906124be565b60405180910390f35b61040560048036038101906104009190612856565b610bbf565b005b610421600480360381019061041c9190612516565b610c21565b60405161042e91906124be565b60405180910390f35b610451600480360381019061044c919061297a565b610c33565b005b61046d600480360381019061046891906125cb565b610cff565b005b610489600480360381019061048491906129d6565b610d82565b6040516104969190612413565b60405180910390f35b6104b960048036038101906104b49190612688565b610e16565b005b60006104c682610ebd565b9050919050565b6060600080546104dc90612a45565b80601f016020809104026020016040519081016040528092919081815260200182805461050890612a45565b80156105555780601f1061052a57610100808354040283529160200191610555565b820191906000526020600020905b81548152906001019060200180831161053857829003601f168201915b5050505050905090565b600061056a82610f37565b6004600083815260200190815260200160002060009054906101000a900473ffffffffffffffffffffffffffffffffffffffff169050919050565b60006105b0826108bf565b90508073ffffffffffffffffffffffffffffffffffffffff168373ffffffffffffffffffffffffffffffffffffffff1603610620576040517f08c379a000000000000000000000000000000000000000000000000000000000815260040161061790612ae8565b60405180910390fd5b8073ffffffffffffffffffffffffffffffffffffffff1661063f610f82565b73ffffffffffffffffffffffffffffffffffffffff16148061066e575061066d81610668610f82565b610d82565b5b6106ad576040517f08c379a00000000000000000000000000000000000000000000000000000000081526004016106a490612b7a565b60405180910390fd5b6106b78383610f8a565b505050565b60006106c8600c610e99565b905090565b6106de6106d8610f82565b82611043565b61071d576040517f08c379a000000000000000000000000000000000000000000000000000000000815260040161071490612c0c565b60405180910390fd5b6107288383836110d8565b505050565b600061073883610976565b8210610779576040517f08c379a000000000000000000000000000000000000000000000000000000000815260040161077090612c9e565b60405180910390fd5b600660008473ffffffffffffffffffffffffffffffffffffffff1673ffffffffffffffffffffffffffffffffffffffff168152602001908152602001600020600083815260200190815260200160002054905092915050565b6107ed83838360405180602001604052806000815250610bbf565b505050565b6108036107fd610f82565b82611043565b610842576040517f08c379a000000000000000000000000000000000000000000000000000000000815260040161083990612c0c565b60405180910390fd5b61084b816113d1565b50565b60006108586113dd565b8210610899576040517f08c379a000000000000000000000000000000000000000000000000000000000815260040161089090612d30565b60405180910390fd5b600882815481106108ad576108ac612d50565b5b90600052602060002001549050919050565b6000806108cb836113ea565b9050600073ffffffffffffffffffffffffffffffffffffffff168173ffffffffffffffffffffffffffffffffffffffff160361093c576040517f08c379a000000000000000000000000000000000000000000000000000000000815260040161093390612dcb565b60405180910390fd5b80915050919050565b600d602052816000526040600020818154811061096157600080fd5b90600052602060002001600091509150505481565b60008073ffffffffffffffffffffffffffffffffffffffff168273ffffffffffffffffffffffffffffffffffffffff16036109e6576040517f08c379a00000000000000000000000000000000000000000000000000000000081526004016109dd90612e5d565b60405180910390fd5b600360008373ffffffffffffffffffffffffffffffffffffffff1673ffffffffffffffffffffffffffffffffffffffff168152602001908152602001600020549050919050565b610a35611427565b610a3f60006114a5565b565b6000600b60009054906101000a900473ffffffffffffffffffffffffffffffffffffffff16905090565b606060018054610a7a90612a45565b80601f0160208091040260200160405190810160405280929190818152602001828054610aa690612a45565b8015610af35780601f10610ac857610100808354040283529160200191610af3565b820191906000526020600020905b815481529060010190602001808311610ad657829003601f168201915b5050505050905090565b610b0f610b08610f82565b838361156b565b5050565b600e8181548110610b2357600080fd5b906000526020600020016000915090508054610b3e90612a45565b80601f0160208091040260200160405190810160405280929190818152602001828054610b6a90612a45565b8015610bb75780601f10610b8c57610100808354040283529160200191610bb7565b820191906000526020600020905b815481529060010190602001808311610b9a57829003601f168201915b505050505081565b610bd0610bca610f82565b83611043565b610c0f576040517f08c379a0000000000000000000000000000000000000000000000000000000008152600401610c0690612c0c565b60405180910390fd5b610c1b848484846116d7565b50505050565b6060610c2c82611733565b9050919050565b6000610c3f600c610e99565b9050610c4b600c610ea7565b610c558382611845565b610c5f8183611a62565b600d60008473ffffffffffffffffffffffffffffffffffffffff1673ffffffffffffffffffffffffffffffffffffffff168152602001908152602001600020819080600181540180825580915050600190039060005260206000200160009091909190915055600e82908060018154018082558091505060019003906000526020600020016000909190919091509081610cf99190613029565b50505050565b8173ffffffffffffffffffffffffffffffffffffffff16610d1f826108bf565b73ffffffffffffffffffffffffffffffffffffffff1614610d75576040517f08c379a0000000000000000000000000000000000000000000000000000000008152600401610d6c90613147565b60405180910390fd5b610d7e816113d1565b5050565b6000600560008473ffffffffffffffffffffffffffffffffffffffff1673ffffffffffffffffffffffffffffffffffffffff16815260200190815260200160002060008373ffffffffffffffffffffffffffffffffffffffff1673ffffffffffffffffffffffffffffffffffffffff16815260200190815260200160002060009054906101000a900460ff16905092915050565b610e1e611427565b600073ffffffffffffffffffffffffffffffffffffffff168173ffffffffffffffffffffffffffffffffffffffff1603610e8d576040517f08c379a0000000000000000000000000000000000000000000000000000000008152600401610e84906131d9565b60405180910390fd5b610e96816114a5565b50565b600081600001549050919050565b6001816000016000828254019250508190555050565b60007f780e9d63000000000000000000000000000000000000000000000000000000007bffffffffffffffffffffffffffffffffffffffffffffffffffffffff1916827bffffffffffffffffffffffffffffffffffffffffffffffffffffffff19161480610f305750610f2f82611acf565b5b9050919050565b610f4081611bb1565b610f7f576040517f08c379a0000000000000000000000000000000000000000000000000000000008152600401610f7690612dcb565b60405180910390fd5b50565b600033905090565b816004600083815260200190815260200160002060006101000a81548173ffffffffffffffffffffffffffffffffffffffff021916908373ffffffffffffffffffffffffffffffffffffffff160217905550808273ffffffffffffffffffffffffffffffffffffffff16610ffd836108bf565b73ffffffffffffffffffffffffffffffffffffffff167f8c5be1e5ebec7d5bd14f71427d1e84f3dd0314c0f7b2291e5b200ac8c7c3b92560405160405180910390a45050565b60008061104f836108bf565b90508073ffffffffffffffffffffffffffffffffffffffff168473ffffffffffffffffffffffffffffffffffffffff16148061109157506110908185610d82565b5b806110cf57508373ffffffffffffffffffffffffffffffffffffffff166110b78461055f565b73ffffffffffffffffffffffffffffffffffffffff16145b91505092915050565b8273ffffffffffffffffffffffffffffffffffffffff166110f8826108bf565b73ffffffffffffffffffffffffffffffffffffffff161461114e576040517f08c379a00000000000000000000000000000000000000000000000000000000081526004016111459061326b565b60405180910390fd5b600073ffffffffffffffffffffffffffffffffffffffff168273ffffffffffffffffffffffffffffffffffffffff16036111bd576040517f08c379a00000000000000000000000000000000000000000000000000000000081526004016111b4906132fd565b60405180910390fd5b6111ca8383836001611bf2565b8273ffffffffffffffffffffffffffffffffffffffff166111ea826108bf565b73ffffffffffffffffffffffffffffffffffffffff1614611240576040517f08c379a00000000000000000000000000000000000000000000000000000000081526004016112379061326b565b60405180910390fd5b6004600082815260200190815260200160002060006101000a81549073ffffffffffffffffffffffffffffffffffffffff02191690556001600360008573ffffffffffffffffffffffffffffffffffffffff1673ffffffffffffffffffffffffffffffffffffffff168152602001908152602001600020600082825403925050819055506001600360008473ffffffffffffffffffffffffffffffffffffffff1673ffffffffffffffffffffffffffffffffffffffff16815260200190815260200160002060008282540192505081905550816002600083815260200190815260200160002060006101000a81548173ffffffffffffffffffffffffffffffffffffffff021916908373ffffffffffffffffffffffffffffffffffffffff160217905550808273ffffffffffffffffffffffffffffffffffffffff168473ffffffffffffffffffffffffffffffffffffffff167fddf252ad1be2c89b69c2b068fc378daa952ba7f163c4a11628f55a4df523b3ef60405160405180910390a46113cc8383836001611c9e565b505050565b6113da81611ca4565b50565b6000600880549050905090565b60006002600083815260200190815260200160002060009054906101000a900473ffffffffffffffffffffffffffffffffffffffff169050919050565b61142f610f82565b73ffffffffffffffffffffffffffffffffffffffff1661144d610a41565b73ffffffffffffffffffffffffffffffffffffffff16146114a3576040517f08c379a000000000000000000000000000000000000000000000000000000000815260040161149a90613369565b60405180910390fd5b565b6000600b60009054906101000a900473ffffffffffffffffffffffffffffffffffffffff16905081600b60006101000a81548173ffffffffffffffffffffffffffffffffffffffff021916908373ffffffffffffffffffffffffffffffffffffffff1602179055508173ffffffffffffffffffffffffffffffffffffffff168173ffffffffffffffffffffffffffffffffffffffff167f8be0079c531659141344cd1fd0a4f28419497f9722a3daafe3b4186f6b6457e060405160405180910390a35050565b8173ffffffffffffffffffffffffffffffffffffffff168373ffffffffffffffffffffffffffffffffffffffff16036115d9576040517f08c379a00000000000000000000000000000000000000000000000000000000081526004016115d0906133d5565b60405180910390fd5b80600560008573ffffffffffffffffffffffffffffffffffffffff1673ffffffffffffffffffffffffffffffffffffffff16815260200190815260200160002060008473ffffffffffffffffffffffffffffffffffffffff1673ffffffffffffffffffffffffffffffffffffffff16815260200190815260200160002060006101000a81548160ff0219169083151502179055508173ffffffffffffffffffffffffffffffffffffffff168373ffffffffffffffffffffffffffffffffffffffff167f17307eab39ab6107e8899845ad3d59bd9653f200f220920489ca2b5937696c31836040516116ca9190612413565b60405180910390a3505050565b6116e28484846110d8565b6116ee84848484611cf7565b61172d576040517f08c379a000000000000000000000000000000000000000000000000000000000815260040161172490613467565b60405180910390fd5b50505050565b606061173e82610f37565b6000600a6000848152602001908152602001600020805461175e90612a45565b80601f016020809104026020016040519081016040528092919081815260200182805461178a90612a45565b80156117d75780601f106117ac576101008083540402835291602001916117d7565b820191906000526020600020905b8154815290600101906020018083116117ba57829003601f168201915b5050505050905060006117e8611e7e565b905060008151036117fd578192505050611840565b60008251111561183257808260405160200161181a9291906134c3565b60405160208183030381529060405292505050611840565b61183b84611e9e565b925050505b919050565b600073ffffffffffffffffffffffffffffffffffffffff168273ffffffffffffffffffffffffffffffffffffffff16036118b4576040517f08c379a00000000000000000000000000000000000000000000000000000000081526004016118ab90613533565b60405180910390fd5b6118bd81611bb1565b156118fd576040517f08c379a00000000000000000000000000000000000000000000000000000000081526004016118f49061359f565b60405180910390fd5b61190b600083836001611bf2565b61191481611bb1565b15611954576040517f08c379a000000000000000000000000000000000000000000000000000000000815260040161194b9061359f565b60405180910390fd5b6001600360008473ffffffffffffffffffffffffffffffffffffffff1673ffffffffffffffffffffffffffffffffffffffff16815260200190815260200160002060008282540192505081905550816002600083815260200190815260200160002060006101000a81548173ffffffffffffffffffffffffffffffffffffffff021916908373ffffffffffffffffffffffffffffffffffffffff160217905550808273ffffffffffffffffffffffffffffffffffffffff16600073ffffffffffffffffffffffffffffffffffffffff167fddf252ad1be2c89b69c2b068fc378daa952ba7f163c4a11628f55a4df523b3ef60405160405180910390a4611a5e600083836001611c9e565b5050565b611a6b82611bb1565b611aaa576040517f08c379a0000000000000000000000000000000000000000000000000000000008152600401611aa190613631565b60405180910390fd5b80600a60008481526020019081526020016000209081611aca9190613029565b505050565b60007f80ac58cd000000000000000000000000000000000000000000000000000000007bffffffffffffffffffffffffffffffffffffffffffffffffffffffff1916827bffffffffffffffffffffffffffffffffffffffffffffffffffffffff19161480611b9a57507f5b5e139f000000000000000000000000000000000000000000000000000000007bffffffffffffffffffffffffffffffffffffffffffffffffffffffff1916827bffffffffffffffffffffffffffffffffffffffffffffffffffffffff1916145b80611baa5750611ba982611f06565b5b9050919050565b60008073ffffffffffffffffffffffffffffffffffffffff16611bd3836113ea565b73ffffffffffffffffffffffffffffffffffffffff1614159050919050565b600073ffffffffffffffffffffffffffffffffffffffff168473ffffffffffffffffffffffffffffffffffffffff161480611c595750600073ffffffffffffffffffffffffffffffffffffffff168373ffffffffffffffffffffffffffffffffffffffff16145b611c98576040517f08c379a0000000000000000000000000000000000000000000000000000000008152600401611c8f906136e9565b60405180910390fd5b50505050565b50505050565b611cad81611f70565b6000600a60008381526020019081526020016000208054611ccd90612a45565b905014611cf457600a60008281526020019081526020016000206000611cf39190612302565b5b50565b6000611d188473ffffffffffffffffffffffffffffffffffffffff166120be565b15611e71578373ffffffffffffffffffffffffffffffffffffffff1663150b7a02611d41610f82565b8786866040518563ffffffff1660e01b8152600401611d63949392919061375e565b6020604051808303816000875af1925050508015611d9f57506040513d601f19601f82011682018060405250810190611d9c91906137bf565b60015b611e21573d8060008114611dcf576040519150601f19603f3d011682016040523d82523d6000602084013e611dd4565b606091505b506000815103611e19576040517f08c379a0000000000000000000000000000000000000000000000000000000008152600401611e1090613467565b60405180910390fd5b805181602001fd5b63150b7a0260e01b7bffffffffffffffffffffffffffffffffffffffffffffffffffffffff1916817bffffffffffffffffffffffffffffffffffffffffffffffffffffffff191614915050611e76565b600190505b949350505050565b606060405180606001604052806022815260200161381c60229139905090565b6060611ea982610f37565b6000611eb3611e7e565b90506000815111611ed35760405180602001604052806000815250611efe565b80611edd846120e1565b604051602001611eee9291906134c3565b6040516020818303038152906040525b915050919050565b60007f01ffc9a7000000000000000000000000000000000000000000000000000000007bffffffffffffffffffffffffffffffffffffffffffffffffffffffff1916827bffffffffffffffffffffffffffffffffffffffffffffffffffffffff1916149050919050565b6000611f7b826108bf565b9050611f8b816000846001611bf2565b611f94826108bf565b90506004600083815260200190815260200160002060006101000a81549073ffffffffffffffffffffffffffffffffffffffff02191690556001600360008373ffffffffffffffffffffffffffffffffffffffff1673ffffffffffffffffffffffffffffffffffffffff168152602001908152602001600020600082825403925050819055506002600083815260200190815260200160002060006101000a81549073ffffffffffffffffffffffffffffffffffffffff021916905581600073ffffffffffffffffffffffffffffffffffffffff168273ffffffffffffffffffffffffffffffffffffffff167fddf252ad1be2c89b69c2b068fc378daa952ba7f163c4a11628f55a4df523b3ef60405160405180910390a46120ba816000846001611c9e565b5050565b6000808273ffffffffffffffffffffffffffffffffffffffff163b119050919050565b6060600060016120f0846121af565b01905060008167ffffffffffffffff81111561210f5761210e61272b565b5b6040519080825280601f01601f1916602001820160405280156121415781602001600182028036833780820191505090505b509050600082602001820190505b6001156121a4578080600190039150507f3031323334353637383961626364656600000000000000000000000000000000600a86061a8153600a8581612198576121976137ec565b5b0494506000850361214f575b819350505050919050565b600080600090507a184f03e93ff9f4daa797ed6e38ed64bf6a1f010000000000000000831061220d577a184f03e93ff9f4daa797ed6e38ed64bf6a1f0100000000000000008381612203576122026137ec565b5b0492506040810190505b6d04ee2d6d415b85acef8100000000831061224a576d04ee2d6d415b85acef810000000083816122405761223f6137ec565b5b0492506020810190505b662386f26fc10000831061227957662386f26fc10000838161226f5761226e6137ec565b5b0492506010810190505b6305f5e10083106122a2576305f5e1008381612298576122976137ec565b5b0492506008810190505b61271083106122c75761271083816122bd576122bc6137ec565b5b0492506004810190505b606483106122ea57606483816122e0576122df6137ec565b5b0492506002810190505b600a83106122f9576001810190505b80915050919050565b50805461230e90612a45565b6000825580601f10612320575061233f565b601f01602090049060005260206000209081019061233e9190612342565b5b50565b5b8082111561235b576000816000905550600101612343565b5090565b6000604051905090565b600080fd5b600080fd5b60007fffffffff0000000000000000000000000000000000000000000000000000000082169050919050565b6123a881612373565b81146123b357600080fd5b50565b6000813590506123c58161239f565b92915050565b6000602082840312156123e1576123e0612369565b5b60006123ef848285016123b6565b91505092915050565b60008115159050919050565b61240d816123f8565b82525050565b60006020820190506124286000830184612404565b92915050565b600081519050919050565b600082825260208201905092915050565b60005b8381101561246857808201518184015260208101905061244d565b60008484015250505050565b6000601f19601f8301169050919050565b60006124908261242e565b61249a8185612439565b93506124aa81856020860161244a565b6124b381612474565b840191505092915050565b600060208201905081810360008301526124d88184612485565b905092915050565b6000819050919050565b6124f3816124e0565b81146124fe57600080fd5b50565b600081359050612510816124ea565b92915050565b60006020828403121561252c5761252b612369565b5b600061253a84828501612501565b91505092915050565b600073ffffffffffffffffffffffffffffffffffffffff82169050919050565b600061256e82612543565b9050919050565b61257e81612563565b82525050565b60006020820190506125996000830184612575565b92915050565b6125a881612563565b81146125b357600080fd5b50565b6000813590506125c58161259f565b92915050565b600080604083850312156125e2576125e1612369565b5b60006125f0858286016125b6565b925050602061260185828601612501565b9150509250929050565b612614816124e0565b82525050565b600060208201905061262f600083018461260b565b92915050565b60008060006060848603121561264e5761264d612369565b5b600061265c868287016125b6565b935050602061266d868287016125b6565b925050604061267e86828701612501565b9150509250925092565b60006020828403121561269e5761269d612369565b5b60006126ac848285016125b6565b91505092915050565b6126be816123f8565b81146126c957600080fd5b50565b6000813590506126db816126b5565b92915050565b600080604083850312156126f8576126f7612369565b5b6000612706858286016125b6565b9250506020612717858286016126cc565b9150509250929050565b600080fd5b600080fd5b7f4e487b7100000000000000000000000000000000000000000000000000000000600052604160045260246000fd5b61276382612474565b810181811067ffffffffffffffff821117156127825761278161272b565b5b80604052505050565b600061279561235f565b90506127a1828261275a565b919050565b600067ffffffffffffffff8211156127c1576127c061272b565b5b6127ca82612474565b9050602081019050919050565b82818337600083830152505050565b60006127f96127f4846127a6565b61278b565b90508281526020810184848401111561281557612814612726565b5b6128208482856127d7565b509392505050565b600082601f83011261283d5761283c612721565b5b813561284d8482602086016127e6565b91505092915050565b600080600080608085870312156128705761286f612369565b5b600061287e878288016125b6565b945050602061288f878288016125b6565b93505060406128a087828801612501565b925050606085013567ffffffffffffffff8111156128c1576128c061236e565b5b6128cd87828801612828565b91505092959194509250565b600067ffffffffffffffff8211156128f4576128f361272b565b5b6128fd82612474565b9050602081019050919050565b600061291d612918846128d9565b61278b565b90508281526020810184848401111561293957612938612726565b5b6129448482856127d7565b509392505050565b600082601f83011261296157612960612721565b5b813561297184826020860161290a565b91505092915050565b6000806040838503121561299157612990612369565b5b600061299f858286016125b6565b925050602083013567ffffffffffffffff8111156129c0576129bf61236e565b5b6129cc8582860161294c565b9150509250929050565b600080604083850312156129ed576129ec612369565b5b60006129fb858286016125b6565b9250506020612a0c858286016125b6565b9150509250929050565b7f4e487b7100000000000000000000000000000000000000000000000000000000600052602260045260246000fd5b60006002820490506001821680612a5d57607f821691505b602082108103612a7057612a6f612a16565b5b50919050565b7f4552433732313a20617070726f76616c20746f2063757272656e74206f776e6560008201527f7200000000000000000000000000000000000000000000000000000000000000602082015250565b6000612ad2602183612439565b9150612add82612a76565b604082019050919050565b60006020820190508181036000830152612b0181612ac5565b9050919050565b7f4552433732313a20617070726f76652063616c6c6572206973206e6f7420746f60008201527f6b656e206f776e6572206f7220617070726f76656420666f7220616c6c000000602082015250565b6000612b64603d83612439565b9150612b6f82612b08565b604082019050919050565b60006020820190508181036000830152612b9381612b57565b9050919050565b7f4552433732313a2063616c6c6572206973206e6f7420746f6b656e206f776e6560008201527f72206f7220617070726f76656400000000000000000000000000000000000000602082015250565b6000612bf6602d83612439565b9150612c0182612b9a565b604082019050919050565b60006020820190508181036000830152612c2581612be9565b9050919050565b7f455243373231456e756d657261626c653a206f776e657220696e646578206f7560008201527f74206f6620626f756e6473000000000000000000000000000000000000000000602082015250565b6000612c88602b83612439565b9150612c9382612c2c565b604082019050919050565b60006020820190508181036000830152612cb781612c7b565b9050919050565b7f455243373231456e756d657261626c653a20676c6f62616c20696e646578206f60008201527f7574206f6620626f756e64730000000000000000000000000000000000000000602082015250565b6000612d1a602c83612439565b9150612d2582612cbe565b604082019050919050565b60006020820190508181036000830152612d4981612d0d565b9050919050565b7f4e487b7100000000000000000000000000000000000000000000000000000000600052603260045260246000fd5b7f4552433732313a20696e76616c696420746f6b656e2049440000000000000000600082015250565b6000612db5601883612439565b9150612dc082612d7f565b602082019050919050565b60006020820190508181036000830152612de481612da8565b9050919050565b7f4552433732313a2061646472657373207a65726f206973206e6f74206120766160008201527f6c6964206f776e65720000000000000000000000000000000000000000000000602082015250565b6000612e47602983612439565b9150612e5282612deb565b604082019050919050565b60006020820190508181036000830152612e7681612e3a565b9050919050565b60008190508160005260206000209050919050565b60006020601f8301049050919050565b600082821b905092915050565b600060088302612edf7fffffffffffffffffffffffffffffffffffffffffffffffffffffffffffffffff82612ea2565b612ee98683612ea2565b95508019841693508086168417925050509392505050565b6000819050919050565b6000612f26612f21612f1c846124e0565b612f01565b6124e0565b9050919050565b6000819050919050565b612f4083612f0b565b612f54612f4c82612f2d565b848454612eaf565b825550505050565b600090565b612f69612f5c565b612f74818484612f37565b505050565b5b81811015612f9857612f8d600082612f61565b600181019050612f7a565b5050565b601f821115612fdd57612fae81612e7d565b612fb784612e92565b81016020851015612fc6578190505b612fda612fd285612e92565b830182612f79565b50505b505050565b600082821c905092915050565b600061300060001984600802612fe2565b1980831691505092915050565b60006130198383612fef565b9150826002028217905092915050565b6130328261242e565b67ffffffffffffffff81111561304b5761304a61272b565b5b6130558254612a45565b613060828285612f9c565b600060209050601f8311600181146130935760008415613081578287015190505b61308b858261300d565b8655506130f3565b601f1984166130a186612e7d565b60005b828110156130c9578489015182556001820191506020850194506020810190506130a4565b868310156130e657848901516130e2601f891682612fef565b8355505b6001600288020188555050505b505050505050565b7f596f7520646f206e6f74206f776e207468697320746f6b656e00000000000000600082015250565b6000613131601983612439565b915061313c826130fb565b602082019050919050565b6000602082019050818103600083015261316081613124565b9050919050565b7f4f776e61626c653a206e6577206f776e657220697320746865207a65726f206160008201527f6464726573730000000000000000000000000000000000000000000000000000602082015250565b60006131c3602683612439565b91506131ce82613167565b604082019050919050565b600060208201905081810360008301526131f2816131b6565b9050919050565b7f4552433732313a207472616e736665722066726f6d20696e636f72726563742060008201527f6f776e6572000000000000000000000000000000000000000000000000000000602082015250565b6000613255602583612439565b9150613260826131f9565b604082019050919050565b6000602082019050818103600083015261328481613248565b9050919050565b7f4552433732313a207472616e7366657220746f20746865207a65726f2061646460008201527f7265737300000000000000000000000000000000000000000000000000000000602082015250565b60006132e7602483612439565b91506132f28261328b565b604082019050919050565b60006020820190508181036000830152613316816132da565b9050919050565b7f4f776e61626c653a2063616c6c6572206973206e6f7420746865206f776e6572600082015250565b6000613353602083612439565b915061335e8261331d565b602082019050919050565b6000602082019050818103600083015261338281613346565b9050919050565b7f4552433732313a20617070726f766520746f2063616c6c657200000000000000600082015250565b60006133bf601983612439565b91506133ca82613389565b602082019050919050565b600060208201905081810360008301526133ee816133b2565b9050919050565b7f4552433732313a207472616e7366657220746f206e6f6e20455243373231526560008201527f63656976657220696d706c656d656e7465720000000000000000000000000000602082015250565b6000613451603283612439565b915061345c826133f5565b604082019050919050565b6000602082019050818103600083015261348081613444565b9050919050565b600081905092915050565b600061349d8261242e565b6134a78185613487565b93506134b781856020860161244a565b80840191505092915050565b60006134cf8285613492565b91506134db8284613492565b91508190509392505050565b7f4552433732313a206d696e7420746f20746865207a65726f2061646472657373600082015250565b600061351d602083612439565b9150613528826134e7565b602082019050919050565b6000602082019050818103600083015261354c81613510565b9050919050565b7f4552433732313a20746f6b656e20616c7265616479206d696e74656400000000600082015250565b6000613589601c83612439565b915061359482613553565b602082019050919050565b600060208201905081810360008301526135b88161357c565b9050919050565b7f45524337323155524953746f726167653a2055524920736574206f66206e6f6e60008201527f6578697374656e7420746f6b656e000000000000000000000000000000000000602082015250565b600061361b602e83612439565b9150613626826135bf565b604082019050919050565b6000602082019050818103600083015261364a8161360e565b9050919050565b7f54686973206120536f756c626f756e6420746f6b656e2e2049742063616e6e6f60008201527f74206265207472616e736665727265642e2049742063616e206f6e6c7920626560208201527f206275726e65642062792074686520746f6b656e206f776e65722e0000000000604082015250565b60006136d3605b83612439565b91506136de82613651565b606082019050919050565b60006020820190508181036000830152613702816136c6565b9050919050565b600081519050919050565b600082825260208201905092915050565b600061373082613709565b61373a8185613714565b935061374a81856020860161244a565b61375381612474565b840191505092915050565b60006080820190506137736000830187612575565b6137806020830186612575565b61378d604083018561260b565b818103606083015261379f8184613725565b905095945050505050565b6000815190506137b98161239f565b92915050565b6000602082840312156137d5576137d4612369565b5b60006137e3848285016137aa565b91505092915050565b7f4e487b7100000000000000000000000000000000000000000000000000000000600052601260045260246000fdfe68747470733a2f2f636364616f2e6d7970696e6174612e636c6f75642f697066732fa2646970667358221220c5accdc4cfdfd8674549caf23a9a7d9ea90ca3d294a410cad129a8600caf9c4664736f6c63430008110033",
  "linkReferences": {},
  "deployedLinkReferences": {}
}