{
  "_format": "hh-sol-artifact-1",
  "contractName": "SpendSBT",
  "sourceName": "contracts/SpendSBT.sol",
  "abi": [
    {
      "inputs": [],
      "stateMutability": "nonpayable",
      "type": "constructor"
    },
    {
      "anonymous": false,
      "inputs": [
        {
          "indexed": true,
          "internalType": "address",
          "name": "owner",
          "type": "address"
        },
        {
          "indexed": true,
          "internalType": "address",
          "name": "approved",
          "type": "address"
        },
        {
          "indexed": true,
          "internalType": "uint256",
          "name": "tokenId",
          "type": "uint256"
        }
      ],
      "name": "Approval",
      "type": "event"
    },
    {
      "anonymous": false,
      "inputs": [
        {
          "indexed": true,
          "internalType": "address",
          "name": "owner",
          "type": "address"
        },
        {
          "indexed": true,
          "internalType": "address",
          "name": "operator",
          "type": "address"
        },
        {
          "indexed": false,
          "internalType": "bool",
          "name": "approved",
          "type": "bool"
        }
      ],
      "name": "ApprovalForAll",
      "type": "event"
    },
    {
      "anonymous": false,
      "inputs": [
        {
          "indexed": true,
          "internalType": "address",
          "name": "previousOwner",
          "type": "address"
        },
        {
          "indexed": true,
          "internalType": "address",
          "name": "newOwner",
          "type": "address"
        }
      ],
      "name": "OwnershipTransferred",
      "type": "event"
    },
    {
      "anonymous": false,
      "inputs": [
        {
          "indexed": true,
          "internalType": "address",
          "name": "from",
          "type": "address"
        },
        {
          "indexed": true,
          "internalType": "address",
          "name": "to",
          "type": "address"
        },
        {
          "indexed": true,
          "internalType": "uint256",
          "name": "tokenId",
          "type": "uint256"
        }
      ],
      "name": "Transfer",
      "type": "event"
    },
    {
      "inputs": [
        {
          "internalType": "address",
          "name": "to",
          "type": "address"
        },
        {
          "internalType": "uint256",
          "name": "tokenId",
          "type": "uint256"
        }
      ],
      "name": "approve",
      "outputs": [],
      "stateMutability": "nonpayable",
      "type": "function"
    },
    {
      "inputs": [
        {
          "internalType": "address",
          "name": "owner",
          "type": "address"
        }
      ],
      "name": "balanceOf",
      "outputs": [
        {
          "internalType": "uint256",
          "name": "",
          "type": "uint256"
        }
      ],
      "stateMutability": "view",
      "type": "function"
    },
    {
      "inputs": [
        {
          "internalType": "uint256",
          "name": "tokenId",
          "type": "uint256"
        }
      ],
      "name": "burn",
      "outputs": [],
      "stateMutability": "nonpayable",
      "type": "function"
    },
    {
      "inputs": [],
      "name": "fetchHolders",
      "outputs": [
        {
          "internalType": "address[]",
          "name": "",
          "type": "address[]"
        }
      ],
      "stateMutability": "view",
      "type": "function"
    },
    {
      "inputs": [],
      "name": "fetchNfts",
      "outputs": [
        {
          "components": [
            {
              "internalType": "string",
              "name": "imageUrl",
              "type": "string"
            },
            {
              "internalType": "string",
              "name": "encryptedData",
              "type": "string"
            },
            {
              "internalType": "string",
              "name": "encryptedSymmetricKey",
              "type": "string"
            }
          ],
          "internalType": "struct SpendSBT.nft[]",
          "name": "",
          "type": "tuple[]"
        }
      ],
      "stateMutability": "view",
      "type": "function"
    },
    {
      "inputs": [
        {
          "internalType": "uint256",
          "name": "tokenId",
          "type": "uint256"
        }
      ],
      "name": "getApproved",
      "outputs": [
        {
          "internalType": "address",
          "name": "",
          "type": "address"
        }
      ],
      "stateMutability": "view",
      "type": "function"
    },
    {
      "inputs": [
        {
          "internalType": "address",
          "name": "owner",
          "type": "address"
        },
        {
          "internalType": "address",
          "name": "operator",
          "type": "address"
        }
      ],
      "name": "isApprovedForAll",
      "outputs": [
        {
          "internalType": "bool",
          "name": "",
          "type": "bool"
        }
      ],
      "stateMutability": "view",
      "type": "function"
    },
    {
      "inputs": [
        {
          "internalType": "string",
          "name": "imageUrl",
          "type": "string"
        },
        {
          "internalType": "string",
          "name": "encryptedData",
          "type": "string"
        },
        {
          "internalType": "string",
          "name": "encryptedSymmetricKey",
          "type": "string"
        }
      ],
      "name": "mintLitSBT",
      "outputs": [],
      "stateMutability": "nonpayable",
      "type": "function"
    },
    {
      "inputs": [],
      "name": "name",
      "outputs": [
        {
          "internalType": "string",
          "name": "",
          "type": "string"
        }
      ],
      "stateMutability": "view",
      "type": "function"
    },
    {
      "inputs": [],
      "name": "owner",
      "outputs": [
        {
          "internalType": "address",
          "name": "",
          "type": "address"
        }
      ],
      "stateMutability": "view",
      "type": "function"
    },
    {
      "inputs": [
        {
          "internalType": "uint256",
          "name": "tokenId",
          "type": "uint256"
        }
      ],
      "name": "ownerOf",
      "outputs": [
        {
          "internalType": "address",
          "name": "",
          "type": "address"
        }
      ],
      "stateMutability": "view",
      "type": "function"
    },
    {
      "inputs": [
        {
          "internalType": "address",
          "name": "",
          "type": "address"
        }
      ],
      "name": "ownerToTokenId",
      "outputs": [
        {
          "internalType": "uint256",
          "name": "",
          "type": "uint256"
        }
      ],
      "stateMutability": "view",
      "type": "function"
    },
    {
      "inputs": [],
      "name": "renounceOwnership",
      "outputs": [],
      "stateMutability": "nonpayable",
      "type": "function"
    },
    {
      "inputs": [
        {
          "internalType": "address",
          "name": "from",
          "type": "address"
        },
        {
          "internalType": "address",
          "name": "to",
          "type": "address"
        },
        {
          "internalType": "uint256",
          "name": "tokenId",
          "type": "uint256"
        }
      ],
      "name": "safeTransferFrom",
      "outputs": [],
      "stateMutability": "nonpayable",
      "type": "function"
    },
    {
      "inputs": [
        {
          "internalType": "address",
          "name": "from",
          "type": "address"
        },
        {
          "internalType": "address",
          "name": "to",
          "type": "address"
        },
        {
          "internalType": "uint256",
          "name": "tokenId",
          "type": "uint256"
        },
        {
          "internalType": "bytes",
          "name": "data",
          "type": "bytes"
        }
      ],
      "name": "safeTransferFrom",
      "outputs": [],
      "stateMutability": "nonpayable",
      "type": "function"
    },
    {
      "inputs": [
        {
          "internalType": "address",
          "name": "operator",
          "type": "address"
        },
        {
          "internalType": "bool",
          "name": "approved",
          "type": "bool"
        }
      ],
      "name": "setApprovalForAll",
      "outputs": [],
      "stateMutability": "nonpayable",
      "type": "function"
    },
    {
      "inputs": [
        {
          "internalType": "bytes4",
          "name": "interfaceId",
          "type": "bytes4"
        }
      ],
      "name": "supportsInterface",
      "outputs": [
        {
          "internalType": "bool",
          "name": "",
          "type": "bool"
        }
      ],
      "stateMutability": "view",
      "type": "function"
    },
    {
      "inputs": [],
      "name": "symbol",
      "outputs": [
        {
          "internalType": "string",
          "name": "",
          "type": "string"
        }
      ],
      "stateMutability": "view",
      "type": "function"
    },
    {
      "inputs": [
        {
          "internalType": "uint256",
          "name": "tokenId",
          "type": "uint256"
        }
      ],
      "name": "tokenURI",
      "outputs": [
        {
          "internalType": "string",
          "name": "",
          "type": "string"
        }
      ],
      "stateMutability": "view",
      "type": "function"
    },
    {
      "inputs": [
        {
          "internalType": "address",
          "name": "from",
          "type": "address"
        },
        {
          "internalType": "address",
          "name": "to",
          "type": "address"
        },
        {
          "internalType": "uint256",
          "name": "tokenId",
          "type": "uint256"
        }
      ],
      "name": "transferFrom",
      "outputs": [],
      "stateMutability": "nonpayable",
      "type": "function"
    },
    {
      "inputs": [
        {
          "internalType": "address",
          "name": "newOwner",
          "type": "address"
        }
      ],
      "name": "transferOwnership",
      "outputs": [],
      "stateMutability": "nonpayable",
      "type": "function"
    },
    {
      "inputs": [
        {
          "internalType": "uint256",
          "name": "tokenId",
          "type": "uint256"
        }
      ],
      "name": "userBurn",
      "outputs": [],
      "stateMutability": "nonpayable",
      "type": "function"
    }
  ],
  "bytecode": "0x60806040523480156200001157600080fd5b506040518060400160405280600881526020017f5370656e645342540000000000000000000000000000000000000000000000008152506040518060400160405280600481526020017f444154410000000000000000000000000000000000000000000000000000000081525081600090816200008f91906200041a565b508060019081620000a191906200041a565b5050506001600781905550620000cc620000c0620000d260201b60201c565b620000da60201b60201c565b62000501565b600033905090565b6000600860009054906101000a900473ffffffffffffffffffffffffffffffffffffffff16905081600860006101000a81548173ffffffffffffffffffffffffffffffffffffffff021916908373ffffffffffffffffffffffffffffffffffffffff1602179055508173ffffffffffffffffffffffffffffffffffffffff168173ffffffffffffffffffffffffffffffffffffffff167f8be0079c531659141344cd1fd0a4f28419497f9722a3daafe3b4186f6b6457e060405160405180910390a35050565b600081519050919050565b7f4e487b7100000000000000000000000000000000000000000000000000000000600052604160045260246000fd5b7f4e487b7100000000000000000000000000000000000000000000000000000000600052602260045260246000fd5b600060028204905060018216806200022257607f821691505b602082108103620002385762000237620001da565b5b50919050565b60008190508160005260206000209050919050565b60006020601f8301049050919050565b600082821b905092915050565b600060088302620002a27fffffffffffffffffffffffffffffffffffffffffffffffffffffffffffffffff8262000263565b620002ae868362000263565b95508019841693508086168417925050509392505050565b6000819050919050565b6000819050919050565b6000620002fb620002f5620002ef84620002c6565b620002d0565b620002c6565b9050919050565b6000819050919050565b6200031783620002da565b6200032f620003268262000302565b84845462000270565b825550505050565b600090565b6200034662000337565b620003538184846200030c565b505050565b5b818110156200037b576200036f6000826200033c565b60018101905062000359565b5050565b601f821115620003ca5762000394816200023e565b6200039f8462000253565b81016020851015620003af578190505b620003c7620003be8562000253565b83018262000358565b50505b505050565b600082821c905092915050565b6000620003ef60001984600802620003cf565b1980831691505092915050565b60006200040a8383620003dc565b9150826002028217905092915050565b6200042582620001a0565b67ffffffffffffffff811115620004415762000440620001ab565b5b6200044d825462000209565b6200045a8282856200037f565b600060209050601f8311600181146200049257600084156200047d578287015190505b620004898582620003fc565b865550620004f9565b601f198416620004a2866200023e565b60005b82811015620004cc57848901518255600182019150602085019450602081019050620004a5565b86831015620004ec5784890151620004e8601f891682620003dc565b8355505b6001600288020188555050505b505050505050565b61441b80620005116000396000f3fe608060405234801561001057600080fd5b50600436106101425760003560e01c80636352211e116100b8578063a22cb4651161007c578063a22cb46514610361578063b88d4fde1461037d578063c87b56dd14610399578063e985e9c5146103c9578063ec4aac29146103f9578063f2fde38b1461041757610142565b80636352211e146102bb57806370a08231146102eb578063715018a61461031b5780638da5cb5b1461032557806395d89b411461034357610142565b806323b872dd1161010a57806323b872dd146101ff57806342842e0e1461021b57806342966c681461023757806345269dab146102535780634814f0351461026f578063496409191461029f57610142565b806301ffc9a71461014757806306fdde0314610177578063081812fc14610195578063095ea7b3146101c557806320de9a63146101e1575b600080fd5b610161600480360381019061015c919061288a565b610433565b60405161016e91906128d2565b60405180910390f35b61017f610515565b60405161018c919061297d565b60405180910390f35b6101af60048036038101906101aa91906129d5565b6105a7565b6040516101bc9190612a43565b60405180910390f35b6101df60048036038101906101da9190612a8a565b6105ed565b005b6101e9610704565b6040516101f69190612c34565b60405180910390f35b61021960048036038101906102149190612c56565b6109aa565b005b61023560048036038101906102309190612c56565b610a0a565b005b610251600480360381019061024c91906129d5565b610a2a565b005b61026d60048036038101906102689190612dde565b610a86565b005b61028960048036038101906102849190612e85565b610bdc565b6040516102969190612ec1565b60405180910390f35b6102b960048036038101906102b491906129d5565b610bf4565b005b6102d560048036038101906102d091906129d5565b610c76565b6040516102e29190612a43565b60405180910390f35b61030560048036038101906103009190612e85565b610cfc565b6040516103129190612ec1565b60405180910390f35b610323610db3565b005b61032d610dc7565b60405161033a9190612a43565b60405180910390f35b61034b610df1565b604051610358919061297d565b60405180910390f35b61037b60048036038101906103769190612f08565b610e83565b005b61039760048036038101906103929190612fe9565b610e99565b005b6103b360048036038101906103ae91906129d5565b610efb565b6040516103c0919061297d565b60405180910390f35b6103e360048036038101906103de919061306c565b610f0d565b6040516103f091906128d2565b60405180910390f35b610401610fa1565b60405161040e919061316a565b60405180910390f35b610431600480360381019061042c9190612e85565b6110cb565b005b60007f80ac58cd000000000000000000000000000000000000000000000000000000007bffffffffffffffffffffffffffffffffffffffffffffffffffffffff1916827bffffffffffffffffffffffffffffffffffffffffffffffffffffffff191614806104fe57507f5b5e139f000000000000000000000000000000000000000000000000000000007bffffffffffffffffffffffffffffffffffffffffffffffffffffffff1916827bffffffffffffffffffffffffffffffffffffffffffffffffffffffff1916145b8061050e575061050d8261114e565b5b9050919050565b606060008054610524906131bb565b80601f0160208091040260200160405190810160405280929190818152602001828054610550906131bb565b801561059d5780601f106105725761010080835404028352916020019161059d565b820191906000526020600020905b81548152906001019060200180831161058057829003601f168201915b5050505050905090565b60006105b2826111b8565b6004600083815260200190815260200160002060009054906101000a900473ffffffffffffffffffffffffffffffffffffffff169050919050565b60006105f882610c76565b90508073ffffffffffffffffffffffffffffffffffffffff168373ffffffffffffffffffffffffffffffffffffffff1603610668576040517f08c379a000000000000000000000000000000000000000000000000000000000815260040161065f9061325e565b60405180910390fd5b8073ffffffffffffffffffffffffffffffffffffffff16610687611203565b73ffffffffffffffffffffffffffffffffffffffff1614806106b657506106b5816106b0611203565b610f0d565b5b6106f5576040517f08c379a00000000000000000000000000000000000000000000000000000000081526004016106ec906132f0565b60405180910390fd5b6106ff838361120b565b505050565b6060600061071260096112c4565b67ffffffffffffffff81111561072b5761072a612cb3565b5b60405190808252806020026020018201604052801561076457816020015b6107516127a0565b8152602001906001900390816107495790505b5090506000600190505b600161077a60096112c4565b610784919061333f565b8110156109a2576000600a60008381526020019081526020016000206040518060600160405290816000820180546107bb906131bb565b80601f01602080910402602001604051908101604052809291908181526020018280546107e7906131bb565b80156108345780601f1061080957610100808354040283529160200191610834565b820191906000526020600020905b81548152906001019060200180831161081757829003601f168201915b5050505050815260200160018201805461084d906131bb565b80601f0160208091040260200160405190810160405280929190818152602001828054610879906131bb565b80156108c65780601f1061089b576101008083540402835291602001916108c6565b820191906000526020600020905b8154815290600101906020018083116108a957829003601f168201915b505050505081526020016002820180546108df906131bb565b80601f016020809104026020016040519081016040528092919081815260200182805461090b906131bb565b80156109585780601f1061092d57610100808354040283529160200191610958565b820191906000526020600020905b81548152906001019060200180831161093b57829003601f168201915b505050505081525050905080836001846109729190613373565b81518110610983576109826133a7565b5b602002602001018190525050808061099a906133d6565b91505061076e565b508091505090565b6109bb6109b5611203565b826112d2565b6109fa576040517f08c379a00000000000000000000000000000000000000000000000000000000081526004016109f190613490565b60405180910390fd5b610a05838383611367565b505050565b610a2583838360405180602001604052806000815250610e99565b505050565b610a3b610a35611203565b826112d2565b610a7a576040517f08c379a0000000000000000000000000000000000000000000000000000000008152600401610a7190613490565b60405180910390fd5b610a8381611660565b50565b610a8e61172b565b610a98600961177a565b6000610aa460096112c4565b9050610ab03382611790565b610ac581610ac0838787876117ae565b611815565b604051806060016040528085815260200184815260200183815250600a60008381526020019081526020016000206000820151816000019081610b08919061365c565b506020820151816001019081610b1e919061365c565b506040820151816002019081610b34919061365c565b5090505080600b60003373ffffffffffffffffffffffffffffffffffffffff1673ffffffffffffffffffffffffffffffffffffffff1681526020019081526020016000208190555033600c600083815260200190815260200160002060006101000a81548173ffffffffffffffffffffffffffffffffffffffff021916908373ffffffffffffffffffffffffffffffffffffffff16021790555050610bd7611882565b505050565b600b6020528060005260406000206000915090505481565b3373ffffffffffffffffffffffffffffffffffffffff16610c1482610c76565b73ffffffffffffffffffffffffffffffffffffffff1614610c6a576040517f08c379a0000000000000000000000000000000000000000000000000000000008152600401610c619061377a565b60405180910390fd5b610c7381611660565b50565b600080610c828361188c565b9050600073ffffffffffffffffffffffffffffffffffffffff168173ffffffffffffffffffffffffffffffffffffffff1603610cf3576040517f08c379a0000000000000000000000000000000000000000000000000000000008152600401610cea906137e6565b60405180910390fd5b80915050919050565b60008073ffffffffffffffffffffffffffffffffffffffff168273ffffffffffffffffffffffffffffffffffffffff1603610d6c576040517f08c379a0000000000000000000000000000000000000000000000000000000008152600401610d6390613878565b60405180910390fd5b600360008373ffffffffffffffffffffffffffffffffffffffff1673ffffffffffffffffffffffffffffffffffffffff168152602001908152602001600020549050919050565b610dbb6118c9565b610dc56000611947565b565b6000600860009054906101000a900473ffffffffffffffffffffffffffffffffffffffff16905090565b606060018054610e00906131bb565b80601f0160208091040260200160405190810160405280929190818152602001828054610e2c906131bb565b8015610e795780601f10610e4e57610100808354040283529160200191610e79565b820191906000526020600020905b815481529060010190602001808311610e5c57829003601f168201915b5050505050905090565b610e95610e8e611203565b8383611a0d565b5050565b610eaa610ea4611203565b836112d2565b610ee9576040517f08c379a0000000000000000000000000000000000000000000000000000000008152600401610ee090613490565b60405180910390fd5b610ef584848484611b79565b50505050565b6060610f0682611bd5565b9050919050565b6000600560008473ffffffffffffffffffffffffffffffffffffffff1673ffffffffffffffffffffffffffffffffffffffff16815260200190815260200160002060008373ffffffffffffffffffffffffffffffffffffffff1673ffffffffffffffffffffffffffffffffffffffff16815260200190815260200160002060009054906101000a900460ff16905092915050565b60606000610faf60096112c4565b67ffffffffffffffff811115610fc857610fc7612cb3565b5b604051908082528060200260200182016040528015610ff65781602001602082028036833780820191505090505b5090506000600190505b600161100c60096112c4565b611016919061333f565b8110156110c3576000600c600083815260200190815260200160002060009054906101000a900473ffffffffffffffffffffffffffffffffffffffff16905080836001846110649190613373565b81518110611075576110746133a7565b5b602002602001019073ffffffffffffffffffffffffffffffffffffffff16908173ffffffffffffffffffffffffffffffffffffffff16815250505080806110bb906133d6565b915050611000565b508091505090565b6110d36118c9565b600073ffffffffffffffffffffffffffffffffffffffff168173ffffffffffffffffffffffffffffffffffffffff1603611142576040517f08c379a00000000000000000000000000000000000000000000000000000000081526004016111399061390a565b60405180910390fd5b61114b81611947565b50565b60007f01ffc9a7000000000000000000000000000000000000000000000000000000007bffffffffffffffffffffffffffffffffffffffffffffffffffffffff1916827bffffffffffffffffffffffffffffffffffffffffffffffffffffffff1916149050919050565b6111c181611ce7565b611200576040517f08c379a00000000000000000000000000000000000000000000000000000000081526004016111f7906137e6565b60405180910390fd5b50565b600033905090565b816004600083815260200190815260200160002060006101000a81548173ffffffffffffffffffffffffffffffffffffffff021916908373ffffffffffffffffffffffffffffffffffffffff160217905550808273ffffffffffffffffffffffffffffffffffffffff1661127e83610c76565b73ffffffffffffffffffffffffffffffffffffffff167f8c5be1e5ebec7d5bd14f71427d1e84f3dd0314c0f7b2291e5b200ac8c7c3b92560405160405180910390a45050565b600081600001549050919050565b6000806112de83610c76565b90508073ffffffffffffffffffffffffffffffffffffffff168473ffffffffffffffffffffffffffffffffffffffff161480611320575061131f8185610f0d565b5b8061135e57508373ffffffffffffffffffffffffffffffffffffffff16611346846105a7565b73ffffffffffffffffffffffffffffffffffffffff16145b91505092915050565b8273ffffffffffffffffffffffffffffffffffffffff1661138782610c76565b73ffffffffffffffffffffffffffffffffffffffff16146113dd576040517f08c379a00000000000000000000000000000000000000000000000000000000081526004016113d49061399c565b60405180910390fd5b600073ffffffffffffffffffffffffffffffffffffffff168273ffffffffffffffffffffffffffffffffffffffff160361144c576040517f08c379a000000000000000000000000000000000000000000000000000000000815260040161144390613a2e565b60405180910390fd5b6114598383836001611d28565b8273ffffffffffffffffffffffffffffffffffffffff1661147982610c76565b73ffffffffffffffffffffffffffffffffffffffff16146114cf576040517f08c379a00000000000000000000000000000000000000000000000000000000081526004016114c69061399c565b60405180910390fd5b6004600082815260200190815260200160002060006101000a81549073ffffffffffffffffffffffffffffffffffffffff02191690556001600360008573ffffffffffffffffffffffffffffffffffffffff1673ffffffffffffffffffffffffffffffffffffffff168152602001908152602001600020600082825403925050819055506001600360008473ffffffffffffffffffffffffffffffffffffffff1673ffffffffffffffffffffffffffffffffffffffff16815260200190815260200160002060008282540192505081905550816002600083815260200190815260200160002060006101000a81548173ffffffffffffffffffffffffffffffffffffffff021916908373ffffffffffffffffffffffffffffffffffffffff160217905550808273ffffffffffffffffffffffffffffffffffffffff168473ffffffffffffffffffffffffffffffffffffffff167fddf252ad1be2c89b69c2b068fc378daa952ba7f163c4a11628f55a4df523b3ef60405160405180910390a461165b8383836001611dd4565b505050565b61166981611dda565b600a60008281526020019081526020016000206000808201600061168d91906127c1565b60018201600061169d91906127c1565b6002820160006116ad91906127c1565b5050600c600082815260200190815260200160002060006101000a81549073ffffffffffffffffffffffffffffffffffffffff0219169055600b60003373ffffffffffffffffffffffffffffffffffffffff1673ffffffffffffffffffffffffffffffffffffffff1681526020019081526020016000206000905550565b600260075403611770576040517f08c379a000000000000000000000000000000000000000000000000000000000815260040161176790613a9a565b60405180910390fd5b6002600781905550565b6001816000016000828254019250508190555050565b6117aa828260405180602001604052806000815250611e2d565b5050565b606060006117bb86611e88565b8585856040516020016117d19493929190613d56565b60405160208183030381529060405290506117eb81611f56565b6040516020016117fb9190613e4e565b604051602081830303815290604052915050949350505050565b61181e82611ce7565b61185d576040517f08c379a000000000000000000000000000000000000000000000000000000000815260040161185490613ee2565b60405180910390fd5b8060066000848152602001908152602001600020908161187d919061365c565b505050565b6001600781905550565b60006002600083815260200190815260200160002060009054906101000a900473ffffffffffffffffffffffffffffffffffffffff169050919050565b6118d1611203565b73ffffffffffffffffffffffffffffffffffffffff166118ef610dc7565b73ffffffffffffffffffffffffffffffffffffffff1614611945576040517f08c379a000000000000000000000000000000000000000000000000000000000815260040161193c90613f4e565b60405180910390fd5b565b6000600860009054906101000a900473ffffffffffffffffffffffffffffffffffffffff16905081600860006101000a81548173ffffffffffffffffffffffffffffffffffffffff021916908373ffffffffffffffffffffffffffffffffffffffff1602179055508173ffffffffffffffffffffffffffffffffffffffff168173ffffffffffffffffffffffffffffffffffffffff167f8be0079c531659141344cd1fd0a4f28419497f9722a3daafe3b4186f6b6457e060405160405180910390a35050565b8173ffffffffffffffffffffffffffffffffffffffff168373ffffffffffffffffffffffffffffffffffffffff1603611a7b576040517f08c379a0000000000000000000000000000000000000000000000000000000008152600401611a7290613fba565b60405180910390fd5b80600560008573ffffffffffffffffffffffffffffffffffffffff1673ffffffffffffffffffffffffffffffffffffffff16815260200190815260200160002060008473ffffffffffffffffffffffffffffffffffffffff1673ffffffffffffffffffffffffffffffffffffffff16815260200190815260200160002060006101000a81548160ff0219169083151502179055508173ffffffffffffffffffffffffffffffffffffffff168373ffffffffffffffffffffffffffffffffffffffff167f17307eab39ab6107e8899845ad3d59bd9653f200f220920489ca2b5937696c3183604051611b6c91906128d2565b60405180910390a3505050565b611b84848484611367565b611b90848484846120b9565b611bcf576040517f08c379a0000000000000000000000000000000000000000000000000000000008152600401611bc69061404c565b60405180910390fd5b50505050565b6060611be0826111b8565b6000600660008481526020019081526020016000208054611c00906131bb565b80601f0160208091040260200160405190810160405280929190818152602001828054611c2c906131bb565b8015611c795780601f10611c4e57610100808354040283529160200191611c79565b820191906000526020600020905b815481529060010190602001808311611c5c57829003601f168201915b505050505090506000611c8a612240565b90506000815103611c9f578192505050611ce2565b600082511115611cd4578082604051602001611cbc92919061406c565b60405160208183030381529060405292505050611ce2565b611cdd84612257565b925050505b919050565b60008073ffffffffffffffffffffffffffffffffffffffff16611d098361188c565b73ffffffffffffffffffffffffffffffffffffffff1614159050919050565b600073ffffffffffffffffffffffffffffffffffffffff168473ffffffffffffffffffffffffffffffffffffffff161480611d8f5750600073ffffffffffffffffffffffffffffffffffffffff168373ffffffffffffffffffffffffffffffffffffffff16145b611dce576040517f08c379a0000000000000000000000000000000000000000000000000000000008152600401611dc590614128565b60405180910390fd5b50505050565b50505050565b611de3816122bf565b6000600660008381526020019081526020016000208054611e03906131bb565b905014611e2a57600660008281526020019081526020016000206000611e2991906127c1565b5b50565b611e37838361240d565b611e4460008484846120b9565b611e83576040517f08c379a0000000000000000000000000000000000000000000000000000000008152600401611e7a9061404c565b60405180910390fd5b505050565b606060006001611e978461262a565b01905060008167ffffffffffffffff811115611eb657611eb5612cb3565b5b6040519080825280601f01601f191660200182016040528015611ee85781602001600182028036833780820191505090505b509050600082602001820190505b600115611f4b578080600190039150507f3031323334353637383961626364656600000000000000000000000000000000600a86061a8153600a8581611f3f57611f3e614148565b5b04945060008503611ef6575b819350505050919050565b60606000825103611f78576040518060200160405280600081525090506120b4565b60006040518060600160405280604081526020016143a66040913990506000600360028551611fa7919061333f565b611fb19190614177565b6004611fbd91906141a8565b67ffffffffffffffff811115611fd657611fd5612cb3565b5b6040519080825280601f01601f1916602001820160405280156120085781602001600182028036833780820191505090505b509050600182016020820185865187015b80821015612074576003820191508151603f8160121c168501518453600184019350603f81600c1c168501518453600184019350603f8160061c168501518453600184019350603f8116850151845360018401935050612019565b505060038651066001811461209057600281146120a3576120ab565b603d6001830353603d60028303536120ab565b603d60018303535b50505080925050505b919050565b60006120da8473ffffffffffffffffffffffffffffffffffffffff1661277d565b15612233578373ffffffffffffffffffffffffffffffffffffffff1663150b7a02612103611203565b8786866040518563ffffffff1660e01b8152600401612125949392919061423f565b6020604051808303816000875af192505050801561216157506040513d601f19601f8201168201806040525081019061215e91906142a0565b60015b6121e3573d8060008114612191576040519150601f19603f3d011682016040523d82523d6000602084013e612196565b606091505b5060008151036121db576040517f08c379a00000000000000000000000000000000000000000000000000000000081526004016121d29061404c565b60405180910390fd5b805181602001fd5b63150b7a0260e01b7bffffffffffffffffffffffffffffffffffffffffffffffffffffffff1916817bffffffffffffffffffffffffffffffffffffffffffffffffffffffff191614915050612238565b600190505b949350505050565b606060405180602001604052806000815250905090565b6060612262826111b8565b600061226c612240565b9050600081511161228c57604051806020016040528060008152506122b7565b8061229684611e88565b6040516020016122a792919061406c565b6040516020818303038152906040525b915050919050565b60006122ca82610c76565b90506122da816000846001611d28565b6122e382610c76565b90506004600083815260200190815260200160002060006101000a81549073ffffffffffffffffffffffffffffffffffffffff02191690556001600360008373ffffffffffffffffffffffffffffffffffffffff1673ffffffffffffffffffffffffffffffffffffffff168152602001908152602001600020600082825403925050819055506002600083815260200190815260200160002060006101000a81549073ffffffffffffffffffffffffffffffffffffffff021916905581600073ffffffffffffffffffffffffffffffffffffffff168273ffffffffffffffffffffffffffffffffffffffff167fddf252ad1be2c89b69c2b068fc378daa952ba7f163c4a11628f55a4df523b3ef60405160405180910390a4612409816000846001611dd4565b5050565b600073ffffffffffffffffffffffffffffffffffffffff168273ffffffffffffffffffffffffffffffffffffffff160361247c576040517f08c379a000000000000000000000000000000000000000000000000000000000815260040161247390614319565b60405180910390fd5b61248581611ce7565b156124c5576040517f08c379a00000000000000000000000000000000000000000000000000000000081526004016124bc90614385565b60405180910390fd5b6124d3600083836001611d28565b6124dc81611ce7565b1561251c576040517f08c379a000000000000000000000000000000000000000000000000000000000815260040161251390614385565b60405180910390fd5b6001600360008473ffffffffffffffffffffffffffffffffffffffff1673ffffffffffffffffffffffffffffffffffffffff16815260200190815260200160002060008282540192505081905550816002600083815260200190815260200160002060006101000a81548173ffffffffffffffffffffffffffffffffffffffff021916908373ffffffffffffffffffffffffffffffffffffffff160217905550808273ffffffffffffffffffffffffffffffffffffffff16600073ffffffffffffffffffffffffffffffffffffffff167fddf252ad1be2c89b69c2b068fc378daa952ba7f163c4a11628f55a4df523b3ef60405160405180910390a4612626600083836001611dd4565b5050565b600080600090507a184f03e93ff9f4daa797ed6e38ed64bf6a1f0100000000000000008310612688577a184f03e93ff9f4daa797ed6e38ed64bf6a1f010000000000000000838161267e5761267d614148565b5b0492506040810190505b6d04ee2d6d415b85acef810000000083106126c5576d04ee2d6d415b85acef810000000083816126bb576126ba614148565b5b0492506020810190505b662386f26fc1000083106126f457662386f26fc1000083816126ea576126e9614148565b5b0492506010810190505b6305f5e100831061271d576305f5e100838161271357612712614148565b5b0492506008810190505b612710831061274257612710838161273857612737614148565b5b0492506004810190505b60648310612765576064838161275b5761275a614148565b5b0492506002810190505b600a8310612774576001810190505b80915050919050565b6000808273ffffffffffffffffffffffffffffffffffffffff163b119050919050565b60405180606001604052806060815260200160608152602001606081525090565b5080546127cd906131bb565b6000825580601f106127df57506127fe565b601f0160209004906000526020600020908101906127fd9190612801565b5b50565b5b8082111561281a576000816000905550600101612802565b5090565b6000604051905090565b600080fd5b600080fd5b60007fffffffff0000000000000000000000000000000000000000000000000000000082169050919050565b61286781612832565b811461287257600080fd5b50565b6000813590506128848161285e565b92915050565b6000602082840312156128a05761289f612828565b5b60006128ae84828501612875565b91505092915050565b60008115159050919050565b6128cc816128b7565b82525050565b60006020820190506128e760008301846128c3565b92915050565b600081519050919050565b600082825260208201905092915050565b60005b8381101561292757808201518184015260208101905061290c565b60008484015250505050565b6000601f19601f8301169050919050565b600061294f826128ed565b61295981856128f8565b9350612969818560208601612909565b61297281612933565b840191505092915050565b600060208201905081810360008301526129978184612944565b905092915050565b6000819050919050565b6129b28161299f565b81146129bd57600080fd5b50565b6000813590506129cf816129a9565b92915050565b6000602082840312156129eb576129ea612828565b5b60006129f9848285016129c0565b91505092915050565b600073ffffffffffffffffffffffffffffffffffffffff82169050919050565b6000612a2d82612a02565b9050919050565b612a3d81612a22565b82525050565b6000602082019050612a586000830184612a34565b92915050565b612a6781612a22565b8114612a7257600080fd5b50565b600081359050612a8481612a5e565b92915050565b60008060408385031215612aa157612aa0612828565b5b6000612aaf85828601612a75565b9250506020612ac0858286016129c0565b9150509250929050565b600081519050919050565b600082825260208201905092915050565b6000819050602082019050919050565b600082825260208201905092915050565b6000612b12826128ed565b612b1c8185612af6565b9350612b2c818560208601612909565b612b3581612933565b840191505092915050565b60006060830160008301518482036000860152612b5d8282612b07565b91505060208301518482036020860152612b778282612b07565b91505060408301518482036040860152612b918282612b07565b9150508091505092915050565b6000612baa8383612b40565b905092915050565b6000602082019050919050565b6000612bca82612aca565b612bd48185612ad5565b935083602082028501612be685612ae6565b8060005b85811015612c225784840389528151612c038582612b9e565b9450612c0e83612bb2565b925060208a01995050600181019050612bea565b50829750879550505050505092915050565b60006020820190508181036000830152612c4e8184612bbf565b905092915050565b600080600060608486031215612c6f57612c6e612828565b5b6000612c7d86828701612a75565b9350506020612c8e86828701612a75565b9250506040612c9f868287016129c0565b9150509250925092565b600080fd5b600080fd5b7f4e487b7100000000000000000000000000000000000000000000000000000000600052604160045260246000fd5b612ceb82612933565b810181811067ffffffffffffffff82111715612d0a57612d09612cb3565b5b80604052505050565b6000612d1d61281e565b9050612d298282612ce2565b919050565b600067ffffffffffffffff821115612d4957612d48612cb3565b5b612d5282612933565b9050602081019050919050565b82818337600083830152505050565b6000612d81612d7c84612d2e565b612d13565b905082815260208101848484011115612d9d57612d9c612cae565b5b612da8848285612d5f565b509392505050565b600082601f830112612dc557612dc4612ca9565b5b8135612dd5848260208601612d6e565b91505092915050565b600080600060608486031215612df757612df6612828565b5b600084013567ffffffffffffffff811115612e1557612e1461282d565b5b612e2186828701612db0565b935050602084013567ffffffffffffffff811115612e4257612e4161282d565b5b612e4e86828701612db0565b925050604084013567ffffffffffffffff811115612e6f57612e6e61282d565b5b612e7b86828701612db0565b9150509250925092565b600060208284031215612e9b57612e9a612828565b5b6000612ea984828501612a75565b91505092915050565b612ebb8161299f565b82525050565b6000602082019050612ed66000830184612eb2565b92915050565b612ee5816128b7565b8114612ef057600080fd5b50565b600081359050612f0281612edc565b92915050565b60008060408385031215612f1f57612f1e612828565b5b6000612f2d85828601612a75565b9250506020612f3e85828601612ef3565b9150509250929050565b600067ffffffffffffffff821115612f6357612f62612cb3565b5b612f6c82612933565b9050602081019050919050565b6000612f8c612f8784612f48565b612d13565b905082815260208101848484011115612fa857612fa7612cae565b5b612fb3848285612d5f565b509392505050565b600082601f830112612fd057612fcf612ca9565b5b8135612fe0848260208601612f79565b91505092915050565b6000806000806080858703121561300357613002612828565b5b600061301187828801612a75565b945050602061302287828801612a75565b9350506040613033878288016129c0565b925050606085013567ffffffffffffffff8111156130545761305361282d565b5b61306087828801612fbb565b91505092959194509250565b6000806040838503121561308357613082612828565b5b600061309185828601612a75565b92505060206130a285828601612a75565b9150509250929050565b600081519050919050565b600082825260208201905092915050565b6000819050602082019050919050565b6130e181612a22565b82525050565b60006130f383836130d8565b60208301905092915050565b6000602082019050919050565b6000613117826130ac565b61312181856130b7565b935061312c836130c8565b8060005b8381101561315d57815161314488826130e7565b975061314f836130ff565b925050600181019050613130565b5085935050505092915050565b60006020820190508181036000830152613184818461310c565b905092915050565b7f4e487b7100000000000000000000000000000000000000000000000000000000600052602260045260246000fd5b600060028204905060018216806131d357607f821691505b6020821081036131e6576131e561318c565b5b50919050565b7f4552433732313a20617070726f76616c20746f2063757272656e74206f776e6560008201527f7200000000000000000000000000000000000000000000000000000000000000602082015250565b60006132486021836128f8565b9150613253826131ec565b604082019050919050565b600060208201905081810360008301526132778161323b565b9050919050565b7f4552433732313a20617070726f76652063616c6c6572206973206e6f7420746f60008201527f6b656e206f776e6572206f7220617070726f76656420666f7220616c6c000000602082015250565b60006132da603d836128f8565b91506132e58261327e565b604082019050919050565b60006020820190508181036000830152613309816132cd565b9050919050565b7f4e487b7100000000000000000000000000000000000000000000000000000000600052601160045260246000fd5b600061334a8261299f565b91506133558361299f565b925082820190508082111561336d5761336c613310565b5b92915050565b600061337e8261299f565b91506133898361299f565b92508282039050818111156133a1576133a0613310565b5b92915050565b7f4e487b7100000000000000000000000000000000000000000000000000000000600052603260045260246000fd5b60006133e18261299f565b91507fffffffffffffffffffffffffffffffffffffffffffffffffffffffffffffffff820361341357613412613310565b5b600182019050919050565b7f4552433732313a2063616c6c6572206973206e6f7420746f6b656e206f776e6560008201527f72206f7220617070726f76656400000000000000000000000000000000000000602082015250565b600061347a602d836128f8565b91506134858261341e565b604082019050919050565b600060208201905081810360008301526134a98161346d565b9050919050565b60008190508160005260206000209050919050565b60006020601f8301049050919050565b600082821b905092915050565b6000600883026135127fffffffffffffffffffffffffffffffffffffffffffffffffffffffffffffffff826134d5565b61351c86836134d5565b95508019841693508086168417925050509392505050565b6000819050919050565b600061355961355461354f8461299f565b613534565b61299f565b9050919050565b6000819050919050565b6135738361353e565b61358761357f82613560565b8484546134e2565b825550505050565b600090565b61359c61358f565b6135a781848461356a565b505050565b5b818110156135cb576135c0600082613594565b6001810190506135ad565b5050565b601f821115613610576135e1816134b0565b6135ea846134c5565b810160208510156135f9578190505b61360d613605856134c5565b8301826135ac565b50505b505050565b600082821c905092915050565b600061363360001984600802613615565b1980831691505092915050565b600061364c8383613622565b9150826002028217905092915050565b613665826128ed565b67ffffffffffffffff81111561367e5761367d612cb3565b5b61368882546131bb565b6136938282856135cf565b600060209050601f8311600181146136c657600084156136b4578287015190505b6136be8582613640565b865550613726565b601f1984166136d4866134b0565b60005b828110156136fc578489015182556001820191506020850194506020810190506136d7565b868310156137195784890151613715601f891682613622565b8355505b6001600288020188555050505b505050505050565b7f596f7520646f206e6f74206f776e207468697320534254000000000000000000600082015250565b60006137646017836128f8565b915061376f8261372e565b602082019050919050565b6000602082019050818103600083015261379381613757565b9050919050565b7f4552433732313a20696e76616c696420746f6b656e2049440000000000000000600082015250565b60006137d06018836128f8565b91506137db8261379a565b602082019050919050565b600060208201905081810360008301526137ff816137c3565b9050919050565b7f4552433732313a2061646472657373207a65726f206973206e6f74206120766160008201527f6c6964206f776e65720000000000000000000000000000000000000000000000602082015250565b60006138626029836128f8565b915061386d82613806565b604082019050919050565b6000602082019050818103600083015261389181613855565b9050919050565b7f4f776e61626c653a206e6577206f776e657220697320746865207a65726f206160008201527f6464726573730000000000000000000000000000000000000000000000000000602082015250565b60006138f46026836128f8565b91506138ff82613898565b604082019050919050565b60006020820190508181036000830152613923816138e7565b9050919050565b7f4552433732313a207472616e736665722066726f6d20696e636f72726563742060008201527f6f776e6572000000000000000000000000000000000000000000000000000000602082015250565b60006139866025836128f8565b91506139918261392a565b604082019050919050565b600060208201905081810360008301526139b581613979565b9050919050565b7f4552433732313a207472616e7366657220746f20746865207a65726f2061646460008201527f7265737300000000000000000000000000000000000000000000000000000000602082015250565b6000613a186024836128f8565b9150613a23826139bc565b604082019050919050565b60006020820190508181036000830152613a4781613a0b565b9050919050565b7f5265656e7472616e637947756172643a207265656e7472616e742063616c6c00600082015250565b6000613a84601f836128f8565b9150613a8f82613a4e565b602082019050919050565b60006020820190508181036000830152613ab381613a77565b9050919050565b600081905092915050565b7f7b00000000000000000000000000000000000000000000000000000000000000600082015250565b6000613afb600183613aba565b9150613b0682613ac5565b600182019050919050565b7f226e616d65223a202253504e2044414f20230000000000000000000000000000600082015250565b6000613b47601283613aba565b9150613b5282613b11565b601282019050919050565b6000613b68826128ed565b613b728185613aba565b9350613b82818560208601612909565b80840191505092915050565b7f222c000000000000000000000000000000000000000000000000000000000000600082015250565b6000613bc4600283613aba565b9150613bcf82613b8e565b600282019050919050565b7f22696d616765223a202200000000000000000000000000000000000000000000600082015250565b6000613c10600a83613aba565b9150613c1b82613bda565b600a82019050919050565b7f226465736372697074696f6e223a202200000000000000000000000000000000600082015250565b6000613c5c601083613aba565b9150613c6782613c26565b601082019050919050565b7f2273796d6d65747269634b6579223a2022000000000000000000000000000000600082015250565b6000613ca8601183613aba565b9150613cb382613c72565b601182019050919050565b7f2200000000000000000000000000000000000000000000000000000000000000600082015250565b6000613cf4600183613aba565b9150613cff82613cbe565b600182019050919050565b7f7d00000000000000000000000000000000000000000000000000000000000000600082015250565b6000613d40600183613aba565b9150613d4b82613d0a565b600182019050919050565b6000613d6182613aee565b9150613d6c82613b3a565b9150613d788287613b5d565b9150613d8382613bb7565b9150613d8e82613c03565b9150613d9a8286613b5d565b9150613da582613bb7565b9150613db082613c4f565b9150613dbc8285613b5d565b9150613dc782613bb7565b9150613dd282613c9b565b9150613dde8284613b5d565b9150613de982613ce7565b9150613df482613d33565b915081905095945050505050565b7f646174613a6170706c69636174696f6e2f6a736f6e3b6261736536342c000000600082015250565b6000613e38601d83613aba565b9150613e4382613e02565b601d82019050919050565b6000613e5982613e2b565b9150613e658284613b5d565b915081905092915050565b7f45524337323155524953746f726167653a2055524920736574206f66206e6f6e60008201527f6578697374656e7420746f6b656e000000000000000000000000000000000000602082015250565b6000613ecc602e836128f8565b9150613ed782613e70565b604082019050919050565b60006020820190508181036000830152613efb81613ebf565b9050919050565b7f4f776e61626c653a2063616c6c6572206973206e6f7420746865206f776e6572600082015250565b6000613f386020836128f8565b9150613f4382613f02565b602082019050919050565b60006020820190508181036000830152613f6781613f2b565b9050919050565b7f4552433732313a20617070726f766520746f2063616c6c657200000000000000600082015250565b6000613fa46019836128f8565b9150613faf82613f6e565b602082019050919050565b60006020820190508181036000830152613fd381613f97565b9050919050565b7f4552433732313a207472616e7366657220746f206e6f6e20455243373231526560008201527f63656976657220696d706c656d656e7465720000000000000000000000000000602082015250565b60006140366032836128f8565b915061404182613fda565b604082019050919050565b6000602082019050818103600083015261406581614029565b9050919050565b60006140788285613b5d565b91506140848284613b5d565b91508190509392505050565b7f54686973206120536f756c626f756e6420746f6b656e2e2049742063616e6e6f60008201527f74206265207472616e736665727265642e2049742063616e206f6e6c7920626560208201527f206275726e65642062792074686520746f6b656e206f776e65722e0000000000604082015250565b6000614112605b836128f8565b915061411d82614090565b606082019050919050565b6000602082019050818103600083015261414181614105565b9050919050565b7f4e487b7100000000000000000000000000000000000000000000000000000000600052601260045260246000fd5b60006141828261299f565b915061418d8361299f565b92508261419d5761419c614148565b5b828204905092915050565b60006141b38261299f565b91506141be8361299f565b92508282026141cc8161299f565b915082820484148315176141e3576141e2613310565b5b5092915050565b600081519050919050565b600082825260208201905092915050565b6000614211826141ea565b61421b81856141f5565b935061422b818560208601612909565b61423481612933565b840191505092915050565b60006080820190506142546000830187612a34565b6142616020830186612a34565b61426e6040830185612eb2565b81810360608301526142808184614206565b905095945050505050565b60008151905061429a8161285e565b92915050565b6000602082840312156142b6576142b5612828565b5b60006142c48482850161428b565b91505092915050565b7f4552433732313a206d696e7420746f20746865207a65726f2061646472657373600082015250565b60006143036020836128f8565b915061430e826142cd565b602082019050919050565b60006020820190508181036000830152614332816142f6565b9050919050565b7f4552433732313a20746f6b656e20616c7265616479206d696e74656400000000600082015250565b600061436f601c836128f8565b915061437a82614339565b602082019050919050565b6000602082019050818103600083015261439e81614362565b905091905056fe4142434445464748494a4b4c4d4e4f505152535455565758595a6162636465666768696a6b6c6d6e6f707172737475767778797a303132333435363738392b2fa2646970667358221220dd6be4388e59452ff456252b97501f798b8ce240268ce5415b22887fe5c1f5d764736f6c63430008110033",
  "linkReferences": {},
  "deployedLinkReferences": {}
}