{
  "_format": "hh-sol-artifact-1",
  "contractName": "SpendAdmin",
  "sourceName": "contracts/SpendAdmin.sol",
  "abi": [
    {
      "inputs": [
        {
          "internalType": "address",
          "name": "spendSbtAddress",
          "type": "address"
        }
      ],
      "stateMutability": "nonpayable",
      "type": "constructor"
    },
    {
      "anonymous": false,
      "inputs": [
        {
          "indexed": true,
          "internalType": "address",
          "name": "owner",
          "type": "address"
        },
        {
          "indexed": true,
          "internalType": "address",
          "name": "approved",
          "type": "address"
        },
        {
          "indexed": true,
          "internalType": "uint256",
          "name": "tokenId",
          "type": "uint256"
        }
      ],
      "name": "Approval",
      "type": "event"
    },
    {
      "anonymous": false,
      "inputs": [
        {
          "indexed": true,
          "internalType": "address",
          "name": "owner",
          "type": "address"
        },
        {
          "indexed": true,
          "internalType": "address",
          "name": "operator",
          "type": "address"
        },
        {
          "indexed": false,
          "internalType": "bool",
          "name": "approved",
          "type": "bool"
        }
      ],
      "name": "ApprovalForAll",
      "type": "event"
    },
    {
      "anonymous": false,
      "inputs": [
        {
          "indexed": false,
          "internalType": "uint256",
          "name": "tokenId",
          "type": "uint256"
        },
        {
          "indexed": false,
          "internalType": "string",
          "name": "key",
          "type": "string"
        }
      ],
      "name": "KeyAdded",
      "type": "event"
    },
    {
      "anonymous": false,
      "inputs": [
        {
          "indexed": true,
          "internalType": "address",
          "name": "previousOwner",
          "type": "address"
        },
        {
          "indexed": true,
          "internalType": "address",
          "name": "newOwner",
          "type": "address"
        }
      ],
      "name": "OwnershipTransferred",
      "type": "event"
    },
    {
      "anonymous": false,
      "inputs": [
        {
          "indexed": false,
          "internalType": "address",
          "name": "account",
          "type": "address"
        }
      ],
      "name": "Paused",
      "type": "event"
    },
    {
      "anonymous": false,
      "inputs": [
        {
          "indexed": false,
          "internalType": "uint256",
          "name": "tokenId",
          "type": "uint256"
        },
        {
          "indexed": false,
          "internalType": "string",
          "name": "key",
          "type": "string"
        }
      ],
      "name": "SendingKey",
      "type": "event"
    },
    {
      "anonymous": false,
      "inputs": [
        {
          "indexed": true,
          "internalType": "address",
          "name": "from",
          "type": "address"
        },
        {
          "indexed": true,
          "internalType": "address",
          "name": "to",
          "type": "address"
        },
        {
          "indexed": true,
          "internalType": "uint256",
          "name": "tokenId",
          "type": "uint256"
        }
      ],
      "name": "Transfer",
      "type": "event"
    },
    {
      "anonymous": false,
      "inputs": [
        {
          "indexed": false,
          "internalType": "address",
          "name": "account",
          "type": "address"
        }
      ],
      "name": "Unpaused",
      "type": "event"
    },
    {
      "inputs": [
        {
          "internalType": "uint256",
          "name": "tokenId",
          "type": "uint256"
        },
        {
          "internalType": "string",
          "name": "encryptionKey",
          "type": "string"
        }
      ],
      "name": "addEncryptionKey",
      "outputs": [],
      "stateMutability": "nonpayable",
      "type": "function"
    },
    {
      "inputs": [
        {
          "internalType": "address",
          "name": "to",
          "type": "address"
        },
        {
          "internalType": "uint256",
          "name": "tokenId",
          "type": "uint256"
        }
      ],
      "name": "approve",
      "outputs": [],
      "stateMutability": "nonpayable",
      "type": "function"
    },
    {
      "inputs": [
        {
          "internalType": "address",
          "name": "owner",
          "type": "address"
        }
      ],
      "name": "balanceOf",
      "outputs": [
        {
          "internalType": "uint256",
          "name": "",
          "type": "uint256"
        }
      ],
      "stateMutability": "view",
      "type": "function"
    },
    {
      "inputs": [
        {
          "internalType": "uint256",
          "name": "tokenId",
          "type": "uint256"
        }
      ],
      "name": "burn",
      "outputs": [],
      "stateMutability": "nonpayable",
      "type": "function"
    },
    {
      "inputs": [
        {
          "internalType": "uint256[]",
          "name": "tokenIds",
          "type": "uint256[]"
        }
      ],
      "name": "decrypt",
      "outputs": [
        {
          "components": [
            {
              "internalType": "string",
              "name": "decryptionKey",
              "type": "string"
            }
          ],
          "internalType": "struct SpendAdmin.DecryptionKey[]",
          "name": "",
          "type": "tuple[]"
        }
      ],
      "stateMutability": "payable",
      "type": "function"
    },
    {
      "inputs": [],
      "name": "decryptRate",
      "outputs": [
        {
          "internalType": "uint256",
          "name": "",
          "type": "uint256"
        }
      ],
      "stateMutability": "view",
      "type": "function"
    },
    {
      "inputs": [],
      "name": "deposit",
      "outputs": [],
      "stateMutability": "payable",
      "type": "function"
    },
    {
      "inputs": [
        {
          "internalType": "uint256",
          "name": "tokenId",
          "type": "uint256"
        }
      ],
      "name": "getApproved",
      "outputs": [
        {
          "internalType": "address",
          "name": "",
          "type": "address"
        }
      ],
      "stateMutability": "view",
      "type": "function"
    },
    {
      "inputs": [
        {
          "internalType": "address",
          "name": "owner",
          "type": "address"
        },
        {
          "internalType": "address",
          "name": "operator",
          "type": "address"
        }
      ],
      "name": "isApprovedForAll",
      "outputs": [
        {
          "internalType": "bool",
          "name": "",
          "type": "bool"
        }
      ],
      "stateMutability": "view",
      "type": "function"
    },
    {
      "inputs": [],
      "name": "name",
      "outputs": [
        {
          "internalType": "string",
          "name": "",
          "type": "string"
        }
      ],
      "stateMutability": "view",
      "type": "function"
    },
    {
      "inputs": [],
      "name": "owner",
      "outputs": [
        {
          "internalType": "address",
          "name": "",
          "type": "address"
        }
      ],
      "stateMutability": "view",
      "type": "function"
    },
    {
      "inputs": [
        {
          "internalType": "uint256",
          "name": "tokenId",
          "type": "uint256"
        }
      ],
      "name": "ownerOf",
      "outputs": [
        {
          "internalType": "address",
          "name": "",
          "type": "address"
        }
      ],
      "stateMutability": "view",
      "type": "function"
    },
    {
      "inputs": [],
      "name": "pause",
      "outputs": [],
      "stateMutability": "nonpayable",
      "type": "function"
    },
    {
      "inputs": [],
      "name": "paused",
      "outputs": [
        {
          "internalType": "bool",
          "name": "",
          "type": "bool"
        }
      ],
      "stateMutability": "view",
      "type": "function"
    },
    {
      "inputs": [],
      "name": "renounceOwnership",
      "outputs": [],
      "stateMutability": "nonpayable",
      "type": "function"
    },
    {
      "inputs": [
        {
          "internalType": "address",
          "name": "to",
          "type": "address"
        },
        {
          "internalType": "string",
          "name": "uri",
          "type": "string"
        }
      ],
      "name": "safeMint",
      "outputs": [],
      "stateMutability": "nonpayable",
      "type": "function"
    },
    {
      "inputs": [
        {
          "internalType": "address",
          "name": "from",
          "type": "address"
        },
        {
          "internalType": "address",
          "name": "to",
          "type": "address"
        },
        {
          "internalType": "uint256",
          "name": "tokenId",
          "type": "uint256"
        }
      ],
      "name": "safeTransferFrom",
      "outputs": [],
      "stateMutability": "nonpayable",
      "type": "function"
    },
    {
      "inputs": [
        {
          "internalType": "address",
          "name": "from",
          "type": "address"
        },
        {
          "internalType": "address",
          "name": "to",
          "type": "address"
        },
        {
          "internalType": "uint256",
          "name": "tokenId",
          "type": "uint256"
        },
        {
          "internalType": "bytes",
          "name": "data",
          "type": "bytes"
        }
      ],
      "name": "safeTransferFrom",
      "outputs": [],
      "stateMutability": "nonpayable",
      "type": "function"
    },
    {
      "inputs": [
        {
          "internalType": "address",
          "name": "operator",
          "type": "address"
        },
        {
          "internalType": "bool",
          "name": "approved",
          "type": "bool"
        }
      ],
      "name": "setApprovalForAll",
      "outputs": [],
      "stateMutability": "nonpayable",
      "type": "function"
    },
    {
      "inputs": [],
      "name": "spendSbtContract",
      "outputs": [
        {
          "internalType": "contract SpendSBT",
          "name": "",
          "type": "address"
        }
      ],
      "stateMutability": "view",
      "type": "function"
    },
    {
      "inputs": [
        {
          "internalType": "bytes4",
          "name": "interfaceId",
          "type": "bytes4"
        }
      ],
      "name": "supportsInterface",
      "outputs": [
        {
          "internalType": "bool",
          "name": "",
          "type": "bool"
        }
      ],
      "stateMutability": "view",
      "type": "function"
    },
    {
      "inputs": [],
      "name": "symbol",
      "outputs": [
        {
          "internalType": "string",
          "name": "",
          "type": "string"
        }
      ],
      "stateMutability": "view",
      "type": "function"
    },
    {
      "inputs": [
        {
          "internalType": "uint256",
          "name": "index",
          "type": "uint256"
        }
      ],
      "name": "tokenByIndex",
      "outputs": [
        {
          "internalType": "uint256",
          "name": "",
          "type": "uint256"
        }
      ],
      "stateMutability": "view",
      "type": "function"
    },
    {
      "inputs": [
        {
          "internalType": "address",
          "name": "owner",
          "type": "address"
        },
        {
          "internalType": "uint256",
          "name": "index",
          "type": "uint256"
        }
      ],
      "name": "tokenOfOwnerByIndex",
      "outputs": [
        {
          "internalType": "uint256",
          "name": "",
          "type": "uint256"
        }
      ],
      "stateMutability": "view",
      "type": "function"
    },
    {
      "inputs": [
        {
          "internalType": "uint256",
          "name": "tokenId",
          "type": "uint256"
        }
      ],
      "name": "tokenURI",
      "outputs": [
        {
          "internalType": "string",
          "name": "",
          "type": "string"
        }
      ],
      "stateMutability": "view",
      "type": "function"
    },
    {
      "inputs": [],
      "name": "totalSupply",
      "outputs": [
        {
          "internalType": "uint256",
          "name": "",
          "type": "uint256"
        }
      ],
      "stateMutability": "view",
      "type": "function"
    },
    {
      "inputs": [
        {
          "internalType": "address",
          "name": "from",
          "type": "address"
        },
        {
          "internalType": "address",
          "name": "to",
          "type": "address"
        },
        {
          "internalType": "uint256",
          "name": "tokenId",
          "type": "uint256"
        }
      ],
      "name": "transferFrom",
      "outputs": [],
      "stateMutability": "nonpayable",
      "type": "function"
    },
    {
      "inputs": [
        {
          "internalType": "address",
          "name": "newOwner",
          "type": "address"
        }
      ],
      "name": "transferOwnership",
      "outputs": [],
      "stateMutability": "nonpayable",
      "type": "function"
    },
    {
      "inputs": [],
      "name": "unpause",
      "outputs": [],
      "stateMutability": "nonpayable",
      "type": "function"
    }
  ],
  "bytecode": "0x6080604052662386f26fc10000600d553480156200001c57600080fd5b506040516200556938038062005569833981810160405281019062000042919062000872565b6040518060400160405280600a81526020017f5370656e6441646d696e000000000000000000000000000000000000000000008152506040518060400160405280600481526020017f53505441000000000000000000000000000000000000000000000000000000008152508160009081620000bf919062000b1e565b508060019081620000d1919062000b1e565b5050506000600b60006101000a81548160ff0219169083151502179055506200010f620001036200017860201b60201c565b6200018060201b60201c565b6200013033604051806020016040528060008152506200024660201b60201c565b80600c60006101000a81548173ffffffffffffffffffffffffffffffffffffffff021916908373ffffffffffffffffffffffffffffffffffffffff1602179055505062000f34565b600033905090565b6000600b60019054906101000a900473ffffffffffffffffffffffffffffffffffffffff16905081600b60016101000a81548173ffffffffffffffffffffffffffffffffffffffff021916908373ffffffffffffffffffffffffffffffffffffffff1602179055508173ffffffffffffffffffffffffffffffffffffffff168173ffffffffffffffffffffffffffffffffffffffff167f8be0079c531659141344cd1fd0a4f28419497f9722a3daafe3b4186f6b6457e060405160405180910390a35050565b62000256620002b160201b60201c565b60006200026f600e6200034260201b620013c11760201c565b905062000288600e6200035060201b620013cf1760201c565b6200029a83826200036660201b60201c565b620002ac8183620005ac60201b60201c565b505050565b620002c16200017860201b60201c565b73ffffffffffffffffffffffffffffffffffffffff16620002e76200062660201b60201c565b73ffffffffffffffffffffffffffffffffffffffff161462000340576040517f08c379a0000000000000000000000000000000000000000000000000000000008152600401620003379062000c66565b60405180910390fd5b565b600081600001549050919050565b6001816000016000828254019250508190555050565b600073ffffffffffffffffffffffffffffffffffffffff168273ffffffffffffffffffffffffffffffffffffffff1603620003d8576040517f08c379a0000000000000000000000000000000000000000000000000000000008152600401620003cf9062000cd8565b60405180910390fd5b620003e9816200065060201b60201c565b156200042c576040517f08c379a0000000000000000000000000000000000000000000000000000000008152600401620004239062000d4a565b60405180910390fd5b620004426000838360016200069960201b60201c565b62000453816200065060201b60201c565b1562000496576040517f08c379a00000000000000000000000000000000000000000000000000000000081526004016200048d9062000d4a565b60405180910390fd5b6001600360008473ffffffffffffffffffffffffffffffffffffffff1673ffffffffffffffffffffffffffffffffffffffff16815260200190815260200160002060008282540192505081905550816002600083815260200190815260200160002060006101000a81548173ffffffffffffffffffffffffffffffffffffffff021916908373ffffffffffffffffffffffffffffffffffffffff160217905550808273ffffffffffffffffffffffffffffffffffffffff16600073ffffffffffffffffffffffffffffffffffffffff167fddf252ad1be2c89b69c2b068fc378daa952ba7f163c4a11628f55a4df523b3ef60405160405180910390a4620005a86000838360016200075960201b60201c565b5050565b620005bd826200065060201b60201c565b620005ff576040517f08c379a0000000000000000000000000000000000000000000000000000000008152600401620005f69062000de2565b60405180910390fd5b80600a6000848152602001908152602001600020908162000621919062000b1e565b505050565b6000600b60019054906101000a900473ffffffffffffffffffffffffffffffffffffffff16905090565b60008073ffffffffffffffffffffffffffffffffffffffff166200067a836200075f60201b60201c565b73ffffffffffffffffffffffffffffffffffffffff1614159050919050565b620006a96200079c60201b60201c565b600073ffffffffffffffffffffffffffffffffffffffff168473ffffffffffffffffffffffffffffffffffffffff161480620007115750600073ffffffffffffffffffffffffffffffffffffffff168373ffffffffffffffffffffffffffffffffffffffff16145b62000753576040517f08c379a00000000000000000000000000000000000000000000000000000000081526004016200074a9062000ea0565b60405180910390fd5b50505050565b50505050565b60006002600083815260200190815260200160002060009054906101000a900473ffffffffffffffffffffffffffffffffffffffff169050919050565b620007ac620007f160201b60201c565b15620007ef576040517f08c379a0000000000000000000000000000000000000000000000000000000008152600401620007e69062000f12565b60405180910390fd5b565b6000600b60009054906101000a900460ff16905090565b600080fd5b600073ffffffffffffffffffffffffffffffffffffffff82169050919050565b60006200083a826200080d565b9050919050565b6200084c816200082d565b81146200085857600080fd5b50565b6000815190506200086c8162000841565b92915050565b6000602082840312156200088b576200088a62000808565b5b60006200089b848285016200085b565b91505092915050565b600081519050919050565b7f4e487b7100000000000000000000000000000000000000000000000000000000600052604160045260246000fd5b7f4e487b7100000000000000000000000000000000000000000000000000000000600052602260045260246000fd5b600060028204905060018216806200092657607f821691505b6020821081036200093c576200093b620008de565b5b50919050565b60008190508160005260206000209050919050565b60006020601f8301049050919050565b600082821b905092915050565b600060088302620009a67fffffffffffffffffffffffffffffffffffffffffffffffffffffffffffffffff8262000967565b620009b2868362000967565b95508019841693508086168417925050509392505050565b6000819050919050565b6000819050919050565b6000620009ff620009f9620009f384620009ca565b620009d4565b620009ca565b9050919050565b6000819050919050565b62000a1b83620009de565b62000a3362000a2a8262000a06565b84845462000974565b825550505050565b600090565b62000a4a62000a3b565b62000a5781848462000a10565b505050565b5b8181101562000a7f5762000a7360008262000a40565b60018101905062000a5d565b5050565b601f82111562000ace5762000a988162000942565b62000aa38462000957565b8101602085101562000ab3578190505b62000acb62000ac28562000957565b83018262000a5c565b50505b505050565b600082821c905092915050565b600062000af36000198460080262000ad3565b1980831691505092915050565b600062000b0e838362000ae0565b9150826002028217905092915050565b62000b2982620008a4565b67ffffffffffffffff81111562000b455762000b44620008af565b5b62000b5182546200090d565b62000b5e82828562000a83565b600060209050601f83116001811462000b96576000841562000b81578287015190505b62000b8d858262000b00565b86555062000bfd565b601f19841662000ba68662000942565b60005b8281101562000bd05784890151825560018201915060208501945060208101905062000ba9565b8683101562000bf0578489015162000bec601f89168262000ae0565b8355505b6001600288020188555050505b505050505050565b600082825260208201905092915050565b7f4f776e61626c653a2063616c6c6572206973206e6f7420746865206f776e6572600082015250565b600062000c4e60208362000c05565b915062000c5b8262000c16565b602082019050919050565b6000602082019050818103600083015262000c818162000c3f565b9050919050565b7f4552433732313a206d696e7420746f20746865207a65726f2061646472657373600082015250565b600062000cc060208362000c05565b915062000ccd8262000c88565b602082019050919050565b6000602082019050818103600083015262000cf38162000cb1565b9050919050565b7f4552433732313a20746f6b656e20616c7265616479206d696e74656400000000600082015250565b600062000d32601c8362000c05565b915062000d3f8262000cfa565b602082019050919050565b6000602082019050818103600083015262000d658162000d23565b9050919050565b7f45524337323155524953746f726167653a2055524920736574206f66206e6f6e60008201527f6578697374656e7420746f6b656e000000000000000000000000000000000000602082015250565b600062000dca602e8362000c05565b915062000dd78262000d6c565b604082019050919050565b6000602082019050818103600083015262000dfd8162000dbb565b9050919050565b7f54686973206120536f756c626f756e6420746f6b656e2e2049742063616e6e6f60008201527f74206265207472616e736665727265642e2049742063616e206f6e6c7920626560208201527f206275726e65642062792074686520746f6b656e206f776e65722e0000000000604082015250565b600062000e88605b8362000c05565b915062000e958262000e04565b606082019050919050565b6000602082019050818103600083015262000ebb8162000e79565b9050919050565b7f5061757361626c653a2070617573656400000000000000000000000000000000600082015250565b600062000efa60108362000c05565b915062000f078262000ec2565b602082019050919050565b6000602082019050818103600083015262000f2d8162000eeb565b9050919050565b6146258062000f446000396000f3fe6080604052600436106101c25760003560e01c80635c975abb116100f757806395d89b4111610095578063d0e30db011610064578063d0e30db014610633578063d204c45e1461063d578063e985e9c514610666578063f2fde38b146106a3576101c2565b806395d89b4114610579578063a22cb465146105a4578063b88d4fde146105cd578063c87b56dd146105f6576101c2565b8063715018a6116100d1578063715018a6146104f557806383eb676b1461050c5780638456cb59146105375780638da5cb5b1461054e576101c2565b80635c975abb146104505780636352211e1461047b57806370a08231146104b8576101c2565b806323b872dd116101645780633f4ba83a1161013e5780633f4ba83a146103aa57806342842e0e146103c157806342966c68146103ea5780634f6ccce714610413576101c2565b806323b872dd146103145780632f745c591461033d5780633960f7871461037a576101c2565b8063095ea7b3116101a0578063095ea7b31461026c57806318160ddd1461029557806321ab4f07146102c057806322a09539146102e9576101c2565b806301ffc9a7146101c757806306fdde0314610204578063081812fc1461022f575b600080fd5b3480156101d357600080fd5b506101ee60048036038101906101e99190612a67565b6106cc565b6040516101fb9190612aaf565b60405180910390f35b34801561021057600080fd5b506102196106de565b6040516102269190612b5a565b60405180910390f35b34801561023b57600080fd5b5061025660048036038101906102519190612bb2565b610770565b6040516102639190612c20565b60405180910390f35b34801561027857600080fd5b50610293600480360381019061028e9190612c67565b6107b6565b005b3480156102a157600080fd5b506102aa6108cd565b6040516102b79190612cb6565b60405180910390f35b3480156102cc57600080fd5b506102e760048036038101906102e29190612e06565b6108de565b005b3480156102f557600080fd5b506102fe6109cc565b60405161030b9190612cb6565b60405180910390f35b34801561032057600080fd5b5061033b60048036038101906103369190612e62565b6109d2565b005b34801561034957600080fd5b50610364600480360381019061035f9190612c67565b610a32565b6040516103719190612cb6565b60405180910390f35b610394600480360381019061038f9190612f7d565b610ad7565b6040516103a191906130fc565b60405180910390f35b3480156103b657600080fd5b506103bf610e8a565b005b3480156103cd57600080fd5b506103e860048036038101906103e39190612e62565b610e9c565b005b3480156103f657600080fd5b50610411600480360381019061040c9190612bb2565b610ebc565b005b34801561041f57600080fd5b5061043a60048036038101906104359190612bb2565b610f18565b6040516104479190612cb6565b60405180910390f35b34801561045c57600080fd5b50610465610f89565b6040516104729190612aaf565b60405180910390f35b34801561048757600080fd5b506104a2600480360381019061049d9190612bb2565b610fa0565b6040516104af9190612c20565b60405180910390f35b3480156104c457600080fd5b506104df60048036038101906104da919061311e565b611026565b6040516104ec9190612cb6565b60405180910390f35b34801561050157600080fd5b5061050a6110dd565b005b34801561051857600080fd5b506105216110f1565b60405161052e91906131aa565b60405180910390f35b34801561054357600080fd5b5061054c611117565b005b34801561055a57600080fd5b50610563611129565b6040516105709190612c20565b60405180910390f35b34801561058557600080fd5b5061058e611153565b60405161059b9190612b5a565b60405180910390f35b3480156105b057600080fd5b506105cb60048036038101906105c691906131f1565b6111e5565b005b3480156105d957600080fd5b506105f460048036038101906105ef91906132d2565b6111fb565b005b34801561060257600080fd5b5061061d60048036038101906106189190612bb2565b61125d565b60405161062a9190612b5a565b60405180910390f35b61063b61126f565b005b34801561064957600080fd5b50610664600480360381019061065f9190613355565b611271565b005b34801561067257600080fd5b5061068d600480360381019061068891906133b1565b6112aa565b60405161069a9190612aaf565b60405180910390f35b3480156106af57600080fd5b506106ca60048036038101906106c5919061311e565b61133e565b005b60006106d7826113e5565b9050919050565b6060600080546106ed90613420565b80601f016020809104026020016040519081016040528092919081815260200182805461071990613420565b80156107665780601f1061073b57610100808354040283529160200191610766565b820191906000526020600020905b81548152906001019060200180831161074957829003601f168201915b5050505050905090565b600061077b8261145f565b6004600083815260200190815260200160002060009054906101000a900473ffffffffffffffffffffffffffffffffffffffff169050919050565b60006107c182610fa0565b90508073ffffffffffffffffffffffffffffffffffffffff168373ffffffffffffffffffffffffffffffffffffffff1603610831576040517f08c379a0000000000000000000000000000000000000000000000000000000008152600401610828906134c3565b60405180910390fd5b8073ffffffffffffffffffffffffffffffffffffffff166108506114aa565b73ffffffffffffffffffffffffffffffffffffffff16148061087f575061087e816108796114aa565b6112aa565b5b6108be576040517f08c379a00000000000000000000000000000000000000000000000000000000081526004016108b590613555565b60405180910390fd5b6108c883836114b2565b505050565b60006108d9600e6113c1565b905090565b600c60009054906101000a900473ffffffffffffffffffffffffffffffffffffffff1673ffffffffffffffffffffffffffffffffffffffff163373ffffffffffffffffffffffffffffffffffffffff161461096e576040517f08c379a0000000000000000000000000000000000000000000000000000000008152600401610965906135e7565b60405180910390fd5b80600f6000848152602001908152602001600020908161098e91906137a9565b507ff9288404c84d51c45e556b957b65bd7d790b08a2c7c77ee21b4ce56b7e27086082826040516109c092919061387b565b60405180910390a15050565b600d5481565b6109e36109dd6114aa565b8261156b565b610a22576040517f08c379a0000000000000000000000000000000000000000000000000000000008152600401610a199061391d565b60405180910390fd5b610a2d838383611600565b505050565b6000610a3d83611026565b8210610a7e576040517f08c379a0000000000000000000000000000000000000000000000000000000008152600401610a75906139af565b60405180910390fd5b600660008473ffffffffffffffffffffffffffffffffffffffff1673ffffffffffffffffffffffffffffffffffffffff168152602001908152602001600020600083815260200190815260200160002054905092915050565b60606000610ae433611026565b11610b24576040517f08c379a0000000000000000000000000000000000000000000000000000000008152600401610b1b90613a1b565b60405180910390fd5b8151600d54610b339190613a6a565b3411610b74576040517f08c379a0000000000000000000000000000000000000000000000000000000008152600401610b6b90613af8565b60405180910390fd5b6000825167ffffffffffffffff811115610b9157610b90612cdb565b5b604051908082528060200260200182016040528015610bca57816020015b610bb761298b565b815260200190600190039081610baf5790505b50905060005b8351811015610df3576000848281518110610bee57610bed613b18565b5b602002602001015190506000600c60009054906101000a900473ffffffffffffffffffffffffffffffffffffffff1673ffffffffffffffffffffffffffffffffffffffff1663dd922a32836040518263ffffffff1660e01b8152600401610c559190612cb6565b602060405180830381865afa158015610c72573d6000803e3d6000fd5b505050506040513d601f19601f82011682018060405250810190610c969190613b5c565b90508073ffffffffffffffffffffffffffffffffffffffff166108fc600d549081150290604051600060405180830381858888f19350505050158015610ce0573d6000803e3d6000fd5b506000600f60008481526020019081526020016000208054610d0190613420565b80601f0160208091040260200160405190810160405280929190818152602001828054610d2d90613420565b8015610d7a5780601f10610d4f57610100808354040283529160200191610d7a565b820191906000526020600020905b815481529060010190602001808311610d5d57829003601f168201915b5050505050905080858581518110610d9557610d94613b18565b5b6020026020010151600001819052507f498e94d0345f9654c912ae0ac0f11ba4f610f8f437c5d2975b4fb028a2968c6d8382604051610dd592919061387b565b60405180910390a15050508080610deb90613b89565b915050610bd0565b50600c60009054906101000a900473ffffffffffffffffffffffffffffffffffffffff1673ffffffffffffffffffffffffffffffffffffffff16633960f787846040518263ffffffff1660e01b8152600401610e4f9190613c8f565b600060405180830381600087803b158015610e6957600080fd5b505af1158015610e7d573d6000803e3d6000fd5b5050505080915050919050565b610e926118f9565b610e9a611977565b565b610eb7838383604051806020016040528060008152506111fb565b505050565b610ecd610ec76114aa565b8261156b565b610f0c576040517f08c379a0000000000000000000000000000000000000000000000000000000008152600401610f039061391d565b60405180910390fd5b610f15816119da565b50565b6000610f226119e6565b8210610f63576040517f08c379a0000000000000000000000000000000000000000000000000000000008152600401610f5a90613d23565b60405180910390fd5b60088281548110610f7757610f76613b18565b5b90600052602060002001549050919050565b6000600b60009054906101000a900460ff16905090565b600080610fac836119f3565b9050600073ffffffffffffffffffffffffffffffffffffffff168173ffffffffffffffffffffffffffffffffffffffff160361101d576040517f08c379a000000000000000000000000000000000000000000000000000000000815260040161101490613d8f565b60405180910390fd5b80915050919050565b60008073ffffffffffffffffffffffffffffffffffffffff168273ffffffffffffffffffffffffffffffffffffffff1603611096576040517f08c379a000000000000000000000000000000000000000000000000000000000815260040161108d90613e21565b60405180910390fd5b600360008373ffffffffffffffffffffffffffffffffffffffff1673ffffffffffffffffffffffffffffffffffffffff168152602001908152602001600020549050919050565b6110e56118f9565b6110ef6000611a30565b565b600c60009054906101000a900473ffffffffffffffffffffffffffffffffffffffff1681565b61111f6118f9565b611127611af6565b565b6000600b60019054906101000a900473ffffffffffffffffffffffffffffffffffffffff16905090565b60606001805461116290613420565b80601f016020809104026020016040519081016040528092919081815260200182805461118e90613420565b80156111db5780601f106111b0576101008083540402835291602001916111db565b820191906000526020600020905b8154815290600101906020018083116111be57829003601f168201915b5050505050905090565b6111f76111f06114aa565b8383611b59565b5050565b61120c6112066114aa565b8361156b565b61124b576040517f08c379a00000000000000000000000000000000000000000000000000000000081526004016112429061391d565b60405180910390fd5b61125784848484611cc5565b50505050565b606061126882611d21565b9050919050565b565b6112796118f9565b6000611285600e6113c1565b9050611291600e6113cf565b61129b8382611e33565b6112a58183612050565b505050565b6000600560008473ffffffffffffffffffffffffffffffffffffffff1673ffffffffffffffffffffffffffffffffffffffff16815260200190815260200160002060008373ffffffffffffffffffffffffffffffffffffffff1673ffffffffffffffffffffffffffffffffffffffff16815260200190815260200160002060009054906101000a900460ff16905092915050565b6113466118f9565b600073ffffffffffffffffffffffffffffffffffffffff168173ffffffffffffffffffffffffffffffffffffffff16036113b5576040517f08c379a00000000000000000000000000000000000000000000000000000000081526004016113ac90613eb3565b60405180910390fd5b6113be81611a30565b50565b600081600001549050919050565b6001816000016000828254019250508190555050565b60007f780e9d63000000000000000000000000000000000000000000000000000000007bffffffffffffffffffffffffffffffffffffffffffffffffffffffff1916827bffffffffffffffffffffffffffffffffffffffffffffffffffffffff191614806114585750611457826120bd565b5b9050919050565b6114688161219f565b6114a7576040517f08c379a000000000000000000000000000000000000000000000000000000000815260040161149e90613d8f565b60405180910390fd5b50565b600033905090565b816004600083815260200190815260200160002060006101000a81548173ffffffffffffffffffffffffffffffffffffffff021916908373ffffffffffffffffffffffffffffffffffffffff160217905550808273ffffffffffffffffffffffffffffffffffffffff1661152583610fa0565b73ffffffffffffffffffffffffffffffffffffffff167f8c5be1e5ebec7d5bd14f71427d1e84f3dd0314c0f7b2291e5b200ac8c7c3b92560405160405180910390a45050565b60008061157783610fa0565b90508073ffffffffffffffffffffffffffffffffffffffff168473ffffffffffffffffffffffffffffffffffffffff1614806115b957506115b881856112aa565b5b806115f757508373ffffffffffffffffffffffffffffffffffffffff166115df84610770565b73ffffffffffffffffffffffffffffffffffffffff16145b91505092915050565b8273ffffffffffffffffffffffffffffffffffffffff1661162082610fa0565b73ffffffffffffffffffffffffffffffffffffffff1614611676576040517f08c379a000000000000000000000000000000000000000000000000000000000815260040161166d90613f45565b60405180910390fd5b600073ffffffffffffffffffffffffffffffffffffffff168273ffffffffffffffffffffffffffffffffffffffff16036116e5576040517f08c379a00000000000000000000000000000000000000000000000000000000081526004016116dc90613fd7565b60405180910390fd5b6116f283838360016121e0565b8273ffffffffffffffffffffffffffffffffffffffff1661171282610fa0565b73ffffffffffffffffffffffffffffffffffffffff1614611768576040517f08c379a000000000000000000000000000000000000000000000000000000000815260040161175f90613f45565b60405180910390fd5b6004600082815260200190815260200160002060006101000a81549073ffffffffffffffffffffffffffffffffffffffff02191690556001600360008573ffffffffffffffffffffffffffffffffffffffff1673ffffffffffffffffffffffffffffffffffffffff168152602001908152602001600020600082825403925050819055506001600360008473ffffffffffffffffffffffffffffffffffffffff1673ffffffffffffffffffffffffffffffffffffffff16815260200190815260200160002060008282540192505081905550816002600083815260200190815260200160002060006101000a81548173ffffffffffffffffffffffffffffffffffffffff021916908373ffffffffffffffffffffffffffffffffffffffff160217905550808273ffffffffffffffffffffffffffffffffffffffff168473ffffffffffffffffffffffffffffffffffffffff167fddf252ad1be2c89b69c2b068fc378daa952ba7f163c4a11628f55a4df523b3ef60405160405180910390a46118f48383836001612294565b505050565b6119016114aa565b73ffffffffffffffffffffffffffffffffffffffff1661191f611129565b73ffffffffffffffffffffffffffffffffffffffff1614611975576040517f08c379a000000000000000000000000000000000000000000000000000000000815260040161196c90614043565b60405180910390fd5b565b61197f61229a565b6000600b60006101000a81548160ff0219169083151502179055507f5db9ee0a495bf2e6ff9c91a7834c1ba4fdd244a5e8aa4e537bd38aeae4b073aa6119c36114aa565b6040516119d09190612c20565b60405180910390a1565b6119e3816122e3565b50565b6000600880549050905090565b60006002600083815260200190815260200160002060009054906101000a900473ffffffffffffffffffffffffffffffffffffffff169050919050565b6000600b60019054906101000a900473ffffffffffffffffffffffffffffffffffffffff16905081600b60016101000a81548173ffffffffffffffffffffffffffffffffffffffff021916908373ffffffffffffffffffffffffffffffffffffffff1602179055508173ffffffffffffffffffffffffffffffffffffffff168173ffffffffffffffffffffffffffffffffffffffff167f8be0079c531659141344cd1fd0a4f28419497f9722a3daafe3b4186f6b6457e060405160405180910390a35050565b611afe612336565b6001600b60006101000a81548160ff0219169083151502179055507f62e78cea01bee320cd4e420270b5ea74000d11b0c9f74754ebdbfc544b05a258611b426114aa565b604051611b4f9190612c20565b60405180910390a1565b8173ffffffffffffffffffffffffffffffffffffffff168373ffffffffffffffffffffffffffffffffffffffff1603611bc7576040517f08c379a0000000000000000000000000000000000000000000000000000000008152600401611bbe906140af565b60405180910390fd5b80600560008573ffffffffffffffffffffffffffffffffffffffff1673ffffffffffffffffffffffffffffffffffffffff16815260200190815260200160002060008473ffffffffffffffffffffffffffffffffffffffff1673ffffffffffffffffffffffffffffffffffffffff16815260200190815260200160002060006101000a81548160ff0219169083151502179055508173ffffffffffffffffffffffffffffffffffffffff168373ffffffffffffffffffffffffffffffffffffffff167f17307eab39ab6107e8899845ad3d59bd9653f200f220920489ca2b5937696c3183604051611cb89190612aaf565b60405180910390a3505050565b611cd0848484611600565b611cdc84848484612380565b611d1b576040517f08c379a0000000000000000000000000000000000000000000000000000000008152600401611d1290614141565b60405180910390fd5b50505050565b6060611d2c8261145f565b6000600a60008481526020019081526020016000208054611d4c90613420565b80601f0160208091040260200160405190810160405280929190818152602001828054611d7890613420565b8015611dc55780601f10611d9a57610100808354040283529160200191611dc5565b820191906000526020600020905b815481529060010190602001808311611da857829003601f168201915b505050505090506000611dd6612507565b90506000815103611deb578192505050611e2e565b600082511115611e20578082604051602001611e0892919061419d565b60405160208183030381529060405292505050611e2e565b611e2984612527565b925050505b919050565b600073ffffffffffffffffffffffffffffffffffffffff168273ffffffffffffffffffffffffffffffffffffffff1603611ea2576040517f08c379a0000000000000000000000000000000000000000000000000000000008152600401611e999061420d565b60405180910390fd5b611eab8161219f565b15611eeb576040517f08c379a0000000000000000000000000000000000000000000000000000000008152600401611ee290614279565b60405180910390fd5b611ef96000838360016121e0565b611f028161219f565b15611f42576040517f08c379a0000000000000000000000000000000000000000000000000000000008152600401611f3990614279565b60405180910390fd5b6001600360008473ffffffffffffffffffffffffffffffffffffffff1673ffffffffffffffffffffffffffffffffffffffff16815260200190815260200160002060008282540192505081905550816002600083815260200190815260200160002060006101000a81548173ffffffffffffffffffffffffffffffffffffffff021916908373ffffffffffffffffffffffffffffffffffffffff160217905550808273ffffffffffffffffffffffffffffffffffffffff16600073ffffffffffffffffffffffffffffffffffffffff167fddf252ad1be2c89b69c2b068fc378daa952ba7f163c4a11628f55a4df523b3ef60405160405180910390a461204c600083836001612294565b5050565b6120598261219f565b612098576040517f08c379a000000000000000000000000000000000000000000000000000000000815260040161208f9061430b565b60405180910390fd5b80600a600084815260200190815260200160002090816120b891906137a9565b505050565b60007f80ac58cd000000000000000000000000000000000000000000000000000000007bffffffffffffffffffffffffffffffffffffffffffffffffffffffff1916827bffffffffffffffffffffffffffffffffffffffffffffffffffffffff1916148061218857507f5b5e139f000000000000000000000000000000000000000000000000000000007bffffffffffffffffffffffffffffffffffffffffffffffffffffffff1916827bffffffffffffffffffffffffffffffffffffffffffffffffffffffff1916145b8061219857506121978261258f565b5b9050919050565b60008073ffffffffffffffffffffffffffffffffffffffff166121c1836119f3565b73ffffffffffffffffffffffffffffffffffffffff1614159050919050565b6121e8612336565b600073ffffffffffffffffffffffffffffffffffffffff168473ffffffffffffffffffffffffffffffffffffffff16148061224f5750600073ffffffffffffffffffffffffffffffffffffffff168373ffffffffffffffffffffffffffffffffffffffff16145b61228e576040517f08c379a0000000000000000000000000000000000000000000000000000000008152600401612285906143c3565b60405180910390fd5b50505050565b50505050565b6122a2610f89565b6122e1576040517f08c379a00000000000000000000000000000000000000000000000000000000081526004016122d89061442f565b60405180910390fd5b565b6122ec816125f9565b6000600a6000838152602001908152602001600020805461230c90613420565b90501461233357600a60008281526020019081526020016000206000612332919061299e565b5b50565b61233e610f89565b1561237e576040517f08c379a00000000000000000000000000000000000000000000000000000000081526004016123759061449b565b60405180910390fd5b565b60006123a18473ffffffffffffffffffffffffffffffffffffffff16612747565b156124fa578373ffffffffffffffffffffffffffffffffffffffff1663150b7a026123ca6114aa565b8786866040518563ffffffff1660e01b81526004016123ec9493929190614510565b6020604051808303816000875af192505050801561242857506040513d601f19601f820116820180604052508101906124259190614571565b60015b6124aa573d8060008114612458576040519150601f19603f3d011682016040523d82523d6000602084013e61245d565b606091505b5060008151036124a2576040517f08c379a000000000000000000000000000000000000000000000000000000000815260040161249990614141565b60405180910390fd5b805181602001fd5b63150b7a0260e01b7bffffffffffffffffffffffffffffffffffffffffffffffffffffffff1916817bffffffffffffffffffffffffffffffffffffffffffffffffffffffff1916149150506124ff565b600190505b949350505050565b60606040518060600160405280602281526020016145ce60229139905090565b60606125328261145f565b600061253c612507565b9050600081511161255c5760405180602001604052806000815250612587565b806125668461276a565b60405160200161257792919061419d565b6040516020818303038152906040525b915050919050565b60007f01ffc9a7000000000000000000000000000000000000000000000000000000007bffffffffffffffffffffffffffffffffffffffffffffffffffffffff1916827bffffffffffffffffffffffffffffffffffffffffffffffffffffffff1916149050919050565b600061260482610fa0565b90506126148160008460016121e0565b61261d82610fa0565b90506004600083815260200190815260200160002060006101000a81549073ffffffffffffffffffffffffffffffffffffffff02191690556001600360008373ffffffffffffffffffffffffffffffffffffffff1673ffffffffffffffffffffffffffffffffffffffff168152602001908152602001600020600082825403925050819055506002600083815260200190815260200160002060006101000a81549073ffffffffffffffffffffffffffffffffffffffff021916905581600073ffffffffffffffffffffffffffffffffffffffff168273ffffffffffffffffffffffffffffffffffffffff167fddf252ad1be2c89b69c2b068fc378daa952ba7f163c4a11628f55a4df523b3ef60405160405180910390a4612743816000846001612294565b5050565b6000808273ffffffffffffffffffffffffffffffffffffffff163b119050919050565b60606000600161277984612838565b01905060008167ffffffffffffffff81111561279857612797612cdb565b5b6040519080825280601f01601f1916602001820160405280156127ca5781602001600182028036833780820191505090505b509050600082602001820190505b60011561282d578080600190039150507f3031323334353637383961626364656600000000000000000000000000000000600a86061a8153600a85816128215761282061459e565b5b049450600085036127d8575b819350505050919050565b600080600090507a184f03e93ff9f4daa797ed6e38ed64bf6a1f0100000000000000008310612896577a184f03e93ff9f4daa797ed6e38ed64bf6a1f010000000000000000838161288c5761288b61459e565b5b0492506040810190505b6d04ee2d6d415b85acef810000000083106128d3576d04ee2d6d415b85acef810000000083816128c9576128c861459e565b5b0492506020810190505b662386f26fc10000831061290257662386f26fc1000083816128f8576128f761459e565b5b0492506010810190505b6305f5e100831061292b576305f5e10083816129215761292061459e565b5b0492506008810190505b61271083106129505761271083816129465761294561459e565b5b0492506004810190505b6064831061297357606483816129695761296861459e565b5b0492506002810190505b600a8310612982576001810190505b80915050919050565b6040518060200160405280606081525090565b5080546129aa90613420565b6000825580601f106129bc57506129db565b601f0160209004906000526020600020908101906129da91906129de565b5b50565b5b808211156129f75760008160009055506001016129df565b5090565b6000604051905090565b600080fd5b600080fd5b60007fffffffff0000000000000000000000000000000000000000000000000000000082169050919050565b612a4481612a0f565b8114612a4f57600080fd5b50565b600081359050612a6181612a3b565b92915050565b600060208284031215612a7d57612a7c612a05565b5b6000612a8b84828501612a52565b91505092915050565b60008115159050919050565b612aa981612a94565b82525050565b6000602082019050612ac46000830184612aa0565b92915050565b600081519050919050565b600082825260208201905092915050565b60005b83811015612b04578082015181840152602081019050612ae9565b60008484015250505050565b6000601f19601f8301169050919050565b6000612b2c82612aca565b612b368185612ad5565b9350612b46818560208601612ae6565b612b4f81612b10565b840191505092915050565b60006020820190508181036000830152612b748184612b21565b905092915050565b6000819050919050565b612b8f81612b7c565b8114612b9a57600080fd5b50565b600081359050612bac81612b86565b92915050565b600060208284031215612bc857612bc7612a05565b5b6000612bd684828501612b9d565b91505092915050565b600073ffffffffffffffffffffffffffffffffffffffff82169050919050565b6000612c0a82612bdf565b9050919050565b612c1a81612bff565b82525050565b6000602082019050612c356000830184612c11565b92915050565b612c4481612bff565b8114612c4f57600080fd5b50565b600081359050612c6181612c3b565b92915050565b60008060408385031215612c7e57612c7d612a05565b5b6000612c8c85828601612c52565b9250506020612c9d85828601612b9d565b9150509250929050565b612cb081612b7c565b82525050565b6000602082019050612ccb6000830184612ca7565b92915050565b600080fd5b600080fd5b7f4e487b7100000000000000000000000000000000000000000000000000000000600052604160045260246000fd5b612d1382612b10565b810181811067ffffffffffffffff82111715612d3257612d31612cdb565b5b80604052505050565b6000612d456129fb565b9050612d518282612d0a565b919050565b600067ffffffffffffffff821115612d7157612d70612cdb565b5b612d7a82612b10565b9050602081019050919050565b82818337600083830152505050565b6000612da9612da484612d56565b612d3b565b905082815260208101848484011115612dc557612dc4612cd6565b5b612dd0848285612d87565b509392505050565b600082601f830112612ded57612dec612cd1565b5b8135612dfd848260208601612d96565b91505092915050565b60008060408385031215612e1d57612e1c612a05565b5b6000612e2b85828601612b9d565b925050602083013567ffffffffffffffff811115612e4c57612e4b612a0a565b5b612e5885828601612dd8565b9150509250929050565b600080600060608486031215612e7b57612e7a612a05565b5b6000612e8986828701612c52565b9350506020612e9a86828701612c52565b9250506040612eab86828701612b9d565b9150509250925092565b600067ffffffffffffffff821115612ed057612ecf612cdb565b5b602082029050602081019050919050565b600080fd5b6000612ef9612ef484612eb5565b612d3b565b90508083825260208201905060208402830185811115612f1c57612f1b612ee1565b5b835b81811015612f455780612f318882612b9d565b845260208401935050602081019050612f1e565b5050509392505050565b600082601f830112612f6457612f63612cd1565b5b8135612f74848260208601612ee6565b91505092915050565b600060208284031215612f9357612f92612a05565b5b600082013567ffffffffffffffff811115612fb157612fb0612a0a565b5b612fbd84828501612f4f565b91505092915050565b600081519050919050565b600082825260208201905092915050565b6000819050602082019050919050565b600082825260208201905092915050565b600061300e82612aca565b6130188185612ff2565b9350613028818560208601612ae6565b61303181612b10565b840191505092915050565b600060208301600083015184820360008601526130598282613003565b9150508091505092915050565b6000613072838361303c565b905092915050565b6000602082019050919050565b600061309282612fc6565b61309c8185612fd1565b9350836020820285016130ae85612fe2565b8060005b858110156130ea57848403895281516130cb8582613066565b94506130d68361307a565b925060208a019950506001810190506130b2565b50829750879550505050505092915050565b600060208201905081810360008301526131168184613087565b905092915050565b60006020828403121561313457613133612a05565b5b600061314284828501612c52565b91505092915050565b6000819050919050565b600061317061316b61316684612bdf565b61314b565b612bdf565b9050919050565b600061318282613155565b9050919050565b600061319482613177565b9050919050565b6131a481613189565b82525050565b60006020820190506131bf600083018461319b565b92915050565b6131ce81612a94565b81146131d957600080fd5b50565b6000813590506131eb816131c5565b92915050565b6000806040838503121561320857613207612a05565b5b600061321685828601612c52565b9250506020613227858286016131dc565b9150509250929050565b600067ffffffffffffffff82111561324c5761324b612cdb565b5b61325582612b10565b9050602081019050919050565b600061327561327084613231565b612d3b565b90508281526020810184848401111561329157613290612cd6565b5b61329c848285612d87565b509392505050565b600082601f8301126132b9576132b8612cd1565b5b81356132c9848260208601613262565b91505092915050565b600080600080608085870312156132ec576132eb612a05565b5b60006132fa87828801612c52565b945050602061330b87828801612c52565b935050604061331c87828801612b9d565b925050606085013567ffffffffffffffff81111561333d5761333c612a0a565b5b613349878288016132a4565b91505092959194509250565b6000806040838503121561336c5761336b612a05565b5b600061337a85828601612c52565b925050602083013567ffffffffffffffff81111561339b5761339a612a0a565b5b6133a785828601612dd8565b9150509250929050565b600080604083850312156133c8576133c7612a05565b5b60006133d685828601612c52565b92505060206133e785828601612c52565b9150509250929050565b7f4e487b7100000000000000000000000000000000000000000000000000000000600052602260045260246000fd5b6000600282049050600182168061343857607f821691505b60208210810361344b5761344a6133f1565b5b50919050565b7f4552433732313a20617070726f76616c20746f2063757272656e74206f776e6560008201527f7200000000000000000000000000000000000000000000000000000000000000602082015250565b60006134ad602183612ad5565b91506134b882613451565b604082019050919050565b600060208201905081810360008301526134dc816134a0565b9050919050565b7f4552433732313a20617070726f76652063616c6c6572206973206e6f7420746f60008201527f6b656e206f776e6572206f7220617070726f76656420666f7220616c6c000000602082015250565b600061353f603d83612ad5565b915061354a826134e3565b604082019050919050565b6000602082019050818103600083015261356e81613532565b9050919050565b7f50726f7465637465642066756e6374696f6e206f6e6c7920696e766f6b61626c60008201527f65206279207369626c696e6720636f6e74726163742e00000000000000000000602082015250565b60006135d1603683612ad5565b91506135dc82613575565b604082019050919050565b60006020820190508181036000830152613600816135c4565b9050919050565b60008190508160005260206000209050919050565b60006020601f8301049050919050565b600082821b905092915050565b6000600883026136697fffffffffffffffffffffffffffffffffffffffffffffffffffffffffffffffff8261362c565b613673868361362c565b95508019841693508086168417925050509392505050565b60006136a66136a161369c84612b7c565b61314b565b612b7c565b9050919050565b6000819050919050565b6136c08361368b565b6136d46136cc826136ad565b848454613639565b825550505050565b600090565b6136e96136dc565b6136f48184846136b7565b505050565b5b818110156137185761370d6000826136e1565b6001810190506136fa565b5050565b601f82111561375d5761372e81613607565b6137378461361c565b81016020851015613746578190505b61375a6137528561361c565b8301826136f9565b50505b505050565b600082821c905092915050565b600061378060001984600802613762565b1980831691505092915050565b6000613799838361376f565b9150826002028217905092915050565b6137b282612aca565b67ffffffffffffffff8111156137cb576137ca612cdb565b5b6137d58254613420565b6137e082828561371c565b600060209050601f8311600181146138135760008415613801578287015190505b61380b858261378d565b865550613873565b601f19841661382186613607565b60005b8281101561384957848901518255600182019150602085019450602081019050613824565b868310156138665784890151613862601f89168261376f565b8355505b6001600288020188555050505b505050505050565b60006040820190506138906000830185612ca7565b81810360208301526138a28184612b21565b90509392505050565b7f4552433732313a2063616c6c6572206973206e6f7420746f6b656e206f776e6560008201527f72206f7220617070726f76656400000000000000000000000000000000000000602082015250565b6000613907602d83612ad5565b9150613912826138ab565b604082019050919050565b60006020820190508181036000830152613936816138fa565b9050919050565b7f455243373231456e756d657261626c653a206f776e657220696e646578206f7560008201527f74206f6620626f756e6473000000000000000000000000000000000000000000602082015250565b6000613999602b83612ad5565b91506139a48261393d565b604082019050919050565b600060208201905081810360008301526139c88161398c565b9050919050565b7f4f6e6c792061646d696e732063616e2064656372797074000000000000000000600082015250565b6000613a05601783612ad5565b9150613a10826139cf565b602082019050919050565b60006020820190508181036000830152613a34816139f8565b9050919050565b7f4e487b7100000000000000000000000000000000000000000000000000000000600052601160045260246000fd5b6000613a7582612b7c565b9150613a8083612b7c565b9250828202613a8e81612b7c565b91508282048414831517613aa557613aa4613a3b565b5b5092915050565b7f4e6f7420656e6f7567682066756e647320696e2074726561737572792e000000600082015250565b6000613ae2601d83612ad5565b9150613aed82613aac565b602082019050919050565b60006020820190508181036000830152613b1181613ad5565b9050919050565b7f4e487b7100000000000000000000000000000000000000000000000000000000600052603260045260246000fd5b600081519050613b5681612c3b565b92915050565b600060208284031215613b7257613b71612a05565b5b6000613b8084828501613b47565b91505092915050565b6000613b9482612b7c565b91507fffffffffffffffffffffffffffffffffffffffffffffffffffffffffffffffff8203613bc657613bc5613a3b565b5b600182019050919050565b600081519050919050565b600082825260208201905092915050565b6000819050602082019050919050565b613c0681612b7c565b82525050565b6000613c188383613bfd565b60208301905092915050565b6000602082019050919050565b6000613c3c82613bd1565b613c468185613bdc565b9350613c5183613bed565b8060005b83811015613c82578151613c698882613c0c565b9750613c7483613c24565b925050600181019050613c55565b5085935050505092915050565b60006020820190508181036000830152613ca98184613c31565b905092915050565b7f455243373231456e756d657261626c653a20676c6f62616c20696e646578206f60008201527f7574206f6620626f756e64730000000000000000000000000000000000000000602082015250565b6000613d0d602c83612ad5565b9150613d1882613cb1565b604082019050919050565b60006020820190508181036000830152613d3c81613d00565b9050919050565b7f4552433732313a20696e76616c696420746f6b656e2049440000000000000000600082015250565b6000613d79601883612ad5565b9150613d8482613d43565b602082019050919050565b60006020820190508181036000830152613da881613d6c565b9050919050565b7f4552433732313a2061646472657373207a65726f206973206e6f74206120766160008201527f6c6964206f776e65720000000000000000000000000000000000000000000000602082015250565b6000613e0b602983612ad5565b9150613e1682613daf565b604082019050919050565b60006020820190508181036000830152613e3a81613dfe565b9050919050565b7f4f776e61626c653a206e6577206f776e657220697320746865207a65726f206160008201527f6464726573730000000000000000000000000000000000000000000000000000602082015250565b6000613e9d602683612ad5565b9150613ea882613e41565b604082019050919050565b60006020820190508181036000830152613ecc81613e90565b9050919050565b7f4552433732313a207472616e736665722066726f6d20696e636f72726563742060008201527f6f776e6572000000000000000000000000000000000000000000000000000000602082015250565b6000613f2f602583612ad5565b9150613f3a82613ed3565b604082019050919050565b60006020820190508181036000830152613f5e81613f22565b9050919050565b7f4552433732313a207472616e7366657220746f20746865207a65726f2061646460008201527f7265737300000000000000000000000000000000000000000000000000000000602082015250565b6000613fc1602483612ad5565b9150613fcc82613f65565b604082019050919050565b60006020820190508181036000830152613ff081613fb4565b9050919050565b7f4f776e61626c653a2063616c6c6572206973206e6f7420746865206f776e6572600082015250565b600061402d602083612ad5565b915061403882613ff7565b602082019050919050565b6000602082019050818103600083015261405c81614020565b9050919050565b7f4552433732313a20617070726f766520746f2063616c6c657200000000000000600082015250565b6000614099601983612ad5565b91506140a482614063565b602082019050919050565b600060208201905081810360008301526140c88161408c565b9050919050565b7f4552433732313a207472616e7366657220746f206e6f6e20455243373231526560008201527f63656976657220696d706c656d656e7465720000000000000000000000000000602082015250565b600061412b603283612ad5565b9150614136826140cf565b604082019050919050565b6000602082019050818103600083015261415a8161411e565b9050919050565b600081905092915050565b600061417782612aca565b6141818185614161565b9350614191818560208601612ae6565b80840191505092915050565b60006141a9828561416c565b91506141b5828461416c565b91508190509392505050565b7f4552433732313a206d696e7420746f20746865207a65726f2061646472657373600082015250565b60006141f7602083612ad5565b9150614202826141c1565b602082019050919050565b60006020820190508181036000830152614226816141ea565b9050919050565b7f4552433732313a20746f6b656e20616c7265616479206d696e74656400000000600082015250565b6000614263601c83612ad5565b915061426e8261422d565b602082019050919050565b6000602082019050818103600083015261429281614256565b9050919050565b7f45524337323155524953746f726167653a2055524920736574206f66206e6f6e60008201527f6578697374656e7420746f6b656e000000000000000000000000000000000000602082015250565b60006142f5602e83612ad5565b915061430082614299565b604082019050919050565b60006020820190508181036000830152614324816142e8565b9050919050565b7f54686973206120536f756c626f756e6420746f6b656e2e2049742063616e6e6f60008201527f74206265207472616e736665727265642e2049742063616e206f6e6c7920626560208201527f206275726e65642062792074686520746f6b656e206f776e65722e0000000000604082015250565b60006143ad605b83612ad5565b91506143b88261432b565b606082019050919050565b600060208201905081810360008301526143dc816143a0565b9050919050565b7f5061757361626c653a206e6f7420706175736564000000000000000000000000600082015250565b6000614419601483612ad5565b9150614424826143e3565b602082019050919050565b600060208201905081810360008301526144488161440c565b9050919050565b7f5061757361626c653a2070617573656400000000000000000000000000000000600082015250565b6000614485601083612ad5565b91506144908261444f565b602082019050919050565b600060208201905081810360008301526144b481614478565b9050919050565b600081519050919050565b600082825260208201905092915050565b60006144e2826144bb565b6144ec81856144c6565b93506144fc818560208601612ae6565b61450581612b10565b840191505092915050565b60006080820190506145256000830187612c11565b6145326020830186612c11565b61453f6040830185612ca7565b818103606083015261455181846144d7565b905095945050505050565b60008151905061456b81612a3b565b92915050565b60006020828403121561458757614586612a05565b5b60006145958482850161455c565b91505092915050565b7f4e487b7100000000000000000000000000000000000000000000000000000000600052601260045260246000fdfe68747470733a2f2f636364616f2e6d7970696e6174612e636c6f75642f697066732fa2646970667358221220dfaf2c41db8cbdce18fd37016786e34aacd8fc6fe3e8283759b6ae862de3333764736f6c63430008110033",
  "linkReferences": {},
  "deployedLinkReferences": {}
}