{
  "_format": "hh-sol-artifact-1",
  "contractName": "SpendSBT",
  "sourceName": "contracts/SpendSBT.sol",
  "abi": [
    {
      "inputs": [],
      "stateMutability": "nonpayable",
      "type": "constructor"
    },
    {
      "anonymous": false,
      "inputs": [
        {
          "indexed": true,
          "internalType": "address",
          "name": "owner",
          "type": "address"
        },
        {
          "indexed": true,
          "internalType": "address",
          "name": "approved",
          "type": "address"
        },
        {
          "indexed": true,
          "internalType": "uint256",
          "name": "tokenId",
          "type": "uint256"
        }
      ],
      "name": "Approval",
      "type": "event"
    },
    {
      "anonymous": false,
      "inputs": [
        {
          "indexed": true,
          "internalType": "address",
          "name": "owner",
          "type": "address"
        },
        {
          "indexed": true,
          "internalType": "address",
          "name": "operator",
          "type": "address"
        },
        {
          "indexed": false,
          "internalType": "bool",
          "name": "approved",
          "type": "bool"
        }
      ],
      "name": "ApprovalForAll",
      "type": "event"
    },
    {
      "anonymous": false,
      "inputs": [
        {
          "indexed": true,
          "internalType": "address",
          "name": "previousOwner",
          "type": "address"
        },
        {
          "indexed": true,
          "internalType": "address",
          "name": "newOwner",
          "type": "address"
        }
      ],
      "name": "OwnershipTransferred",
      "type": "event"
    },
    {
      "anonymous": false,
      "inputs": [
        {
          "indexed": true,
          "internalType": "address",
          "name": "from",
          "type": "address"
        },
        {
          "indexed": true,
          "internalType": "address",
          "name": "to",
          "type": "address"
        },
        {
          "indexed": true,
          "internalType": "uint256",
          "name": "tokenId",
          "type": "uint256"
        }
      ],
      "name": "Transfer",
      "type": "event"
    },
    {
      "inputs": [
        {
          "internalType": "address",
          "name": "to",
          "type": "address"
        },
        {
          "internalType": "uint256",
          "name": "tokenId",
          "type": "uint256"
        }
      ],
      "name": "approve",
      "outputs": [],
      "stateMutability": "nonpayable",
      "type": "function"
    },
    {
      "inputs": [
        {
          "internalType": "address",
          "name": "owner",
          "type": "address"
        }
      ],
      "name": "balanceOf",
      "outputs": [
        {
          "internalType": "uint256",
          "name": "",
          "type": "uint256"
        }
      ],
      "stateMutability": "view",
      "type": "function"
    },
    {
      "inputs": [
        {
          "internalType": "uint256",
          "name": "tokenId",
          "type": "uint256"
        }
      ],
      "name": "burn",
      "outputs": [],
      "stateMutability": "nonpayable",
      "type": "function"
    },
    {
      "inputs": [
        {
          "internalType": "uint256[]",
          "name": "tokenIds",
          "type": "uint256[]"
        }
      ],
      "name": "decrypt",
      "outputs": [],
      "stateMutability": "nonpayable",
      "type": "function"
    },
    {
      "inputs": [
        {
          "internalType": "uint256",
          "name": "tokenId",
          "type": "uint256"
        }
      ],
      "name": "fetchHolder",
      "outputs": [
        {
          "internalType": "address",
          "name": "",
          "type": "address"
        }
      ],
      "stateMutability": "view",
      "type": "function"
    },
    {
      "inputs": [],
      "name": "fetchHolders",
      "outputs": [
        {
          "internalType": "address[]",
          "name": "",
          "type": "address[]"
        }
      ],
      "stateMutability": "view",
      "type": "function"
    },
    {
      "inputs": [],
      "name": "fetchNfts",
      "outputs": [
        {
          "components": [
            {
              "internalType": "string",
              "name": "imageUrl",
              "type": "string"
            },
            {
              "internalType": "string",
              "name": "encryptedCid",
              "type": "string"
            },
            {
              "internalType": "bool",
              "name": "isDecrypted",
              "type": "bool"
            }
          ],
          "internalType": "struct SpendSBT.nft[]",
          "name": "",
          "type": "tuple[]"
        }
      ],
      "stateMutability": "view",
      "type": "function"
    },
    {
      "inputs": [
        {
          "internalType": "uint256",
          "name": "tokenId",
          "type": "uint256"
        }
      ],
      "name": "getApproved",
      "outputs": [
        {
          "internalType": "address",
          "name": "",
          "type": "address"
        }
      ],
      "stateMutability": "view",
      "type": "function"
    },
    {
      "inputs": [
        {
          "internalType": "address",
          "name": "owner",
          "type": "address"
        },
        {
          "internalType": "address",
          "name": "operator",
          "type": "address"
        }
      ],
      "name": "isApprovedForAll",
      "outputs": [
        {
          "internalType": "bool",
          "name": "",
          "type": "bool"
        }
      ],
      "stateMutability": "view",
      "type": "function"
    },
    {
      "inputs": [
        {
          "internalType": "string",
          "name": "imageUrl",
          "type": "string"
        },
        {
          "internalType": "string",
          "name": "encryptedCid",
          "type": "string"
        },
        {
          "internalType": "string",
          "name": "symmetricKey",
          "type": "string"
        }
      ],
      "name": "mintLitSBT",
      "outputs": [],
      "stateMutability": "nonpayable",
      "type": "function"
    },
    {
      "inputs": [],
      "name": "name",
      "outputs": [
        {
          "internalType": "string",
          "name": "",
          "type": "string"
        }
      ],
      "stateMutability": "view",
      "type": "function"
    },
    {
      "inputs": [],
      "name": "owner",
      "outputs": [
        {
          "internalType": "address",
          "name": "",
          "type": "address"
        }
      ],
      "stateMutability": "view",
      "type": "function"
    },
    {
      "inputs": [
        {
          "internalType": "uint256",
          "name": "tokenId",
          "type": "uint256"
        }
      ],
      "name": "ownerOf",
      "outputs": [
        {
          "internalType": "address",
          "name": "",
          "type": "address"
        }
      ],
      "stateMutability": "view",
      "type": "function"
    },
    {
      "inputs": [
        {
          "internalType": "address",
          "name": "",
          "type": "address"
        }
      ],
      "name": "ownerToTokenId",
      "outputs": [
        {
          "internalType": "uint256",
          "name": "",
          "type": "uint256"
        }
      ],
      "stateMutability": "view",
      "type": "function"
    },
    {
      "inputs": [],
      "name": "renounceOwnership",
      "outputs": [],
      "stateMutability": "nonpayable",
      "type": "function"
    },
    {
      "inputs": [
        {
          "internalType": "address",
          "name": "from",
          "type": "address"
        },
        {
          "internalType": "address",
          "name": "to",
          "type": "address"
        },
        {
          "internalType": "uint256",
          "name": "tokenId",
          "type": "uint256"
        }
      ],
      "name": "safeTransferFrom",
      "outputs": [],
      "stateMutability": "nonpayable",
      "type": "function"
    },
    {
      "inputs": [
        {
          "internalType": "address",
          "name": "from",
          "type": "address"
        },
        {
          "internalType": "address",
          "name": "to",
          "type": "address"
        },
        {
          "internalType": "uint256",
          "name": "tokenId",
          "type": "uint256"
        },
        {
          "internalType": "bytes",
          "name": "data",
          "type": "bytes"
        }
      ],
      "name": "safeTransferFrom",
      "outputs": [],
      "stateMutability": "nonpayable",
      "type": "function"
    },
    {
      "inputs": [
        {
          "internalType": "address",
          "name": "adminContractAddress",
          "type": "address"
        }
      ],
      "name": "setAdminContract",
      "outputs": [],
      "stateMutability": "nonpayable",
      "type": "function"
    },
    {
      "inputs": [
        {
          "internalType": "address",
          "name": "operator",
          "type": "address"
        },
        {
          "internalType": "bool",
          "name": "approved",
          "type": "bool"
        }
      ],
      "name": "setApprovalForAll",
      "outputs": [],
      "stateMutability": "nonpayable",
      "type": "function"
    },
    {
      "inputs": [],
      "name": "spendAdminContract",
      "outputs": [
        {
          "internalType": "contract SpendAdmin",
          "name": "",
          "type": "address"
        }
      ],
      "stateMutability": "view",
      "type": "function"
    },
    {
      "inputs": [
        {
          "internalType": "bytes4",
          "name": "interfaceId",
          "type": "bytes4"
        }
      ],
      "name": "supportsInterface",
      "outputs": [
        {
          "internalType": "bool",
          "name": "",
          "type": "bool"
        }
      ],
      "stateMutability": "view",
      "type": "function"
    },
    {
      "inputs": [],
      "name": "symbol",
      "outputs": [
        {
          "internalType": "string",
          "name": "",
          "type": "string"
        }
      ],
      "stateMutability": "view",
      "type": "function"
    },
    {
      "inputs": [
        {
          "internalType": "uint256",
          "name": "tokenId",
          "type": "uint256"
        }
      ],
      "name": "tokenURI",
      "outputs": [
        {
          "internalType": "string",
          "name": "",
          "type": "string"
        }
      ],
      "stateMutability": "view",
      "type": "function"
    },
    {
      "inputs": [
        {
          "internalType": "address",
          "name": "from",
          "type": "address"
        },
        {
          "internalType": "address",
          "name": "to",
          "type": "address"
        },
        {
          "internalType": "uint256",
          "name": "tokenId",
          "type": "uint256"
        }
      ],
      "name": "transferFrom",
      "outputs": [],
      "stateMutability": "nonpayable",
      "type": "function"
    },
    {
      "inputs": [
        {
          "internalType": "address",
          "name": "newOwner",
          "type": "address"
        }
      ],
      "name": "transferOwnership",
      "outputs": [],
      "stateMutability": "nonpayable",
      "type": "function"
    },
    {
      "inputs": [
        {
          "internalType": "uint256",
          "name": "tokenId",
          "type": "uint256"
        }
      ],
      "name": "userBurn",
      "outputs": [],
      "stateMutability": "nonpayable",
      "type": "function"
    }
  ],
  "bytecode": "0x60806040523480156200001157600080fd5b506040518060400160405280600881526020017f5370656e645342540000000000000000000000000000000000000000000000008152506040518060400160405280600481526020017f444154410000000000000000000000000000000000000000000000000000000081525081600090816200008f91906200041a565b508060019081620000a191906200041a565b5050506001600781905550620000cc620000c0620000d260201b60201c565b620000da60201b60201c565b62000501565b600033905090565b6000600860009054906101000a900473ffffffffffffffffffffffffffffffffffffffff16905081600860006101000a81548173ffffffffffffffffffffffffffffffffffffffff021916908373ffffffffffffffffffffffffffffffffffffffff1602179055508173ffffffffffffffffffffffffffffffffffffffff168173ffffffffffffffffffffffffffffffffffffffff167f8be0079c531659141344cd1fd0a4f28419497f9722a3daafe3b4186f6b6457e060405160405180910390a35050565b600081519050919050565b7f4e487b7100000000000000000000000000000000000000000000000000000000600052604160045260246000fd5b7f4e487b7100000000000000000000000000000000000000000000000000000000600052602260045260246000fd5b600060028204905060018216806200022257607f821691505b602082108103620002385762000237620001da565b5b50919050565b60008190508160005260206000209050919050565b60006020601f8301049050919050565b600082821b905092915050565b600060088302620002a27fffffffffffffffffffffffffffffffffffffffffffffffffffffffffffffffff8262000263565b620002ae868362000263565b95508019841693508086168417925050509392505050565b6000819050919050565b6000819050919050565b6000620002fb620002f5620002ef84620002c6565b620002d0565b620002c6565b9050919050565b6000819050919050565b6200031783620002da565b6200032f620003268262000302565b84845462000270565b825550505050565b600090565b6200034662000337565b620003538184846200030c565b505050565b5b818110156200037b576200036f6000826200033c565b60018101905062000359565b5050565b601f821115620003ca5762000394816200023e565b6200039f8462000253565b81016020851015620003af578190505b620003c7620003be8562000253565b83018262000358565b50505b505050565b600082821c905092915050565b6000620003ef60001984600802620003cf565b1980831691505092915050565b60006200040a8383620003dc565b9150826002028217905092915050565b6200042582620001a0565b67ffffffffffffffff811115620004415762000440620001ab565b5b6200044d825462000209565b6200045a8282856200037f565b600060209050601f8311600181146200049257600084156200047d578287015190505b620004898582620003fc565b865550620004f9565b601f198416620004a2866200023e565b60005b82811015620004cc57848901518255600182019150602085019450602081019050620004a5565b86831015620004ec5784890151620004e8601f891682620003dc565b8355505b6001600288020188555050505b505050505050565b614abd80620005116000396000f3fe608060405234801561001057600080fd5b506004361061018e5760003560e01c80636352211e116100de578063a22cb46511610097578063dd922a3211610071578063dd922a321461046b578063e985e9c51461049b578063ec4aac29146104cb578063f2fde38b146104e95761018e565b8063a22cb46514610403578063b88d4fde1461041f578063c87b56dd1461043b5761018e565b80636352211e1461034157806363a812f91461037157806370a082311461038d578063715018a6146103bd5780638da5cb5b146103c757806395d89b41146103e55761018e565b80633960f7871161014b57806345269dab1161012557806345269dab146102bb5780634814f035146102d757806349640919146103075780634fa5ba18146103235761018e565b80633960f7871461026757806342842e0e1461028357806342966c681461029f5761018e565b806301ffc9a71461019357806306fdde03146101c3578063081812fc146101e1578063095ea7b31461021157806320de9a631461022d57806323b872dd1461024b575b600080fd5b6101ad60048036038101906101a89190612d99565b610505565b6040516101ba9190612de1565b60405180910390f35b6101cb6105e7565b6040516101d89190612e8c565b60405180910390f35b6101fb60048036038101906101f69190612ee4565b610679565b6040516102089190612f52565b60405180910390f35b61022b60048036038101906102269190612f99565b6106bf565b005b6102356107d6565b604051610242919061314b565b60405180910390f35b6102656004803603810190610260919061316d565b610a05565b005b610281600480360381019061027c9190613308565b610a65565b005b61029d6004803603810190610298919061316d565b610d40565b005b6102b960048036038101906102b49190612ee4565b610d60565b005b6102d560048036038101906102d09190613406565b610dbc565b005b6102f160048036038101906102ec91906134ad565b610fac565b6040516102fe91906134e9565b60405180910390f35b610321600480360381019061031c9190612ee4565b610fc4565b005b61032b611046565b6040516103389190613563565b60405180910390f35b61035b60048036038101906103569190612ee4565b61106c565b6040516103689190612f52565b60405180910390f35b61038b600480360381019061038691906134ad565b6110f2565b005b6103a760048036038101906103a291906134ad565b61113e565b6040516103b491906134e9565b60405180910390f35b6103c56111f5565b005b6103cf611209565b6040516103dc9190612f52565b60405180910390f35b6103ed611233565b6040516103fa9190612e8c565b60405180910390f35b61041d600480360381019061041891906135aa565b6112c5565b005b6104396004803603810190610434919061368b565b6112db565b005b61045560048036038101906104509190612ee4565b61133d565b6040516104629190612e8c565b60405180910390f35b61048560048036038101906104809190612ee4565b61134f565b6040516104929190612f52565b60405180910390f35b6104b560048036038101906104b0919061370e565b61141c565b6040516104c29190612de1565b60405180910390f35b6104d36114b0565b6040516104e0919061380c565b60405180910390f35b61050360048036038101906104fe91906134ad565b6115da565b005b60007f80ac58cd000000000000000000000000000000000000000000000000000000007bffffffffffffffffffffffffffffffffffffffffffffffffffffffff1916827bffffffffffffffffffffffffffffffffffffffffffffffffffffffff191614806105d057507f5b5e139f000000000000000000000000000000000000000000000000000000007bffffffffffffffffffffffffffffffffffffffffffffffffffffffff1916827bffffffffffffffffffffffffffffffffffffffffffffffffffffffff1916145b806105e057506105df8261165d565b5b9050919050565b6060600080546105f69061385d565b80601f01602080910402602001604051908101604052809291908181526020018280546106229061385d565b801561066f5780601f106106445761010080835404028352916020019161066f565b820191906000526020600020905b81548152906001019060200180831161065257829003601f168201915b5050505050905090565b6000610684826116c7565b6004600083815260200190815260200160002060009054906101000a900473ffffffffffffffffffffffffffffffffffffffff169050919050565b60006106ca8261106c565b90508073ffffffffffffffffffffffffffffffffffffffff168373ffffffffffffffffffffffffffffffffffffffff160361073a576040517f08c379a000000000000000000000000000000000000000000000000000000000815260040161073190613900565b60405180910390fd5b8073ffffffffffffffffffffffffffffffffffffffff16610759611712565b73ffffffffffffffffffffffffffffffffffffffff161480610788575061078781610782611712565b61141c565b5b6107c7576040517f08c379a00000000000000000000000000000000000000000000000000000000081526004016107be90613992565b60405180910390fd5b6107d1838361171a565b505050565b606060006107e460096117d3565b67ffffffffffffffff8111156107fd576107fc6131c5565b5b60405190808252806020026020018201604052801561083657816020015b610823612cad565b81526020019060019003908161081b5790505b5090506000600190505b600161084c60096117d3565b61085691906139e1565b8110156109fd576000600b600083815260200190815260200160002060405180606001604052908160008201805461088d9061385d565b80601f01602080910402602001604051908101604052809291908181526020018280546108b99061385d565b80156109065780601f106108db57610100808354040283529160200191610906565b820191906000526020600020905b8154815290600101906020018083116108e957829003601f168201915b5050505050815260200160018201805461091f9061385d565b80601f016020809104026020016040519081016040528092919081815260200182805461094b9061385d565b80156109985780601f1061096d57610100808354040283529160200191610998565b820191906000526020600020905b81548152906001019060200180831161097b57829003601f168201915b505050505081526020016002820160009054906101000a900460ff161515151581525050905080836001846109cd9190613a15565b815181106109de576109dd613a49565b5b60200260200101819052505080806109f590613a78565b915050610840565b508091505090565b610a16610a10611712565b826117e1565b610a55576040517f08c379a0000000000000000000000000000000000000000000000000000000008152600401610a4c90613b32565b60405180910390fd5b610a60838383611876565b505050565b600a60009054906101000a900473ffffffffffffffffffffffffffffffffffffffff1673ffffffffffffffffffffffffffffffffffffffff163373ffffffffffffffffffffffffffffffffffffffff1614610af5576040517f08c379a0000000000000000000000000000000000000000000000000000000008152600401610aec90613bc4565b60405180910390fd5b60005b8151811015610d3c576000600b6000848481518110610b1a57610b19613a49565b5b60200260200101518152602001908152602001600020604051806060016040529081600082018054610b4b9061385d565b80601f0160208091040260200160405190810160405280929190818152602001828054610b779061385d565b8015610bc45780601f10610b9957610100808354040283529160200191610bc4565b820191906000526020600020905b815481529060010190602001808311610ba757829003601f168201915b50505050508152602001600182018054610bdd9061385d565b80601f0160208091040260200160405190810160405280929190818152602001828054610c099061385d565b8015610c565780601f10610c2b57610100808354040283529160200191610c56565b820191906000526020600020905b815481529060010190602001808311610c3957829003601f168201915b505050505081526020016002820160009054906101000a900460ff16151515158152505090508060400151158015610c945750600081602001515114155b15610d2857600181604001901515908115158152505080600b6000858581518110610cc257610cc1613a49565b5b602002602001015181526020019081526020016000206000820151816000019081610ced9190613d86565b506020820151816001019081610d039190613d86565b5060408201518160020160006101000a81548160ff0219169083151502179055509050505b508080610d3490613a78565b915050610af8565b5050565b610d5b838383604051806020016040528060008152506112db565b505050565b610d71610d6b611712565b826117e1565b610db0576040517f08c379a0000000000000000000000000000000000000000000000000000000008152600401610da790613b32565b60405180910390fd5b610db981611b6f565b50565b610dc4611c3e565b610dce6009611c8d565b6000610dda60096117d3565b9050610de63382611ca3565b610df981610df48387611cc1565b611d22565b604051806060016040528085815260200184815260200160001515815250600b60008381526020019081526020016000206000820151816000019081610e3f9190613d86565b506020820151816001019081610e559190613d86565b5060408201518160020160006101000a81548160ff02191690831515021790555090505080600c60003373ffffffffffffffffffffffffffffffffffffffff1673ffffffffffffffffffffffffffffffffffffffff1681526020019081526020016000208190555033600d600083815260200190815260200160002060006101000a81548173ffffffffffffffffffffffffffffffffffffffff021916908373ffffffffffffffffffffffffffffffffffffffff160217905550600a60009054906101000a900473ffffffffffffffffffffffffffffffffffffffff1673ffffffffffffffffffffffffffffffffffffffff166321ab4f0782846040518363ffffffff1660e01b8152600401610f6c929190613e58565b600060405180830381600087803b158015610f8657600080fd5b505af1158015610f9a573d6000803e3d6000fd5b5050505050610fa7611d8f565b505050565b600c6020528060005260406000206000915090505481565b3373ffffffffffffffffffffffffffffffffffffffff16610fe48261106c565b73ffffffffffffffffffffffffffffffffffffffff161461103a576040517f08c379a000000000000000000000000000000000000000000000000000000000815260040161103190613ed4565b60405180910390fd5b61104381611b6f565b50565b600a60009054906101000a900473ffffffffffffffffffffffffffffffffffffffff1681565b60008061107883611d99565b9050600073ffffffffffffffffffffffffffffffffffffffff168173ffffffffffffffffffffffffffffffffffffffff16036110e9576040517f08c379a00000000000000000000000000000000000000000000000000000000081526004016110e090613f40565b60405180910390fd5b80915050919050565b6110fa611dd6565b80600a60006101000a81548173ffffffffffffffffffffffffffffffffffffffff021916908373ffffffffffffffffffffffffffffffffffffffff16021790555050565b60008073ffffffffffffffffffffffffffffffffffffffff168273ffffffffffffffffffffffffffffffffffffffff16036111ae576040517f08c379a00000000000000000000000000000000000000000000000000000000081526004016111a590613fd2565b60405180910390fd5b600360008373ffffffffffffffffffffffffffffffffffffffff1673ffffffffffffffffffffffffffffffffffffffff168152602001908152602001600020549050919050565b6111fd611dd6565b6112076000611e54565b565b6000600860009054906101000a900473ffffffffffffffffffffffffffffffffffffffff16905090565b6060600180546112429061385d565b80601f016020809104026020016040519081016040528092919081815260200182805461126e9061385d565b80156112bb5780601f10611290576101008083540402835291602001916112bb565b820191906000526020600020905b81548152906001019060200180831161129e57829003601f168201915b5050505050905090565b6112d76112d0611712565b8383611f1a565b5050565b6112ec6112e6611712565b836117e1565b61132b576040517f08c379a000000000000000000000000000000000000000000000000000000000815260040161132290613b32565b60405180910390fd5b61133784848484612086565b50505050565b6060611348826120e2565b9050919050565b6000600a60009054906101000a900473ffffffffffffffffffffffffffffffffffffffff1673ffffffffffffffffffffffffffffffffffffffff163373ffffffffffffffffffffffffffffffffffffffff16146113e1576040517f08c379a00000000000000000000000000000000000000000000000000000000081526004016113d890613bc4565b60405180910390fd5b600d600083815260200190815260200160002060009054906101000a900473ffffffffffffffffffffffffffffffffffffffff169050919050565b6000600560008473ffffffffffffffffffffffffffffffffffffffff1673ffffffffffffffffffffffffffffffffffffffff16815260200190815260200160002060008373ffffffffffffffffffffffffffffffffffffffff1673ffffffffffffffffffffffffffffffffffffffff16815260200190815260200160002060009054906101000a900460ff16905092915050565b606060006114be60096117d3565b67ffffffffffffffff8111156114d7576114d66131c5565b5b6040519080825280602002602001820160405280156115055781602001602082028036833780820191505090505b5090506000600190505b600161151b60096117d3565b61152591906139e1565b8110156115d2576000600d600083815260200190815260200160002060009054906101000a900473ffffffffffffffffffffffffffffffffffffffff16905080836001846115739190613a15565b8151811061158457611583613a49565b5b602002602001019073ffffffffffffffffffffffffffffffffffffffff16908173ffffffffffffffffffffffffffffffffffffffff16815250505080806115ca90613a78565b91505061150f565b508091505090565b6115e2611dd6565b600073ffffffffffffffffffffffffffffffffffffffff168173ffffffffffffffffffffffffffffffffffffffff1603611651576040517f08c379a000000000000000000000000000000000000000000000000000000000815260040161164890614064565b60405180910390fd5b61165a81611e54565b50565b60007f01ffc9a7000000000000000000000000000000000000000000000000000000007bffffffffffffffffffffffffffffffffffffffffffffffffffffffff1916827bffffffffffffffffffffffffffffffffffffffffffffffffffffffff1916149050919050565b6116d0816121f4565b61170f576040517f08c379a000000000000000000000000000000000000000000000000000000000815260040161170690613f40565b60405180910390fd5b50565b600033905090565b816004600083815260200190815260200160002060006101000a81548173ffffffffffffffffffffffffffffffffffffffff021916908373ffffffffffffffffffffffffffffffffffffffff160217905550808273ffffffffffffffffffffffffffffffffffffffff1661178d8361106c565b73ffffffffffffffffffffffffffffffffffffffff167f8c5be1e5ebec7d5bd14f71427d1e84f3dd0314c0f7b2291e5b200ac8c7c3b92560405160405180910390a45050565b600081600001549050919050565b6000806117ed8361106c565b90508073ffffffffffffffffffffffffffffffffffffffff168473ffffffffffffffffffffffffffffffffffffffff16148061182f575061182e818561141c565b5b8061186d57508373ffffffffffffffffffffffffffffffffffffffff1661185584610679565b73ffffffffffffffffffffffffffffffffffffffff16145b91505092915050565b8273ffffffffffffffffffffffffffffffffffffffff166118968261106c565b73ffffffffffffffffffffffffffffffffffffffff16146118ec576040517f08c379a00000000000000000000000000000000000000000000000000000000081526004016118e3906140f6565b60405180910390fd5b600073ffffffffffffffffffffffffffffffffffffffff168273ffffffffffffffffffffffffffffffffffffffff160361195b576040517f08c379a000000000000000000000000000000000000000000000000000000000815260040161195290614188565b60405180910390fd5b6119688383836001612235565b8273ffffffffffffffffffffffffffffffffffffffff166119888261106c565b73ffffffffffffffffffffffffffffffffffffffff16146119de576040517f08c379a00000000000000000000000000000000000000000000000000000000081526004016119d5906140f6565b60405180910390fd5b6004600082815260200190815260200160002060006101000a81549073ffffffffffffffffffffffffffffffffffffffff02191690556001600360008573ffffffffffffffffffffffffffffffffffffffff1673ffffffffffffffffffffffffffffffffffffffff168152602001908152602001600020600082825403925050819055506001600360008473ffffffffffffffffffffffffffffffffffffffff1673ffffffffffffffffffffffffffffffffffffffff16815260200190815260200160002060008282540192505081905550816002600083815260200190815260200160002060006101000a81548173ffffffffffffffffffffffffffffffffffffffff021916908373ffffffffffffffffffffffffffffffffffffffff160217905550808273ffffffffffffffffffffffffffffffffffffffff168473ffffffffffffffffffffffffffffffffffffffff167fddf252ad1be2c89b69c2b068fc378daa952ba7f163c4a11628f55a4df523b3ef60405160405180910390a4611b6a83838360016122e1565b505050565b611b78816122e7565b600b600082815260200190815260200160002060008082016000611b9c9190612cd0565b600182016000611bac9190612cd0565b6002820160006101000a81549060ff02191690555050600d600082815260200190815260200160002060006101000a81549073ffffffffffffffffffffffffffffffffffffffff0219169055600c60003373ffffffffffffffffffffffffffffffffffffffff1673ffffffffffffffffffffffffffffffffffffffff1681526020019081526020016000206000905550565b600260075403611c83576040517f08c379a0000000000000000000000000000000000000000000000000000000008152600401611c7a906141f4565b60405180910390fd5b6002600781905550565b6001816000016000828254019250508190555050565b611cbd82826040518060200160405280600081525061233a565b5050565b60606000611cce84612395565b83604051602001611ce092919061443e565b6040516020818303038152906040529050611cfa81612463565b604051602001611d0a91906144f0565b60405160208183030381529060405291505092915050565b611d2b826121f4565b611d6a576040517f08c379a0000000000000000000000000000000000000000000000000000000008152600401611d6190614584565b60405180910390fd5b80600660008481526020019081526020016000209081611d8a9190613d86565b505050565b6001600781905550565b60006002600083815260200190815260200160002060009054906101000a900473ffffffffffffffffffffffffffffffffffffffff169050919050565b611dde611712565b73ffffffffffffffffffffffffffffffffffffffff16611dfc611209565b73ffffffffffffffffffffffffffffffffffffffff1614611e52576040517f08c379a0000000000000000000000000000000000000000000000000000000008152600401611e49906145f0565b60405180910390fd5b565b6000600860009054906101000a900473ffffffffffffffffffffffffffffffffffffffff16905081600860006101000a81548173ffffffffffffffffffffffffffffffffffffffff021916908373ffffffffffffffffffffffffffffffffffffffff1602179055508173ffffffffffffffffffffffffffffffffffffffff168173ffffffffffffffffffffffffffffffffffffffff167f8be0079c531659141344cd1fd0a4f28419497f9722a3daafe3b4186f6b6457e060405160405180910390a35050565b8173ffffffffffffffffffffffffffffffffffffffff168373ffffffffffffffffffffffffffffffffffffffff1603611f88576040517f08c379a0000000000000000000000000000000000000000000000000000000008152600401611f7f9061465c565b60405180910390fd5b80600560008573ffffffffffffffffffffffffffffffffffffffff1673ffffffffffffffffffffffffffffffffffffffff16815260200190815260200160002060008473ffffffffffffffffffffffffffffffffffffffff1673ffffffffffffffffffffffffffffffffffffffff16815260200190815260200160002060006101000a81548160ff0219169083151502179055508173ffffffffffffffffffffffffffffffffffffffff168373ffffffffffffffffffffffffffffffffffffffff167f17307eab39ab6107e8899845ad3d59bd9653f200f220920489ca2b5937696c31836040516120799190612de1565b60405180910390a3505050565b612091848484611876565b61209d848484846125c6565b6120dc576040517f08c379a00000000000000000000000000000000000000000000000000000000081526004016120d3906146ee565b60405180910390fd5b50505050565b60606120ed826116c7565b600060066000848152602001908152602001600020805461210d9061385d565b80601f01602080910402602001604051908101604052809291908181526020018280546121399061385d565b80156121865780601f1061215b57610100808354040283529160200191612186565b820191906000526020600020905b81548152906001019060200180831161216957829003601f168201915b50505050509050600061219761274d565b905060008151036121ac5781925050506121ef565b6000825111156121e15780826040516020016121c992919061470e565b604051602081830303815290604052925050506121ef565b6121ea84612764565b925050505b919050565b60008073ffffffffffffffffffffffffffffffffffffffff1661221683611d99565b73ffffffffffffffffffffffffffffffffffffffff1614159050919050565b600073ffffffffffffffffffffffffffffffffffffffff168473ffffffffffffffffffffffffffffffffffffffff16148061229c5750600073ffffffffffffffffffffffffffffffffffffffff168373ffffffffffffffffffffffffffffffffffffffff16145b6122db576040517f08c379a00000000000000000000000000000000000000000000000000000000081526004016122d2906147ca565b60405180910390fd5b50505050565b50505050565b6122f0816127cc565b60006006600083815260200190815260200160002080546123109061385d565b905014612337576006600082815260200190815260200160002060006123369190612cd0565b5b50565b612344838361291a565b61235160008484846125c6565b612390576040517f08c379a0000000000000000000000000000000000000000000000000000000008152600401612387906146ee565b60405180910390fd5b505050565b6060600060016123a484612b37565b01905060008167ffffffffffffffff8111156123c3576123c26131c5565b5b6040519080825280601f01601f1916602001820160405280156123f55781602001600182028036833780820191505090505b509050600082602001820190505b600115612458578080600190039150507f3031323334353637383961626364656600000000000000000000000000000000600a86061a8153600a858161244c5761244b6147ea565b5b04945060008503612403575b819350505050919050565b60606000825103612485576040518060200160405280600081525090506125c1565b6000604051806060016040528060408152602001614a4860409139905060006003600285516124b491906139e1565b6124be9190614819565b60046124ca919061484a565b67ffffffffffffffff8111156124e3576124e26131c5565b5b6040519080825280601f01601f1916602001820160405280156125155781602001600182028036833780820191505090505b509050600182016020820185865187015b80821015612581576003820191508151603f8160121c168501518453600184019350603f81600c1c168501518453600184019350603f8160061c168501518453600184019350603f8116850151845360018401935050612526565b505060038651066001811461259d57600281146125b0576125b8565b603d6001830353603d60028303536125b8565b603d60018303535b50505080925050505b919050565b60006125e78473ffffffffffffffffffffffffffffffffffffffff16612c8a565b15612740578373ffffffffffffffffffffffffffffffffffffffff1663150b7a02612610611712565b8786866040518563ffffffff1660e01b815260040161263294939291906148e1565b6020604051808303816000875af192505050801561266e57506040513d601f19601f8201168201806040525081019061266b9190614942565b60015b6126f0573d806000811461269e576040519150601f19603f3d011682016040523d82523d6000602084013e6126a3565b606091505b5060008151036126e8576040517f08c379a00000000000000000000000000000000000000000000000000000000081526004016126df906146ee565b60405180910390fd5b805181602001fd5b63150b7a0260e01b7bffffffffffffffffffffffffffffffffffffffffffffffffffffffff1916817bffffffffffffffffffffffffffffffffffffffffffffffffffffffff191614915050612745565b600190505b949350505050565b606060405180602001604052806000815250905090565b606061276f826116c7565b600061277961274d565b9050600081511161279957604051806020016040528060008152506127c4565b806127a384612395565b6040516020016127b492919061470e565b6040516020818303038152906040525b915050919050565b60006127d78261106c565b90506127e7816000846001612235565b6127f08261106c565b90506004600083815260200190815260200160002060006101000a81549073ffffffffffffffffffffffffffffffffffffffff02191690556001600360008373ffffffffffffffffffffffffffffffffffffffff1673ffffffffffffffffffffffffffffffffffffffff168152602001908152602001600020600082825403925050819055506002600083815260200190815260200160002060006101000a81549073ffffffffffffffffffffffffffffffffffffffff021916905581600073ffffffffffffffffffffffffffffffffffffffff168273ffffffffffffffffffffffffffffffffffffffff167fddf252ad1be2c89b69c2b068fc378daa952ba7f163c4a11628f55a4df523b3ef60405160405180910390a46129168160008460016122e1565b5050565b600073ffffffffffffffffffffffffffffffffffffffff168273ffffffffffffffffffffffffffffffffffffffff1603612989576040517f08c379a0000000000000000000000000000000000000000000000000000000008152600401612980906149bb565b60405180910390fd5b612992816121f4565b156129d2576040517f08c379a00000000000000000000000000000000000000000000000000000000081526004016129c990614a27565b60405180910390fd5b6129e0600083836001612235565b6129e9816121f4565b15612a29576040517f08c379a0000000000000000000000000000000000000000000000000000000008152600401612a2090614a27565b60405180910390fd5b6001600360008473ffffffffffffffffffffffffffffffffffffffff1673ffffffffffffffffffffffffffffffffffffffff16815260200190815260200160002060008282540192505081905550816002600083815260200190815260200160002060006101000a81548173ffffffffffffffffffffffffffffffffffffffff021916908373ffffffffffffffffffffffffffffffffffffffff160217905550808273ffffffffffffffffffffffffffffffffffffffff16600073ffffffffffffffffffffffffffffffffffffffff167fddf252ad1be2c89b69c2b068fc378daa952ba7f163c4a11628f55a4df523b3ef60405160405180910390a4612b336000838360016122e1565b5050565b600080600090507a184f03e93ff9f4daa797ed6e38ed64bf6a1f0100000000000000008310612b95577a184f03e93ff9f4daa797ed6e38ed64bf6a1f0100000000000000008381612b8b57612b8a6147ea565b5b0492506040810190505b6d04ee2d6d415b85acef81000000008310612bd2576d04ee2d6d415b85acef81000000008381612bc857612bc76147ea565b5b0492506020810190505b662386f26fc100008310612c0157662386f26fc100008381612bf757612bf66147ea565b5b0492506010810190505b6305f5e1008310612c2a576305f5e1008381612c2057612c1f6147ea565b5b0492506008810190505b6127108310612c4f576127108381612c4557612c446147ea565b5b0492506004810190505b60648310612c725760648381612c6857612c676147ea565b5b0492506002810190505b600a8310612c81576001810190505b80915050919050565b6000808273ffffffffffffffffffffffffffffffffffffffff163b119050919050565b604051806060016040528060608152602001606081526020016000151581525090565b508054612cdc9061385d565b6000825580601f10612cee5750612d0d565b601f016020900490600052602060002090810190612d0c9190612d10565b5b50565b5b80821115612d29576000816000905550600101612d11565b5090565b6000604051905090565b600080fd5b600080fd5b60007fffffffff0000000000000000000000000000000000000000000000000000000082169050919050565b612d7681612d41565b8114612d8157600080fd5b50565b600081359050612d9381612d6d565b92915050565b600060208284031215612daf57612dae612d37565b5b6000612dbd84828501612d84565b91505092915050565b60008115159050919050565b612ddb81612dc6565b82525050565b6000602082019050612df66000830184612dd2565b92915050565b600081519050919050565b600082825260208201905092915050565b60005b83811015612e36578082015181840152602081019050612e1b565b60008484015250505050565b6000601f19601f8301169050919050565b6000612e5e82612dfc565b612e688185612e07565b9350612e78818560208601612e18565b612e8181612e42565b840191505092915050565b60006020820190508181036000830152612ea68184612e53565b905092915050565b6000819050919050565b612ec181612eae565b8114612ecc57600080fd5b50565b600081359050612ede81612eb8565b92915050565b600060208284031215612efa57612ef9612d37565b5b6000612f0884828501612ecf565b91505092915050565b600073ffffffffffffffffffffffffffffffffffffffff82169050919050565b6000612f3c82612f11565b9050919050565b612f4c81612f31565b82525050565b6000602082019050612f676000830184612f43565b92915050565b612f7681612f31565b8114612f8157600080fd5b50565b600081359050612f9381612f6d565b92915050565b60008060408385031215612fb057612faf612d37565b5b6000612fbe85828601612f84565b9250506020612fcf85828601612ecf565b9150509250929050565b600081519050919050565b600082825260208201905092915050565b6000819050602082019050919050565b600082825260208201905092915050565b600061302182612dfc565b61302b8185613005565b935061303b818560208601612e18565b61304481612e42565b840191505092915050565b61305881612dc6565b82525050565b6000606083016000830151848203600086015261307b8282613016565b915050602083015184820360208601526130958282613016565b91505060408301516130aa604086018261304f565b508091505092915050565b60006130c1838361305e565b905092915050565b6000602082019050919050565b60006130e182612fd9565b6130eb8185612fe4565b9350836020820285016130fd85612ff5565b8060005b85811015613139578484038952815161311a85826130b5565b9450613125836130c9565b925060208a01995050600181019050613101565b50829750879550505050505092915050565b6000602082019050818103600083015261316581846130d6565b905092915050565b60008060006060848603121561318657613185612d37565b5b600061319486828701612f84565b93505060206131a586828701612f84565b92505060406131b686828701612ecf565b9150509250925092565b600080fd5b7f4e487b7100000000000000000000000000000000000000000000000000000000600052604160045260246000fd5b6131fd82612e42565b810181811067ffffffffffffffff8211171561321c5761321b6131c5565b5b80604052505050565b600061322f612d2d565b905061323b82826131f4565b919050565b600067ffffffffffffffff82111561325b5761325a6131c5565b5b602082029050602081019050919050565b600080fd5b600061328461327f84613240565b613225565b905080838252602082019050602084028301858111156132a7576132a661326c565b5b835b818110156132d057806132bc8882612ecf565b8452602084019350506020810190506132a9565b5050509392505050565b600082601f8301126132ef576132ee6131c0565b5b81356132ff848260208601613271565b91505092915050565b60006020828403121561331e5761331d612d37565b5b600082013567ffffffffffffffff81111561333c5761333b612d3c565b5b613348848285016132da565b91505092915050565b600080fd5b600067ffffffffffffffff821115613371576133706131c5565b5b61337a82612e42565b9050602081019050919050565b82818337600083830152505050565b60006133a96133a484613356565b613225565b9050828152602081018484840111156133c5576133c4613351565b5b6133d0848285613387565b509392505050565b600082601f8301126133ed576133ec6131c0565b5b81356133fd848260208601613396565b91505092915050565b60008060006060848603121561341f5761341e612d37565b5b600084013567ffffffffffffffff81111561343d5761343c612d3c565b5b613449868287016133d8565b935050602084013567ffffffffffffffff81111561346a57613469612d3c565b5b613476868287016133d8565b925050604084013567ffffffffffffffff81111561349757613496612d3c565b5b6134a3868287016133d8565b9150509250925092565b6000602082840312156134c3576134c2612d37565b5b60006134d184828501612f84565b91505092915050565b6134e381612eae565b82525050565b60006020820190506134fe60008301846134da565b92915050565b6000819050919050565b600061352961352461351f84612f11565b613504565b612f11565b9050919050565b600061353b8261350e565b9050919050565b600061354d82613530565b9050919050565b61355d81613542565b82525050565b60006020820190506135786000830184613554565b92915050565b61358781612dc6565b811461359257600080fd5b50565b6000813590506135a48161357e565b92915050565b600080604083850312156135c1576135c0612d37565b5b60006135cf85828601612f84565b92505060206135e085828601613595565b9150509250929050565b600067ffffffffffffffff821115613605576136046131c5565b5b61360e82612e42565b9050602081019050919050565b600061362e613629846135ea565b613225565b90508281526020810184848401111561364a57613649613351565b5b613655848285613387565b509392505050565b600082601f830112613672576136716131c0565b5b813561368284826020860161361b565b91505092915050565b600080600080608085870312156136a5576136a4612d37565b5b60006136b387828801612f84565b94505060206136c487828801612f84565b93505060406136d587828801612ecf565b925050606085013567ffffffffffffffff8111156136f6576136f5612d3c565b5b6137028782880161365d565b91505092959194509250565b6000806040838503121561372557613724612d37565b5b600061373385828601612f84565b925050602061374485828601612f84565b9150509250929050565b600081519050919050565b600082825260208201905092915050565b6000819050602082019050919050565b61378381612f31565b82525050565b6000613795838361377a565b60208301905092915050565b6000602082019050919050565b60006137b98261374e565b6137c38185613759565b93506137ce8361376a565b8060005b838110156137ff5781516137e68882613789565b97506137f1836137a1565b9250506001810190506137d2565b5085935050505092915050565b6000602082019050818103600083015261382681846137ae565b905092915050565b7f4e487b7100000000000000000000000000000000000000000000000000000000600052602260045260246000fd5b6000600282049050600182168061387557607f821691505b6020821081036138885761388761382e565b5b50919050565b7f4552433732313a20617070726f76616c20746f2063757272656e74206f776e6560008201527f7200000000000000000000000000000000000000000000000000000000000000602082015250565b60006138ea602183612e07565b91506138f58261388e565b604082019050919050565b60006020820190508181036000830152613919816138dd565b9050919050565b7f4552433732313a20617070726f76652063616c6c6572206973206e6f7420746f60008201527f6b656e206f776e6572206f7220617070726f76656420666f7220616c6c000000602082015250565b600061397c603d83612e07565b915061398782613920565b604082019050919050565b600060208201905081810360008301526139ab8161396f565b9050919050565b7f4e487b7100000000000000000000000000000000000000000000000000000000600052601160045260246000fd5b60006139ec82612eae565b91506139f783612eae565b9250828201905080821115613a0f57613a0e6139b2565b5b92915050565b6000613a2082612eae565b9150613a2b83612eae565b9250828203905081811115613a4357613a426139b2565b5b92915050565b7f4e487b7100000000000000000000000000000000000000000000000000000000600052603260045260246000fd5b6000613a8382612eae565b91507fffffffffffffffffffffffffffffffffffffffffffffffffffffffffffffffff8203613ab557613ab46139b2565b5b600182019050919050565b7f4552433732313a2063616c6c6572206973206e6f7420746f6b656e206f776e6560008201527f72206f7220617070726f76656400000000000000000000000000000000000000602082015250565b6000613b1c602d83612e07565b9150613b2782613ac0565b604082019050919050565b60006020820190508181036000830152613b4b81613b0f565b9050919050565b7f4f6e6c7920696e766f6b61626c65206279207369626c696e6720636f6e74726160008201527f63742e0000000000000000000000000000000000000000000000000000000000602082015250565b6000613bae602383612e07565b9150613bb982613b52565b604082019050919050565b60006020820190508181036000830152613bdd81613ba1565b9050919050565b60008190508160005260206000209050919050565b60006020601f8301049050919050565b600082821b905092915050565b600060088302613c467fffffffffffffffffffffffffffffffffffffffffffffffffffffffffffffffff82613c09565b613c508683613c09565b95508019841693508086168417925050509392505050565b6000613c83613c7e613c7984612eae565b613504565b612eae565b9050919050565b6000819050919050565b613c9d83613c68565b613cb1613ca982613c8a565b848454613c16565b825550505050565b600090565b613cc6613cb9565b613cd1818484613c94565b505050565b5b81811015613cf557613cea600082613cbe565b600181019050613cd7565b5050565b601f821115613d3a57613d0b81613be4565b613d1484613bf9565b81016020851015613d23578190505b613d37613d2f85613bf9565b830182613cd6565b50505b505050565b600082821c905092915050565b6000613d5d60001984600802613d3f565b1980831691505092915050565b6000613d768383613d4c565b9150826002028217905092915050565b613d8f82612dfc565b67ffffffffffffffff811115613da857613da76131c5565b5b613db2825461385d565b613dbd828285613cf9565b600060209050601f831160018114613df05760008415613dde578287015190505b613de88582613d6a565b865550613e50565b601f198416613dfe86613be4565b60005b82811015613e2657848901518255600182019150602085019450602081019050613e01565b86831015613e435784890151613e3f601f891682613d4c565b8355505b6001600288020188555050505b505050505050565b6000604082019050613e6d60008301856134da565b8181036020830152613e7f8184612e53565b90509392505050565b7f596f7520646f206e6f74206f776e207468697320534254000000000000000000600082015250565b6000613ebe601783612e07565b9150613ec982613e88565b602082019050919050565b60006020820190508181036000830152613eed81613eb1565b9050919050565b7f4552433732313a20696e76616c696420746f6b656e2049440000000000000000600082015250565b6000613f2a601883612e07565b9150613f3582613ef4565b602082019050919050565b60006020820190508181036000830152613f5981613f1d565b9050919050565b7f4552433732313a2061646472657373207a65726f206973206e6f74206120766160008201527f6c6964206f776e65720000000000000000000000000000000000000000000000602082015250565b6000613fbc602983612e07565b9150613fc782613f60565b604082019050919050565b60006020820190508181036000830152613feb81613faf565b9050919050565b7f4f776e61626c653a206e6577206f776e657220697320746865207a65726f206160008201527f6464726573730000000000000000000000000000000000000000000000000000602082015250565b600061404e602683612e07565b915061405982613ff2565b604082019050919050565b6000602082019050818103600083015261407d81614041565b9050919050565b7f4552433732313a207472616e736665722066726f6d20696e636f72726563742060008201527f6f776e6572000000000000000000000000000000000000000000000000000000602082015250565b60006140e0602583612e07565b91506140eb82614084565b604082019050919050565b6000602082019050818103600083015261410f816140d3565b9050919050565b7f4552433732313a207472616e7366657220746f20746865207a65726f2061646460008201527f7265737300000000000000000000000000000000000000000000000000000000602082015250565b6000614172602483612e07565b915061417d82614116565b604082019050919050565b600060208201905081810360008301526141a181614165565b9050919050565b7f5265656e7472616e637947756172643a207265656e7472616e742063616c6c00600082015250565b60006141de601f83612e07565b91506141e9826141a8565b602082019050919050565b6000602082019050818103600083015261420d816141d1565b9050919050565b600081905092915050565b7f7b00000000000000000000000000000000000000000000000000000000000000600082015250565b6000614255600183614214565b91506142608261421f565b600182019050919050565b7f226e616d65223a202253504e2044414f20230000000000000000000000000000600082015250565b60006142a1601283614214565b91506142ac8261426b565b601282019050919050565b60006142c282612dfc565b6142cc8185614214565b93506142dc818560208601612e18565b80840191505092915050565b7f222c000000000000000000000000000000000000000000000000000000000000600082015250565b600061431e600283614214565b9150614329826142e8565b600282019050919050565b7f22696d616765223a202200000000000000000000000000000000000000000000600082015250565b600061436a600a83614214565b915061437582614334565b600a82019050919050565b7f226465736372697074696f6e223a20224120736f756c2d626f756e6420746f6b60008201527f656e206973737565642062792053504e2044414f20616c6c6f77696e6720796f60208201527f7520746f2074616b6520636f6e74726f6c206f6620616e64206d6f6e6574697a60408201527f6520796f757220646174612e227d000000000000000000000000000000000000606082015250565b6000614428606e83614214565b915061443382614380565b606e82019050919050565b600061444982614248565b915061445482614294565b915061446082856142b7565b915061446b82614311565b91506144768261435d565b915061448282846142b7565b915061448d82614311565b91506144988261441b565b91508190509392505050565b7f646174613a6170706c69636174696f6e2f6a736f6e3b6261736536342c000000600082015250565b60006144da601d83614214565b91506144e5826144a4565b601d82019050919050565b60006144fb826144cd565b915061450782846142b7565b915081905092915050565b7f45524337323155524953746f726167653a2055524920736574206f66206e6f6e60008201527f6578697374656e7420746f6b656e000000000000000000000000000000000000602082015250565b600061456e602e83612e07565b915061457982614512565b604082019050919050565b6000602082019050818103600083015261459d81614561565b9050919050565b7f4f776e61626c653a2063616c6c6572206973206e6f7420746865206f776e6572600082015250565b60006145da602083612e07565b91506145e5826145a4565b602082019050919050565b60006020820190508181036000830152614609816145cd565b9050919050565b7f4552433732313a20617070726f766520746f2063616c6c657200000000000000600082015250565b6000614646601983612e07565b915061465182614610565b602082019050919050565b6000602082019050818103600083015261467581614639565b9050919050565b7f4552433732313a207472616e7366657220746f206e6f6e20455243373231526560008201527f63656976657220696d706c656d656e7465720000000000000000000000000000602082015250565b60006146d8603283612e07565b91506146e38261467c565b604082019050919050565b60006020820190508181036000830152614707816146cb565b9050919050565b600061471a82856142b7565b915061472682846142b7565b91508190509392505050565b7f54686973206120536f756c626f756e6420746f6b656e2e2049742063616e6e6f60008201527f74206265207472616e736665727265642e2049742063616e206f6e6c7920626560208201527f206275726e65642062792074686520746f6b656e206f776e65722e0000000000604082015250565b60006147b4605b83612e07565b91506147bf82614732565b606082019050919050565b600060208201905081810360008301526147e3816147a7565b9050919050565b7f4e487b7100000000000000000000000000000000000000000000000000000000600052601260045260246000fd5b600061482482612eae565b915061482f83612eae565b92508261483f5761483e6147ea565b5b828204905092915050565b600061485582612eae565b915061486083612eae565b925082820261486e81612eae565b91508282048414831517614885576148846139b2565b5b5092915050565b600081519050919050565b600082825260208201905092915050565b60006148b38261488c565b6148bd8185614897565b93506148cd818560208601612e18565b6148d681612e42565b840191505092915050565b60006080820190506148f66000830187612f43565b6149036020830186612f43565b61491060408301856134da565b818103606083015261492281846148a8565b905095945050505050565b60008151905061493c81612d6d565b92915050565b60006020828403121561495857614957612d37565b5b60006149668482850161492d565b91505092915050565b7f4552433732313a206d696e7420746f20746865207a65726f2061646472657373600082015250565b60006149a5602083612e07565b91506149b08261496f565b602082019050919050565b600060208201905081810360008301526149d481614998565b9050919050565b7f4552433732313a20746f6b656e20616c7265616479206d696e74656400000000600082015250565b6000614a11601c83612e07565b9150614a1c826149db565b602082019050919050565b60006020820190508181036000830152614a4081614a04565b905091905056fe4142434445464748494a4b4c4d4e4f505152535455565758595a6162636465666768696a6b6c6d6e6f707172737475767778797a303132333435363738392b2fa26469706673582212208bed595806cd9ae329cb9ceca9256063ec22bdae64b8e8aaa264e80af2b2d0eb64736f6c63430008110033",
  "linkReferences": {},
  "deployedLinkReferences": {}
}